{"@hyperlane-xyz/core/contracts/libs/Indexed.sol":{"Indexed":{"abi":[{"inputs":[],"stateMutability":"nonpayable","type":"constructor"},{"inputs":[],"name":"deployedBlock","outputs":[{"internalType":"uint256","name":"","type":"uint256"}],"stateMutability":"view","type":"function"}],"evm":{"bytecode":{"linkReferences":{},"object":"60a0604052348015600f57600080fd5b5043608052608051609b61002c600039600060310152609b6000f3fe6080604052348015600f57600080fd5b506004361060285760003560e01c806382ea7bfe14602d575b600080fd5b60537f000000000000000000000000000000000000000000000000000000000000000081565b60405190815260200160405180910390f3fea2646970667358221220ca519593228f9fc61797c7d7e8783d8d6c47d92b733673589d39845aec60751164736f6c63430008180033","opcodes":"PUSH1 0xA0 PUSH1 0x40 MSTORE CALLVALUE DUP1 ISZERO PUSH1 0xF JUMPI PUSH1 0x0 DUP1 REVERT JUMPDEST POP NUMBER PUSH1 0x80 MSTORE PUSH1 0x80 MLOAD PUSH1 0x9B PUSH2 0x2C PUSH1 0x0 CODECOPY PUSH1 0x0 PUSH1 0x31 ADD MSTORE PUSH1 0x9B PUSH1 0x0 RETURN INVALID PUSH1 0x80 PUSH1 0x40 MSTORE CALLVALUE DUP1 ISZERO PUSH1 0xF JUMPI PUSH1 0x0 DUP1 REVERT JUMPDEST POP PUSH1 0x4 CALLDATASIZE LT PUSH1 0x28 JUMPI PUSH1 0x0 CALLDATALOAD PUSH1 0xE0 SHR DUP1 PUSH4 0x82EA7BFE EQ PUSH1 0x2D JUMPI JUMPDEST PUSH1 0x0 DUP1 REVERT JUMPDEST PUSH1 0x53 PUSH32 0x0 DUP2 JUMP JUMPDEST PUSH1 0x40 MLOAD SWAP1 DUP2 MSTORE PUSH1 0x20 ADD PUSH1 0x40 MLOAD DUP1 SWAP2 SUB SWAP1 RETURN INVALID LOG2 PUSH5 0x6970667358 0x22 SLT KECCAK256 0xCA MLOAD SWAP6 SWAP4 0x22 DUP16 SWAP16 0xC6 OR SWAP8 0xC7 0xD7 0xE8 PUSH25 0x3D8D6C47D92B733673589D39845AEC60751164736F6C634300 ADDMOD XOR STOP CALLER "},"methodIdentifiers":{"deployedBlock()":"82ea7bfe"}}}}}