{"@hyperlane-xyz/core/contracts/upgrade/Versioned.sol":{"Versioned":{"abi":[{"inputs":[],"name":"VERSION","outputs":[{"internalType":"uint8","name":"","type":"uint8"}],"stateMutability":"view","type":"function"}],"evm":{"bytecode":{"linkReferences":{},"object":"6080604052348015600f57600080fd5b5060808061001e6000396000f3fe6080604052348015600f57600080fd5b506004361060285760003560e01c8063ffa1ad7414602d575b600080fd5b6034600381565b60405160ff909116815260200160405180910390f3fea2646970667358221220dae890b02c3c18faa4f23ea4f45443726bb34bf735a1f71a19dc233cbf37eca464736f6c63430008180033","opcodes":"PUSH1 0x80 PUSH1 0x40 MSTORE CALLVALUE DUP1 ISZERO PUSH1 0xF JUMPI PUSH1 0x0 DUP1 REVERT JUMPDEST POP PUSH1 0x80 DUP1 PUSH2 0x1E PUSH1 0x0 CODECOPY PUSH1 0x0 RETURN INVALID PUSH1 0x80 PUSH1 0x40 MSTORE CALLVALUE DUP1 ISZERO PUSH1 0xF JUMPI PUSH1 0x0 DUP1 REVERT JUMPDEST POP PUSH1 0x4 CALLDATASIZE LT PUSH1 0x28 JUMPI PUSH1 0x0 CALLDATALOAD PUSH1 0xE0 SHR DUP1 PUSH4 0xFFA1AD74 EQ PUSH1 0x2D JUMPI JUMPDEST PUSH1 0x0 DUP1 REVERT JUMPDEST PUSH1 0x34 PUSH1 0x3 DUP2 JUMP JUMPDEST PUSH1 0x40 MLOAD PUSH1 0xFF SWAP1 SWAP2 AND DUP2 MSTORE PUSH1 0x20 ADD PUSH1 0x40 MLOAD DUP1 SWAP2 SUB SWAP1 RETURN INVALID LOG2 PUSH5 0x6970667358 0x22 SLT KECCAK256 0xDA 0xE8 SWAP1 0xB0 0x2C EXTCODECOPY XOR STATICCALL LOG4 CALLCODE RETURNDATACOPY LOG4 DELEGATECALL SLOAD NUMBER PUSH19 0x6BB34BF735A1F71A19DC233CBF37ECA464736F PUSH13 0x63430008180033000000000000 "},"methodIdentifiers":{"VERSION()":"ffa1ad74"}}}}}