{"@hyperlane-xyz/core/contracts/Mailbox.sol":{"Mailbox":{"abi":[{"inputs":[{"internalType":"uint32","name":"_localDomain","type":"uint32"}],"stateMutability":"nonpayable","type":"constructor"},{"anonymous":false,"inputs":[{"indexed":true,"internalType":"address","name":"hook","type":"address"}],"name":"DefaultHookSet","type":"event"},{"anonymous":false,"inputs":[{"indexed":true,"internalType":"address","name":"module","type":"address"}],"name":"DefaultIsmSet","type":"event"},{"anonymous":false,"inputs":[{"indexed":true,"internalType":"address","name":"sender","type":"address"},{"indexed":true,"internalType":"uint32","name":"destination","type":"uint32"},{"indexed":true,"internalType":"bytes32","name":"recipient","type":"bytes32"},{"indexed":false,"internalType":"bytes","name":"message","type":"bytes"}],"name":"Dispatch","type":"event"},{"anonymous":false,"inputs":[{"indexed":true,"internalType":"bytes32","name":"messageId","type":"bytes32"}],"name":"DispatchId","type":"event"},{"anonymous":false,"inputs":[{"indexed":false,"internalType":"uint8","name":"version","type":"uint8"}],"name":"Initialized","type":"event"},{"anonymous":false,"inputs":[{"indexed":true,"internalType":"address","name":"previousOwner","type":"address"},{"indexed":true,"internalType":"address","name":"newOwner","type":"address"}],"name":"OwnershipTransferred","type":"event"},{"anonymous":false,"inputs":[{"indexed":true,"internalType":"uint32","name":"origin","type":"uint32"},{"indexed":true,"internalType":"bytes32","name":"sender","type":"bytes32"},{"indexed":true,"internalType":"address","name":"recipient","type":"address"}],"name":"Process","type":"event"},{"anonymous":false,"inputs":[{"indexed":true,"internalType":"bytes32","name":"messageId","type":"bytes32"}],"name":"ProcessId","type":"event"},{"anonymous":false,"inputs":[{"indexed":true,"internalType":"address","name":"hook","type":"address"}],"name":"RequiredHookSet","type":"event"},{"inputs":[],"name":"PACKAGE_VERSION","outputs":[{"internalType":"string","name":"","type":"string"}],"stateMutability":"view","type":"function"},{"inputs":[],"name":"VERSION","outputs":[{"internalType":"uint8","name":"","type":"uint8"}],"stateMutability":"view","type":"function"},{"inputs":[],"name":"defaultHook","outputs":[{"internalType":"contract IPostDispatchHook","name":"","type":"address"}],"stateMutability":"view","type":"function"},{"inputs":[],"name":"defaultIsm","outputs":[{"internalType":"contract IInterchainSecurityModule","name":"","type":"address"}],"stateMutability":"view","type":"function"},{"inputs":[{"internalType":"bytes32","name":"_id","type":"bytes32"}],"name":"delivered","outputs":[{"internalType":"bool","name":"","type":"bool"}],"stateMutability":"view","type":"function"},{"inputs":[],"name":"deployedBlock","outputs":[{"internalType":"uint256","name":"","type":"uint256"}],"stateMutability":"view","type":"function"},{"inputs":[{"internalType":"uint32","name":"destinationDomain","type":"uint32"},{"internalType":"bytes32","name":"recipientAddress","type":"bytes32"},{"internalType":"bytes","name":"messageBody","type":"bytes"},{"internalType":"bytes","name":"metadata","type":"bytes"},{"internalType":"contract IPostDispatchHook","name":"hook","type":"address"}],"name":"dispatch","outputs":[{"internalType":"bytes32","name":"","type":"bytes32"}],"stateMutability":"payable","type":"function"},{"inputs":[{"internalType":"uint32","name":"destinationDomain","type":"uint32"},{"internalType":"bytes32","name":"recipientAddress","type":"bytes32"},{"internalType":"bytes","name":"messageBody","type":"bytes"},{"internalType":"bytes","name":"hookMetadata","type":"bytes"}],"name":"dispatch","outputs":[{"internalType":"bytes32","name":"","type":"bytes32"}],"stateMutability":"payable","type":"function"},{"inputs":[{"internalType":"uint32","name":"_destinationDomain","type":"uint32"},{"internalType":"bytes32","name":"_recipientAddress","type":"bytes32"},{"internalType":"bytes","name":"_messageBody","type":"bytes"}],"name":"dispatch","outputs":[{"internalType":"bytes32","name":"","type":"bytes32"}],"stateMutability":"payable","type":"function"},{"inputs":[{"internalType":"address","name":"_owner","type":"address"},{"internalType":"address","name":"_defaultIsm","type":"address"},{"internalType":"address","name":"_defaultHook","type":"address"},{"internalType":"address","name":"_requiredHook","type":"address"}],"name":"initialize","outputs":[],"stateMutability":"nonpayable","type":"function"},{"inputs":[],"name":"latestDispatchedId","outputs":[{"internalType":"bytes32","name":"","type":"bytes32"}],"stateMutability":"view","type":"function"},{"inputs":[],"name":"localDomain","outputs":[{"internalType":"uint32","name":"","type":"uint32"}],"stateMutability":"view","type":"function"},{"inputs":[],"name":"nonce","outputs":[{"internalType":"uint32","name":"","type":"uint32"}],"stateMutability":"view","type":"function"},{"inputs":[],"name":"owner","outputs":[{"internalType":"address","name":"","type":"address"}],"stateMutability":"view","type":"function"},{"inputs":[{"internalType":"bytes","name":"_metadata","type":"bytes"},{"internalType":"bytes","name":"_message","type":"bytes"}],"name":"process","outputs":[],"stateMutability":"payable","type":"function"},{"inputs":[{"internalType":"bytes32","name":"_id","type":"bytes32"}],"name":"processedAt","outputs":[{"internalType":"uint48","name":"","type":"uint48"}],"stateMutability":"view","type":"function"},{"inputs":[{"internalType":"bytes32","name":"_id","type":"bytes32"}],"name":"processor","outputs":[{"internalType":"address","name":"","type":"address"}],"stateMutability":"view","type":"function"},{"inputs":[{"internalType":"uint32","name":"destinationDomain","type":"uint32"},{"internalType":"bytes32","name":"recipientAddress","type":"bytes32"},{"internalType":"bytes","name":"messageBody","type":"bytes"},{"internalType":"bytes","name":"metadata","type":"bytes"},{"internalType":"contract IPostDispatchHook","name":"hook","type":"address"}],"name":"quoteDispatch","outputs":[{"internalType":"uint256","name":"fee","type":"uint256"}],"stateMutability":"view","type":"function"},{"inputs":[{"internalType":"uint32","name":"destinationDomain","type":"uint32"},{"internalType":"bytes32","name":"recipientAddress","type":"bytes32"},{"internalType":"bytes","name":"messageBody","type":"bytes"}],"name":"quoteDispatch","outputs":[{"internalType":"uint256","name":"fee","type":"uint256"}],"stateMutability":"view","type":"function"},{"inputs":[{"internalType":"uint32","name":"destinationDomain","type":"uint32"},{"internalType":"bytes32","name":"recipientAddress","type":"bytes32"},{"internalType":"bytes","name":"messageBody","type":"bytes"},{"internalType":"bytes","name":"defaultHookMetadata","type":"bytes"}],"name":"quoteDispatch","outputs":[{"internalType":"uint256","name":"fee","type":"uint256"}],"stateMutability":"view","type":"function"},{"inputs":[{"internalType":"address","name":"_recipient","type":"address"}],"name":"recipientIsm","outputs":[{"internalType":"contract IInterchainSecurityModule","name":"","type":"address"}],"stateMutability":"view","type":"function"},{"inputs":[],"name":"renounceOwnership","outputs":[],"stateMutability":"nonpayable","type":"function"},{"inputs":[],"name":"requiredHook","outputs":[{"internalType":"contract IPostDispatchHook","name":"","type":"address"}],"stateMutability":"view","type":"function"},{"inputs":[{"internalType":"address","name":"_hook","type":"address"}],"name":"setDefaultHook","outputs":[],"stateMutability":"nonpayable","type":"function"},{"inputs":[{"internalType":"address","name":"_module","type":"address"}],"name":"setDefaultIsm","outputs":[],"stateMutability":"nonpayable","type":"function"},{"inputs":[{"internalType":"address","name":"_hook","type":"address"}],"name":"setRequiredHook","outputs":[],"stateMutability":"nonpayable","type":"function"},{"inputs":[{"internalType":"address","name":"newOwner","type":"address"}],"name":"transferOwnership","outputs":[],"stateMutability":"nonpayable","type":"function"}],"evm":{"bytecode":{"linkReferences":{},"object":"60c060405234801561001057600080fd5b50604051611c03380380611c0383398101604081905261002f91610041565b4360805263ffffffff1660a05261006e565b60006020828403121561005357600080fd5b815163ffffffff8116811461006757600080fd5b9392505050565b60805160a051611b626100a16000396000818161038101528181610962015261127c0152600061034d0152611b626000f3fe60806040526004361061019c5760003560e01c80638da5cb5b116100ec578063e70f48ac1161008a578063f7ccd32111610064578063f7ccd32114610540578063f8c8765e14610560578063fa31de0114610580578063ffa1ad741461059357600080fd5b8063e70f48ac146104e0578063f2fde38b14610500578063f794687a1461052057600080fd5b80639c42bd18116100c65780639c42bd1814610435578063affed0e014610455578063d6d08a0914610472578063e495f1d41461049257600080fd5b80638da5cb5b146103b857806393c44847146103d657806399b048091461041557600080fd5b80635d1fe5a9116101595780637c39d130116101335780637c39d1301461030857806381d2ea951461031b57806382ea7bfe1461033b5780638d3638f41461036f57600080fd5b80635d1fe5a91461029d5780636e5f516e146102d3578063715018a6146102f357600080fd5b806307a2fda1146101a157806310b83dc0146101f9578063134fbb4f1461021a5780631426b7f4146102305780633d1250b71461025257806348aee8d41461028a575b600080fd5b3480156101ad57600080fd5b506101dd6101bc366004611519565b6000908152606a6020526040902054600160a01b900465ffffffffffff1690565b60405165ffffffffffff90911681526020015b60405180910390f35b61020c6102073660046115a2565b6105ba565b6040519081526020016101f0565b34801561022657600080fd5b5061020c60665481565b34801561023c57600080fd5b5061025061024b366004611640565b61080e565b005b34801561025e57600080fd5b50606854610272906001600160a01b031681565b6040516001600160a01b0390911681526020016101f0565b61020c61029836600461165d565b6108c8565b3480156102a957600080fd5b506102726102b8366004611519565b6000908152606a60205260409020546001600160a01b031690565b3480156102df57600080fd5b50606754610272906001600160a01b031681565b3480156102ff57600080fd5b506102506108f9565b6102506103163660046116e7565b61090d565b34801561032757600080fd5b5061020c6103363660046115a2565b610cc4565b34801561034757600080fd5b5061020c7f000000000000000000000000000000000000000000000000000000000000000081565b34801561037b57600080fd5b506103a37f000000000000000000000000000000000000000000000000000000000000000081565b60405163ffffffff90911681526020016101f0565b3480156103c457600080fd5b506033546001600160a01b0316610272565b3480156103e257600080fd5b506104086040518060400160405280600681526020016531302e312e3360d01b81525081565b6040516101f091906117a3565b34801561042157600080fd5b50610250610430366004611640565b610df1565b34801561044157600080fd5b5061020c6104503660046117b6565b610ea5565b34801561046157600080fd5b506065546103a39063ffffffff1681565b34801561047e57600080fd5b50606954610272906001600160a01b031681565b34801561049e57600080fd5b506104d06104ad366004611519565b6000908152606a6020526040902054600160a01b900465ffffffffffff16151590565b60405190151581526020016101f0565b3480156104ec57600080fd5b506102726104fb366004611640565b610ed4565b34801561050c57600080fd5b5061025061051b366004611640565b610fb6565b34801561052c57600080fd5b5061025061053b366004611640565b61102f565b34801561054c57600080fd5b5061020c61055b36600461165d565b6110e2565b34801561056c57600080fd5b5061025061057b366004611804565b611108565b61020c61058e3660046117b6565b611241565b34801561059f57600080fd5b506105a8600381565b60405160ff90911681526020016101f0565b60006001600160a01b0382166105d9576068546001600160a01b031691505b60006105e789898989611267565b8051602082012060668190556065805492935090916001919060009061061490849063ffffffff16611876565b92506101000a81548163ffffffff021916908363ffffffff160217905550888a63ffffffff16336001600160a01b03167f769f711d20c679153d382254f59892613b58a97cc876b249134ac25c80f9c8148560405161067391906117a3565b60405180910390a460405181907f788dbc1b7152732178210e7f4d9d010ef016f9eafbe66786bd7169f56e0c353a90600090a2606954604051630aaccd2360e41b81526000916001600160a01b03169063aaccd230906106db908a908a9088906004016118c3565b602060405180830381865afa1580156106f8573d6000803e3d6000fd5b505050506040513d601f19601f8201168201806040525081019061071c91906118f3565b9050803410156107295750345b60695460405163086011b960e01b81526001600160a01b039091169063086011b990839061075f908b908b9089906004016118c3565b6000604051808303818588803b15801561077857600080fd5b505af115801561078c573d6000803e3d6000fd5b5050505050846001600160a01b031663086011b982346107ac919061190c565b8989876040518563ffffffff1660e01b81526004016107cd939291906118c3565b6000604051808303818588803b1580156107e657600080fd5b505af11580156107fa573d6000803e3d6000fd5b50949e9d5050505050505050505050505050565b6108166112b0565b6001600160a01b0381163b61087e5760405162461bcd60e51b815260206004820152602360248201527f4d61696c626f783a20726571756972656420686f6f6b206e6f7420636f6e74726044820152621858dd60ea1b60648201526084015b60405180910390fd5b606980546001600160a01b0319166001600160a01b0383169081179091556040517f329ec8e2438a73828ecf31a6568d7a91d7b1d79e342b0692914fd053d1a002b190600090a250565b60006108ee878787878787606860009054906101000a90046001600160a01b03166105ba565b979650505050505050565b6109016112b0565b61090b600061130a565b565b6003610919838361135c565b60ff16146109605760405162461bcd60e51b815260206004820152601460248201527326b0b4b63137bc1d103130b2103b32b939b4b7b760611b6044820152606401610875565b7f000000000000000000000000000000000000000000000000000000000000000063ffffffff166109918383611380565b63ffffffff16146109e45760405162461bcd60e51b815260206004820152601f60248201527f4d61696c626f783a20756e65787065637465642064657374696e6174696f6e006044820152606401610875565b6000610a2583838080601f0160208091040260200160405190810160405280939291908181526020018383808284376000920191909152506112a592505050565b6000818152606a6020526040902054909150600160a01b900465ffffffffffff1615610a935760405162461bcd60e51b815260206004820152601a60248201527f4d61696c626f783a20616c72656164792064656c6976657265640000000000006044820152606401610875565b6000610a9f84846113a3565b90506000610aac82610ed4565b60408051808201825233815265ffffffffffff43811660208084019182526000898152606a90915293909320915182549351909116600160a01b026001600160d01b03199093166001600160a01b03918216179290921790559091508216610b1486866113be565b610b1e87876113d7565b63ffffffff167f0d381c2a574ae8f04e213db7cfb4df8df712cdbd427d9868ffef380660ca657460405160405180910390a460405183907f1cae38cdd3d3919489272725a5ae62a4f48b2989b0dae843d3c279fee18073a990600090a2604051637bf41d7760e11b81526001600160a01b0382169063f7e83aee90610bad908a908a908a908a9060040161191f565b6020604051808303816000875af1158015610bcc573d6000803e3d6000fd5b505050506040513d601f19601f82011682018060405250810190610bf09190611946565b610c3c5760405162461bcd60e51b815260206004820181905260248201527f4d61696c626f783a2049534d20766572696669636174696f6e206661696c65646044820152606401610875565b816001600160a01b03166356d5d47534610c5688886113d7565b610c6089896113be565b610c6a8a8a6113e7565b6040518663ffffffff1660e01b8152600401610c899493929190611968565b6000604051808303818588803b158015610ca257600080fd5b505af1158015610cb6573d6000803e3d6000fd5b505050505050505050505050565b60006001600160a01b038216610ce3576068546001600160a01b031691505b6000610cf189898989611267565b604051630aaccd2360e41b81529091506001600160a01b0384169063aaccd23090610d24908890889086906004016118c3565b602060405180830381865afa158015610d41573d6000803e3d6000fd5b505050506040513d601f19601f82011682018060405250810190610d6591906118f3565b606954604051630aaccd2360e41b81526001600160a01b039091169063aaccd23090610d99908990899087906004016118c3565b602060405180830381865afa158015610db6573d6000803e3d6000fd5b505050506040513d601f19601f82011682018060405250810190610dda91906118f3565b610de4919061198e565b9998505050505050505050565b610df96112b0565b6001600160a01b0381163b610e5b5760405162461bcd60e51b815260206004820152602260248201527f4d61696c626f783a2064656661756c7420686f6f6b206e6f7420636f6e74726160448201526118dd60f21b6064820152608401610875565b606880546001600160a01b0319166001600160a01b0383169081179091556040517f65a63e5066ee2fcdf9d32a7f1bf7ce71c76066f19d0609dddccd334ab87237d790600090a250565b6000610ecb85858585610eba868083856119a1565b6068546001600160a01b0316610cc4565b95945050505050565b60408051600481526024810182526020810180516001600160e01b031663de523cf360e01b1790529051600091829182916001600160a01b03861691610f1a91906119cb565b600060405180830381855afa9150503d8060008114610f55576040519150601f19603f3d011682016040523d82523d6000602084013e610f5a565b606091505b5091509150818015610f6c5750805115155b15610fa257600081806020019051810190610f8791906119e7565b90506001600160a01b03811615610fa057949350505050565b505b50506067546001600160a01b031692915050565b610fbe6112b0565b6001600160a01b0381166110235760405162461bcd60e51b815260206004820152602660248201527f4f776e61626c653a206e6577206f776e657220697320746865207a65726f206160448201526564647265737360d01b6064820152608401610875565b61102c8161130a565b50565b6110376112b0565b6001600160a01b0381163b6110985760405162461bcd60e51b815260206004820152602160248201527f4d61696c626f783a2064656661756c742049534d206e6f7420636f6e747261636044820152601d60fa1b6064820152608401610875565b606780546001600160a01b0319166001600160a01b0383169081179091556040517fa76ad0adbf45318f8633aa0210f711273d50fbb6fef76ed95bbae97082c75daa90600090a250565b60006108ee878787878787606860009054906101000a90046001600160a01b0316610cc4565b600054610100900460ff16158080156111285750600054600160ff909116105b806111425750303b158015611142575060005460ff166001145b6111a55760405162461bcd60e51b815260206004820152602e60248201527f496e697469616c697a61626c653a20636f6e747261637420697320616c72656160448201526d191e481a5b9a5d1a585b1a5e995960921b6064820152608401610875565b6000805460ff1916600117905580156111c8576000805461ff0019166101001790555b6111d0611403565b6111d98461102f565b6111e283610df1565b6111eb8261080e565b6111f485610fb6565b801561123a576000805461ff0019169055604051600181527f7f26b83ff96e1f2b6a682f133852f6798a09c465da95921460cefb38474024989060200160405180910390a15b5050505050565b6000610ecb85858585611256868083856119a1565b6068546001600160a01b03166105ba565b606554606090610ecb9060039063ffffffff167f00000000000000000000000000000000000000000000000000000000000000003389898989611432565b805160209091012090565b6033546001600160a01b0316331461090b5760405162461bcd60e51b815260206004820181905260248201527f4f776e61626c653a2063616c6c6572206973206e6f7420746865206f776e65726044820152606401610875565b603380546001600160a01b038381166001600160a01b0319831681179093556040519116919082907f8be0079c531659141344cd1fd0a4f28419497f9722a3daafe3b4186f6b6457e090600090a35050565b600061136b60018284866119a1565b61137491611a04565b60f81c90505b92915050565b6000611390602d602984866119a1565b61139991611a34565b60e01c9392505050565b60006113b76113b28484611470565b611480565b9392505050565b60006113ce6029600984866119a1565b6113b791611a62565b60006113906009600584866119a1565b3660006113f783604d81876119a1565b915091505b9250929050565b600054610100900460ff1661142a5760405162461bcd60e51b815260040161087590611a80565b61090b6114e9565b60608888888888888888604051602001611453989796959493929190611acb565b604051602081830303815290604052905098975050505050505050565b60006113ce604d602d84866119a1565b60006001600160a01b038211156114e55760405162461bcd60e51b8152602060048201526024808201527f5479706543617374733a2062797465733332546f41646472657373206f766572604482015263666c6f7760e01b6064820152608401610875565b5090565b600054610100900460ff166115105760405162461bcd60e51b815260040161087590611a80565b61090b3361130a565b60006020828403121561152b57600080fd5b5035919050565b803563ffffffff8116811461154657600080fd5b919050565b60008083601f84011261155d57600080fd5b50813567ffffffffffffffff81111561157557600080fd5b6020830191508360208285010111156113fc57600080fd5b6001600160a01b038116811461102c57600080fd5b600080600080600080600060a0888a0312156115bd57600080fd5b6115c688611532565b965060208801359550604088013567ffffffffffffffff808211156115ea57600080fd5b6115f68b838c0161154b565b909750955060608a013591508082111561160f57600080fd5b5061161c8a828b0161154b565b90945092505060808801356116308161158d565b8091505092959891949750929550565b60006020828403121561165257600080fd5b81356113b78161158d565b6000806000806000806080878903121561167657600080fd5b61167f87611532565b955060208701359450604087013567ffffffffffffffff808211156116a357600080fd5b6116af8a838b0161154b565b909650945060608901359150808211156116c857600080fd5b506116d589828a0161154b565b979a9699509497509295939492505050565b600080600080604085870312156116fd57600080fd5b843567ffffffffffffffff8082111561171557600080fd5b6117218883890161154b565b9096509450602087013591508082111561173a57600080fd5b506117478782880161154b565b95989497509550505050565b60005b8381101561176e578181015183820152602001611756565b50506000910152565b6000815180845261178f816020860160208601611753565b601f01601f19169290920160200192915050565b6020815260006113b76020830184611777565b600080600080606085870312156117cc57600080fd5b6117d585611532565b935060208501359250604085013567ffffffffffffffff8111156117f857600080fd5b6117478782880161154b565b6000806000806080858703121561181a57600080fd5b84356118258161158d565b935060208501356118358161158d565b925060408501356118458161158d565b915060608501356118558161158d565b939692955090935050565b634e487b7160e01b600052601160045260246000fd5b63ffffffff81811683821601908082111561189357611893611860565b5092915050565b81835281816020850137506000828201602090810191909152601f909101601f19169091010190565b6040815260006118d760408301858761189a565b82810360208401526118e98185611777565b9695505050505050565b60006020828403121561190557600080fd5b5051919050565b8181038181111561137a5761137a611860565b60408152600061193360408301868861189a565b82810360208401526108ee81858761189a565b60006020828403121561195857600080fd5b815180151581146113b757600080fd5b63ffffffff851681528360208201526060604082015260006118e960608301848661189a565b8082018082111561137a5761137a611860565b600080858511156119b157600080fd5b838611156119be57600080fd5b5050820193919092039150565b600082516119dd818460208701611753565b9190910192915050565b6000602082840312156119f957600080fd5b81516113b78161158d565b6001600160f81b03198135818116916001851015611a2c5780818660010360031b1b83161692505b505092915050565b6001600160e01b03198135818116916004851015611a2c5760049490940360031b84901b1690921692915050565b8035602083101561137a57600019602084900360031b1b1692915050565b6020808252602b908201527f496e697469616c697a61626c653a20636f6e7472616374206973206e6f74206960408201526a6e697469616c697a696e6760a81b606082015260800190565b60ff60f81b8960f81b168152600063ffffffff60e01b808a60e01b166001840152808960e01b166005840152876009840152808760e01b1660298401525084602d8301528284604d8401375060009101604d0190815297965050505050505056fea26469706673582212205137c7c49c2007a3212ab2d819fea26afb8c81639f4400061b3d067f4dbf27b764736f6c63430008180033","opcodes":"PUSH1 0xC0 PUSH1 0x40 MSTORE CALLVALUE DUP1 ISZERO PUSH2 0x10 JUMPI PUSH1 0x0 DUP1 REVERT JUMPDEST POP PUSH1 0x40 MLOAD PUSH2 0x1C03 CODESIZE SUB DUP1 PUSH2 0x1C03 DUP4 CODECOPY DUP2 ADD PUSH1 0x40 DUP2 SWAP1 MSTORE PUSH2 0x2F SWAP2 PUSH2 0x41 JUMP JUMPDEST NUMBER PUSH1 0x80 MSTORE PUSH4 0xFFFFFFFF AND PUSH1 0xA0 MSTORE PUSH2 0x6E JUMP JUMPDEST PUSH1 0x0 PUSH1 0x20 DUP3 DUP5 SUB SLT ISZERO PUSH2 0x53 JUMPI PUSH1 0x0 DUP1 REVERT JUMPDEST DUP2 MLOAD PUSH4 0xFFFFFFFF DUP2 AND DUP2 EQ PUSH2 0x67 JUMPI PUSH1 0x0 DUP1 REVERT JUMPDEST SWAP4 SWAP3 POP POP POP JUMP JUMPDEST PUSH1 0x80 MLOAD PUSH1 0xA0 MLOAD PUSH2 0x1B62 PUSH2 0xA1 PUSH1 0x0 CODECOPY PUSH1 0x0 DUP2 DUP2 PUSH2 0x381 ADD MSTORE DUP2 DUP2 PUSH2 0x962 ADD MSTORE PUSH2 0x127C ADD MSTORE PUSH1 0x0 PUSH2 0x34D ADD MSTORE PUSH2 0x1B62 PUSH1 0x0 RETURN INVALID PUSH1 0x80 PUSH1 0x40 MSTORE PUSH1 0x4 CALLDATASIZE LT PUSH2 0x19C JUMPI PUSH1 0x0 CALLDATALOAD PUSH1 0xE0 SHR DUP1 PUSH4 0x8DA5CB5B GT PUSH2 0xEC JUMPI DUP1 PUSH4 0xE70F48AC GT PUSH2 0x8A JUMPI DUP1 PUSH4 0xF7CCD321 GT PUSH2 0x64 JUMPI DUP1 PUSH4 0xF7CCD321 EQ PUSH2 0x540 JUMPI DUP1 PUSH4 0xF8C8765E EQ PUSH2 0x560 JUMPI DUP1 PUSH4 0xFA31DE01 EQ PUSH2 0x580 JUMPI DUP1 PUSH4 0xFFA1AD74 EQ PUSH2 0x593 JUMPI PUSH1 0x0 DUP1 REVERT JUMPDEST DUP1 PUSH4 0xE70F48AC EQ PUSH2 0x4E0 JUMPI DUP1 PUSH4 0xF2FDE38B EQ PUSH2 0x500 JUMPI DUP1 PUSH4 0xF794687A EQ PUSH2 0x520 JUMPI PUSH1 0x0 DUP1 REVERT JUMPDEST DUP1 PUSH4 0x9C42BD18 GT PUSH2 0xC6 JUMPI DUP1 PUSH4 0x9C42BD18 EQ PUSH2 0x435 JUMPI DUP1 PUSH4 0xAFFED0E0 EQ PUSH2 0x455 JUMPI DUP1 PUSH4 0xD6D08A09 EQ PUSH2 0x472 JUMPI DUP1 PUSH4 0xE495F1D4 EQ PUSH2 0x492 JUMPI PUSH1 0x0 DUP1 REVERT JUMPDEST DUP1 PUSH4 0x8DA5CB5B EQ PUSH2 0x3B8 JUMPI DUP1 PUSH4 0x93C44847 EQ PUSH2 0x3D6 JUMPI DUP1 PUSH4 0x99B04809 EQ PUSH2 0x415 JUMPI PUSH1 0x0 DUP1 REVERT JUMPDEST DUP1 PUSH4 0x5D1FE5A9 GT PUSH2 0x159 JUMPI DUP1 PUSH4 0x7C39D130 GT PUSH2 0x133 JUMPI DUP1 PUSH4 0x7C39D130 EQ PUSH2 0x308 JUMPI DUP1 PUSH4 0x81D2EA95 EQ PUSH2 0x31B JUMPI DUP1 PUSH4 0x82EA7BFE EQ PUSH2 0x33B JUMPI DUP1 PUSH4 0x8D3638F4 EQ PUSH2 0x36F JUMPI PUSH1 0x0 DUP1 REVERT JUMPDEST DUP1 PUSH4 0x5D1FE5A9 EQ PUSH2 0x29D JUMPI DUP1 PUSH4 0x6E5F516E EQ PUSH2 0x2D3 JUMPI DUP1 PUSH4 0x715018A6 EQ PUSH2 0x2F3 JUMPI PUSH1 0x0 DUP1 REVERT JUMPDEST DUP1 PUSH4 0x7A2FDA1 EQ PUSH2 0x1A1 JUMPI DUP1 PUSH4 0x10B83DC0 EQ PUSH2 0x1F9 JUMPI DUP1 PUSH4 0x134FBB4F EQ PUSH2 0x21A JUMPI DUP1 PUSH4 0x1426B7F4 EQ PUSH2 0x230 JUMPI DUP1 PUSH4 0x3D1250B7 EQ PUSH2 0x252 JUMPI DUP1 PUSH4 0x48AEE8D4 EQ PUSH2 0x28A JUMPI JUMPDEST PUSH1 0x0 DUP1 REVERT JUMPDEST CALLVALUE DUP1 ISZERO PUSH2 0x1AD JUMPI PUSH1 0x0 DUP1 REVERT JUMPDEST POP PUSH2 0x1DD PUSH2 0x1BC CALLDATASIZE PUSH1 0x4 PUSH2 0x1519 JUMP JUMPDEST PUSH1 0x0 SWAP1 DUP2 MSTORE PUSH1 0x6A PUSH1 0x20 MSTORE PUSH1 0x40 SWAP1 KECCAK256 SLOAD PUSH1 0x1 PUSH1 0xA0 SHL SWAP1 DIV PUSH6 0xFFFFFFFFFFFF AND SWAP1 JUMP JUMPDEST PUSH1 0x40 MLOAD PUSH6 0xFFFFFFFFFFFF SWAP1 SWAP2 AND DUP2 MSTORE PUSH1 0x20 ADD JUMPDEST PUSH1 0x40 MLOAD DUP1 SWAP2 SUB SWAP1 RETURN JUMPDEST PUSH2 0x20C PUSH2 0x207 CALLDATASIZE PUSH1 0x4 PUSH2 0x15A2 JUMP JUMPDEST PUSH2 0x5BA JUMP JUMPDEST PUSH1 0x40 MLOAD SWAP1 DUP2 MSTORE PUSH1 0x20 ADD PUSH2 0x1F0 JUMP JUMPDEST CALLVALUE DUP1 ISZERO PUSH2 0x226 JUMPI PUSH1 0x0 DUP1 REVERT JUMPDEST POP PUSH2 0x20C PUSH1 0x66 SLOAD DUP2 JUMP JUMPDEST CALLVALUE DUP1 ISZERO PUSH2 0x23C JUMPI PUSH1 0x0 DUP1 REVERT JUMPDEST POP PUSH2 0x250 PUSH2 0x24B CALLDATASIZE PUSH1 0x4 PUSH2 0x1640 JUMP JUMPDEST PUSH2 0x80E JUMP JUMPDEST STOP JUMPDEST CALLVALUE DUP1 ISZERO PUSH2 0x25E JUMPI PUSH1 0x0 DUP1 REVERT JUMPDEST POP PUSH1 0x68 SLOAD PUSH2 0x272 SWAP1 PUSH1 0x1 PUSH1 0x1 PUSH1 0xA0 SHL SUB AND DUP2 JUMP JUMPDEST PUSH1 0x40 MLOAD PUSH1 0x1 PUSH1 0x1 PUSH1 0xA0 SHL SUB SWAP1 SWAP2 AND DUP2 MSTORE PUSH1 0x20 ADD PUSH2 0x1F0 JUMP JUMPDEST PUSH2 0x20C PUSH2 0x298 CALLDATASIZE PUSH1 0x4 PUSH2 0x165D JUMP JUMPDEST PUSH2 0x8C8 JUMP JUMPDEST CALLVALUE DUP1 ISZERO PUSH2 0x2A9 JUMPI PUSH1 0x0 DUP1 REVERT JUMPDEST POP PUSH2 0x272 PUSH2 0x2B8 CALLDATASIZE PUSH1 0x4 PUSH2 0x1519 JUMP JUMPDEST PUSH1 0x0 SWAP1 DUP2 MSTORE PUSH1 0x6A PUSH1 0x20 MSTORE PUSH1 0x40 SWAP1 KECCAK256 SLOAD PUSH1 0x1 PUSH1 0x1 PUSH1 0xA0 SHL SUB AND SWAP1 JUMP JUMPDEST CALLVALUE DUP1 ISZERO PUSH2 0x2DF JUMPI PUSH1 0x0 DUP1 REVERT JUMPDEST POP PUSH1 0x67 SLOAD PUSH2 0x272 SWAP1 PUSH1 0x1 PUSH1 0x1 PUSH1 0xA0 SHL SUB AND DUP2 JUMP JUMPDEST CALLVALUE DUP1 ISZERO PUSH2 0x2FF JUMPI PUSH1 0x0 DUP1 REVERT JUMPDEST POP PUSH2 0x250 PUSH2 0x8F9 JUMP JUMPDEST PUSH2 0x250 PUSH2 0x316 CALLDATASIZE PUSH1 0x4 PUSH2 0x16E7 JUMP JUMPDEST PUSH2 0x90D JUMP JUMPDEST CALLVALUE DUP1 ISZERO PUSH2 0x327 JUMPI PUSH1 0x0 DUP1 REVERT JUMPDEST POP PUSH2 0x20C PUSH2 0x336 CALLDATASIZE PUSH1 0x4 PUSH2 0x15A2 JUMP JUMPDEST PUSH2 0xCC4 JUMP JUMPDEST CALLVALUE DUP1 ISZERO PUSH2 0x347 JUMPI PUSH1 0x0 DUP1 REVERT JUMPDEST POP PUSH2 0x20C PUSH32 0x0 DUP2 JUMP JUMPDEST CALLVALUE DUP1 ISZERO PUSH2 0x37B JUMPI PUSH1 0x0 DUP1 REVERT JUMPDEST POP PUSH2 0x3A3 PUSH32 0x0 DUP2 JUMP JUMPDEST PUSH1 0x40 MLOAD PUSH4 0xFFFFFFFF SWAP1 SWAP2 AND DUP2 MSTORE PUSH1 0x20 ADD PUSH2 0x1F0 JUMP JUMPDEST CALLVALUE DUP1 ISZERO PUSH2 0x3C4 JUMPI PUSH1 0x0 DUP1 REVERT JUMPDEST POP PUSH1 0x33 SLOAD PUSH1 0x1 PUSH1 0x1 PUSH1 0xA0 SHL SUB AND PUSH2 0x272 JUMP JUMPDEST CALLVALUE DUP1 ISZERO PUSH2 0x3E2 JUMPI PUSH1 0x0 DUP1 REVERT JUMPDEST POP PUSH2 0x408 PUSH1 0x40 MLOAD DUP1 PUSH1 0x40 ADD PUSH1 0x40 MSTORE DUP1 PUSH1 0x6 DUP2 MSTORE PUSH1 0x20 ADD PUSH6 0x31302E312E33 PUSH1 0xD0 SHL DUP2 MSTORE POP DUP2 JUMP JUMPDEST PUSH1 0x40 MLOAD PUSH2 0x1F0 SWAP2 SWAP1 PUSH2 0x17A3 JUMP JUMPDEST CALLVALUE DUP1 ISZERO PUSH2 0x421 JUMPI PUSH1 0x0 DUP1 REVERT JUMPDEST POP PUSH2 0x250 PUSH2 0x430 CALLDATASIZE PUSH1 0x4 PUSH2 0x1640 JUMP JUMPDEST PUSH2 0xDF1 JUMP JUMPDEST CALLVALUE DUP1 ISZERO PUSH2 0x441 JUMPI PUSH1 0x0 DUP1 REVERT JUMPDEST POP PUSH2 0x20C PUSH2 0x450 CALLDATASIZE PUSH1 0x4 PUSH2 0x17B6 JUMP JUMPDEST PUSH2 0xEA5 JUMP JUMPDEST CALLVALUE DUP1 ISZERO PUSH2 0x461 JUMPI PUSH1 0x0 DUP1 REVERT JUMPDEST POP PUSH1 0x65 SLOAD PUSH2 0x3A3 SWAP1 PUSH4 0xFFFFFFFF AND DUP2 JUMP JUMPDEST CALLVALUE DUP1 ISZERO PUSH2 0x47E JUMPI PUSH1 0x0 DUP1 REVERT JUMPDEST POP PUSH1 0x69 SLOAD PUSH2 0x272 SWAP1 PUSH1 0x1 PUSH1 0x1 PUSH1 0xA0 SHL SUB AND DUP2 JUMP JUMPDEST CALLVALUE DUP1 ISZERO PUSH2 0x49E JUMPI PUSH1 0x0 DUP1 REVERT JUMPDEST POP PUSH2 0x4D0 PUSH2 0x4AD CALLDATASIZE PUSH1 0x4 PUSH2 0x1519 JUMP JUMPDEST PUSH1 0x0 SWAP1 DUP2 MSTORE PUSH1 0x6A PUSH1 0x20 MSTORE PUSH1 0x40 SWAP1 KECCAK256 SLOAD PUSH1 0x1 PUSH1 0xA0 SHL SWAP1 DIV PUSH6 0xFFFFFFFFFFFF AND ISZERO ISZERO SWAP1 JUMP JUMPDEST PUSH1 0x40 MLOAD SWAP1 ISZERO ISZERO DUP2 MSTORE PUSH1 0x20 ADD PUSH2 0x1F0 JUMP JUMPDEST CALLVALUE DUP1 ISZERO PUSH2 0x4EC JUMPI PUSH1 0x0 DUP1 REVERT JUMPDEST POP PUSH2 0x272 PUSH2 0x4FB CALLDATASIZE PUSH1 0x4 PUSH2 0x1640 JUMP JUMPDEST PUSH2 0xED4 JUMP JUMPDEST CALLVALUE DUP1 ISZERO PUSH2 0x50C JUMPI PUSH1 0x0 DUP1 REVERT JUMPDEST POP PUSH2 0x250 PUSH2 0x51B CALLDATASIZE PUSH1 0x4 PUSH2 0x1640 JUMP JUMPDEST PUSH2 0xFB6 JUMP JUMPDEST CALLVALUE DUP1 ISZERO PUSH2 0x52C JUMPI PUSH1 0x0 DUP1 REVERT JUMPDEST POP PUSH2 0x250 PUSH2 0x53B CALLDATASIZE PUSH1 0x4 PUSH2 0x1640 JUMP JUMPDEST PUSH2 0x102F JUMP JUMPDEST CALLVALUE DUP1 ISZERO PUSH2 0x54C JUMPI PUSH1 0x0 DUP1 REVERT JUMPDEST POP PUSH2 0x20C PUSH2 0x55B CALLDATASIZE PUSH1 0x4 PUSH2 0x165D JUMP JUMPDEST PUSH2 0x10E2 JUMP JUMPDEST CALLVALUE DUP1 ISZERO PUSH2 0x56C JUMPI PUSH1 0x0 DUP1 REVERT JUMPDEST POP PUSH2 0x250 PUSH2 0x57B CALLDATASIZE PUSH1 0x4 PUSH2 0x1804 JUMP JUMPDEST PUSH2 0x1108 JUMP JUMPDEST PUSH2 0x20C PUSH2 0x58E CALLDATASIZE PUSH1 0x4 PUSH2 0x17B6 JUMP JUMPDEST PUSH2 0x1241 JUMP JUMPDEST CALLVALUE DUP1 ISZERO PUSH2 0x59F JUMPI PUSH1 0x0 DUP1 REVERT JUMPDEST POP PUSH2 0x5A8 PUSH1 0x3 DUP2 JUMP JUMPDEST PUSH1 0x40 MLOAD PUSH1 0xFF SWAP1 SWAP2 AND DUP2 MSTORE PUSH1 0x20 ADD PUSH2 0x1F0 JUMP JUMPDEST PUSH1 0x0 PUSH1 0x1 PUSH1 0x1 PUSH1 0xA0 SHL SUB DUP3 AND PUSH2 0x5D9 JUMPI PUSH1 0x68 SLOAD PUSH1 0x1 PUSH1 0x1 PUSH1 0xA0 SHL SUB AND SWAP2 POP JUMPDEST PUSH1 0x0 PUSH2 0x5E7 DUP10 DUP10 DUP10 DUP10 PUSH2 0x1267 JUMP JUMPDEST DUP1 MLOAD PUSH1 0x20 DUP3 ADD KECCAK256 PUSH1 0x66 DUP2 SWAP1 SSTORE PUSH1 0x65 DUP1 SLOAD SWAP3 SWAP4 POP SWAP1 SWAP2 PUSH1 0x1 SWAP2 SWAP1 PUSH1 0x0 SWAP1 PUSH2 0x614 SWAP1 DUP5 SWAP1 PUSH4 0xFFFFFFFF AND PUSH2 0x1876 JUMP JUMPDEST SWAP3 POP PUSH2 0x100 EXP DUP2 SLOAD DUP2 PUSH4 0xFFFFFFFF MUL NOT AND SWAP1 DUP4 PUSH4 0xFFFFFFFF AND MUL OR SWAP1 SSTORE POP DUP9 DUP11 PUSH4 0xFFFFFFFF AND CALLER PUSH1 0x1 PUSH1 0x1 PUSH1 0xA0 SHL SUB AND PUSH32 0x769F711D20C679153D382254F59892613B58A97CC876B249134AC25C80F9C814 DUP6 PUSH1 0x40 MLOAD PUSH2 0x673 SWAP2 SWAP1 PUSH2 0x17A3 JUMP JUMPDEST PUSH1 0x40 MLOAD DUP1 SWAP2 SUB SWAP1 LOG4 PUSH1 0x40 MLOAD DUP2 SWAP1 PUSH32 0x788DBC1B7152732178210E7F4D9D010EF016F9EAFBE66786BD7169F56E0C353A SWAP1 PUSH1 0x0 SWAP1 LOG2 PUSH1 0x69 SLOAD PUSH1 0x40 MLOAD PUSH4 0xAACCD23 PUSH1 0xE4 SHL DUP2 MSTORE PUSH1 0x0 SWAP2 PUSH1 0x1 PUSH1 0x1 PUSH1 0xA0 SHL SUB AND SWAP1 PUSH4 0xAACCD230 SWAP1 PUSH2 0x6DB SWAP1 DUP11 SWAP1 DUP11 SWAP1 DUP9 SWAP1 PUSH1 0x4 ADD PUSH2 0x18C3 JUMP JUMPDEST PUSH1 0x20 PUSH1 0x40 MLOAD DUP1 DUP4 SUB DUP2 DUP7 GAS STATICCALL ISZERO DUP1 ISZERO PUSH2 0x6F8 JUMPI RETURNDATASIZE PUSH1 0x0 DUP1 RETURNDATACOPY RETURNDATASIZE PUSH1 0x0 REVERT JUMPDEST POP POP POP POP PUSH1 0x40 MLOAD RETURNDATASIZE PUSH1 0x1F NOT PUSH1 0x1F DUP3 ADD AND DUP3 ADD DUP1 PUSH1 0x40 MSTORE POP DUP2 ADD SWAP1 PUSH2 0x71C SWAP2 SWAP1 PUSH2 0x18F3 JUMP JUMPDEST SWAP1 POP DUP1 CALLVALUE LT ISZERO PUSH2 0x729 JUMPI POP CALLVALUE JUMPDEST PUSH1 0x69 SLOAD PUSH1 0x40 MLOAD PUSH4 0x86011B9 PUSH1 0xE0 SHL DUP2 MSTORE PUSH1 0x1 PUSH1 0x1 PUSH1 0xA0 SHL SUB SWAP1 SWAP2 AND SWAP1 PUSH4 0x86011B9 SWAP1 DUP4 SWAP1 PUSH2 0x75F SWAP1 DUP12 SWAP1 DUP12 SWAP1 DUP10 SWAP1 PUSH1 0x4 ADD PUSH2 0x18C3 JUMP JUMPDEST PUSH1 0x0 PUSH1 0x40 MLOAD DUP1 DUP4 SUB DUP2 DUP6 DUP9 DUP1 EXTCODESIZE ISZERO DUP1 ISZERO PUSH2 0x778 JUMPI PUSH1 0x0 DUP1 REVERT JUMPDEST POP GAS CALL ISZERO DUP1 ISZERO PUSH2 0x78C JUMPI RETURNDATASIZE PUSH1 0x0 DUP1 RETURNDATACOPY RETURNDATASIZE PUSH1 0x0 REVERT JUMPDEST POP POP POP POP POP DUP5 PUSH1 0x1 PUSH1 0x1 PUSH1 0xA0 SHL SUB AND PUSH4 0x86011B9 DUP3 CALLVALUE PUSH2 0x7AC SWAP2 SWAP1 PUSH2 0x190C JUMP JUMPDEST DUP10 DUP10 DUP8 PUSH1 0x40 MLOAD DUP6 PUSH4 0xFFFFFFFF AND PUSH1 0xE0 SHL DUP2 MSTORE PUSH1 0x4 ADD PUSH2 0x7CD SWAP4 SWAP3 SWAP2 SWAP1 PUSH2 0x18C3 JUMP JUMPDEST PUSH1 0x0 PUSH1 0x40 MLOAD DUP1 DUP4 SUB DUP2 DUP6 DUP9 DUP1 EXTCODESIZE ISZERO DUP1 ISZERO PUSH2 0x7E6 JUMPI PUSH1 0x0 DUP1 REVERT JUMPDEST POP GAS CALL ISZERO DUP1 ISZERO PUSH2 0x7FA JUMPI RETURNDATASIZE PUSH1 0x0 DUP1 RETURNDATACOPY RETURNDATASIZE PUSH1 0x0 REVERT JUMPDEST POP SWAP5 SWAP15 SWAP14 POP POP POP POP POP POP POP POP POP POP POP POP POP POP JUMP JUMPDEST PUSH2 0x816 PUSH2 0x12B0 JUMP JUMPDEST PUSH1 0x1 PUSH1 0x1 PUSH1 0xA0 SHL SUB DUP2 AND EXTCODESIZE PUSH2 0x87E JUMPI PUSH1 0x40 MLOAD PUSH3 0x461BCD PUSH1 0xE5 SHL DUP2 MSTORE PUSH1 0x20 PUSH1 0x4 DUP3 ADD MSTORE PUSH1 0x23 PUSH1 0x24 DUP3 ADD MSTORE PUSH32 0x4D61696C626F783A20726571756972656420686F6F6B206E6F7420636F6E7472 PUSH1 0x44 DUP3 ADD MSTORE PUSH3 0x1858DD PUSH1 0xEA SHL PUSH1 0x64 DUP3 ADD MSTORE PUSH1 0x84 ADD JUMPDEST PUSH1 0x40 MLOAD DUP1 SWAP2 SUB SWAP1 REVERT JUMPDEST PUSH1 0x69 DUP1 SLOAD PUSH1 0x1 PUSH1 0x1 PUSH1 0xA0 SHL SUB NOT AND PUSH1 0x1 PUSH1 0x1 PUSH1 0xA0 SHL SUB DUP4 AND SWAP1 DUP2 OR SWAP1 SWAP2 SSTORE PUSH1 0x40 MLOAD PUSH32 0x329EC8E2438A73828ECF31A6568D7A91D7B1D79E342B0692914FD053D1A002B1 SWAP1 PUSH1 0x0 SWAP1 LOG2 POP JUMP JUMPDEST PUSH1 0x0 PUSH2 0x8EE DUP8 DUP8 DUP8 DUP8 DUP8 DUP8 PUSH1 0x68 PUSH1 0x0 SWAP1 SLOAD SWAP1 PUSH2 0x100 EXP SWAP1 DIV PUSH1 0x1 PUSH1 0x1 PUSH1 0xA0 SHL SUB AND PUSH2 0x5BA JUMP JUMPDEST SWAP8 SWAP7 POP POP POP POP POP POP POP JUMP JUMPDEST PUSH2 0x901 PUSH2 0x12B0 JUMP JUMPDEST PUSH2 0x90B PUSH1 0x0 PUSH2 0x130A JUMP JUMPDEST JUMP JUMPDEST PUSH1 0x3 PUSH2 0x919 DUP4 DUP4 PUSH2 0x135C JUMP JUMPDEST PUSH1 0xFF AND EQ PUSH2 0x960 JUMPI PUSH1 0x40 MLOAD PUSH3 0x461BCD PUSH1 0xE5 SHL DUP2 MSTORE PUSH1 0x20 PUSH1 0x4 DUP3 ADD MSTORE PUSH1 0x14 PUSH1 0x24 DUP3 ADD MSTORE PUSH20 0x26B0B4B63137BC1D103130B2103B32B939B4B7B7 PUSH1 0x61 SHL PUSH1 0x44 DUP3 ADD MSTORE PUSH1 0x64 ADD PUSH2 0x875 JUMP JUMPDEST PUSH32 0x0 PUSH4 0xFFFFFFFF AND PUSH2 0x991 DUP4 DUP4 PUSH2 0x1380 JUMP JUMPDEST PUSH4 0xFFFFFFFF AND EQ PUSH2 0x9E4 JUMPI PUSH1 0x40 MLOAD PUSH3 0x461BCD PUSH1 0xE5 SHL DUP2 MSTORE PUSH1 0x20 PUSH1 0x4 DUP3 ADD MSTORE PUSH1 0x1F PUSH1 0x24 DUP3 ADD MSTORE PUSH32 0x4D61696C626F783A20756E65787065637465642064657374696E6174696F6E00 PUSH1 0x44 DUP3 ADD MSTORE PUSH1 0x64 ADD PUSH2 0x875 JUMP JUMPDEST PUSH1 0x0 PUSH2 0xA25 DUP4 DUP4 DUP1 DUP1 PUSH1 0x1F ADD PUSH1 0x20 DUP1 SWAP2 DIV MUL PUSH1 0x20 ADD PUSH1 0x40 MLOAD SWAP1 DUP2 ADD PUSH1 0x40 MSTORE DUP1 SWAP4 SWAP3 SWAP2 SWAP1 DUP2 DUP2 MSTORE PUSH1 0x20 ADD DUP4 DUP4 DUP1 DUP3 DUP5 CALLDATACOPY PUSH1 0x0 SWAP3 ADD SWAP2 SWAP1 SWAP2 MSTORE POP PUSH2 0x12A5 SWAP3 POP POP POP JUMP JUMPDEST PUSH1 0x0 DUP2 DUP2 MSTORE PUSH1 0x6A PUSH1 0x20 MSTORE PUSH1 0x40 SWAP1 KECCAK256 SLOAD SWAP1 SWAP2 POP PUSH1 0x1 PUSH1 0xA0 SHL SWAP1 DIV PUSH6 0xFFFFFFFFFFFF AND ISZERO PUSH2 0xA93 JUMPI PUSH1 0x40 MLOAD PUSH3 0x461BCD PUSH1 0xE5 SHL DUP2 MSTORE PUSH1 0x20 PUSH1 0x4 DUP3 ADD MSTORE PUSH1 0x1A PUSH1 0x24 DUP3 ADD MSTORE PUSH32 0x4D61696C626F783A20616C72656164792064656C697665726564000000000000 PUSH1 0x44 DUP3 ADD MSTORE PUSH1 0x64 ADD PUSH2 0x875 JUMP JUMPDEST PUSH1 0x0 PUSH2 0xA9F DUP5 DUP5 PUSH2 0x13A3 JUMP JUMPDEST SWAP1 POP PUSH1 0x0 PUSH2 0xAAC DUP3 PUSH2 0xED4 JUMP JUMPDEST PUSH1 0x40 DUP1 MLOAD DUP1 DUP3 ADD DUP3 MSTORE CALLER DUP2 MSTORE PUSH6 0xFFFFFFFFFFFF NUMBER DUP2 AND PUSH1 0x20 DUP1 DUP5 ADD SWAP2 DUP3 MSTORE PUSH1 0x0 DUP10 DUP2 MSTORE PUSH1 0x6A SWAP1 SWAP2 MSTORE SWAP4 SWAP1 SWAP4 KECCAK256 SWAP2 MLOAD DUP3 SLOAD SWAP4 MLOAD SWAP1 SWAP2 AND PUSH1 0x1 PUSH1 0xA0 SHL MUL PUSH1 0x1 PUSH1 0x1 PUSH1 0xD0 SHL SUB NOT SWAP1 SWAP4 AND PUSH1 0x1 PUSH1 0x1 PUSH1 0xA0 SHL SUB SWAP2 DUP3 AND OR SWAP3 SWAP1 SWAP3 OR SWAP1 SSTORE SWAP1 SWAP2 POP DUP3 AND PUSH2 0xB14 DUP7 DUP7 PUSH2 0x13BE JUMP JUMPDEST PUSH2 0xB1E DUP8 DUP8 PUSH2 0x13D7 JUMP JUMPDEST PUSH4 0xFFFFFFFF AND PUSH32 0xD381C2A574AE8F04E213DB7CFB4DF8DF712CDBD427D9868FFEF380660CA6574 PUSH1 0x40 MLOAD PUSH1 0x40 MLOAD DUP1 SWAP2 SUB SWAP1 LOG4 PUSH1 0x40 MLOAD DUP4 SWAP1 PUSH32 0x1CAE38CDD3D3919489272725A5AE62A4F48B2989B0DAE843D3C279FEE18073A9 SWAP1 PUSH1 0x0 SWAP1 LOG2 PUSH1 0x40 MLOAD PUSH4 0x7BF41D77 PUSH1 0xE1 SHL DUP2 MSTORE PUSH1 0x1 PUSH1 0x1 PUSH1 0xA0 SHL SUB DUP3 AND SWAP1 PUSH4 0xF7E83AEE SWAP1 PUSH2 0xBAD SWAP1 DUP11 SWAP1 DUP11 SWAP1 DUP11 SWAP1 DUP11 SWAP1 PUSH1 0x4 ADD PUSH2 0x191F JUMP JUMPDEST PUSH1 0x20 PUSH1 0x40 MLOAD DUP1 DUP4 SUB DUP2 PUSH1 0x0 DUP8 GAS CALL ISZERO DUP1 ISZERO PUSH2 0xBCC JUMPI RETURNDATASIZE PUSH1 0x0 DUP1 RETURNDATACOPY RETURNDATASIZE PUSH1 0x0 REVERT JUMPDEST POP POP POP POP PUSH1 0x40 MLOAD RETURNDATASIZE PUSH1 0x1F NOT PUSH1 0x1F DUP3 ADD AND DUP3 ADD DUP1 PUSH1 0x40 MSTORE POP DUP2 ADD SWAP1 PUSH2 0xBF0 SWAP2 SWAP1 PUSH2 0x1946 JUMP JUMPDEST PUSH2 0xC3C JUMPI PUSH1 0x40 MLOAD PUSH3 0x461BCD PUSH1 0xE5 SHL DUP2 MSTORE PUSH1 0x20 PUSH1 0x4 DUP3 ADD DUP2 SWAP1 MSTORE PUSH1 0x24 DUP3 ADD MSTORE PUSH32 0x4D61696C626F783A2049534D20766572696669636174696F6E206661696C6564 PUSH1 0x44 DUP3 ADD MSTORE PUSH1 0x64 ADD PUSH2 0x875 JUMP JUMPDEST DUP2 PUSH1 0x1 PUSH1 0x1 PUSH1 0xA0 SHL SUB AND PUSH4 0x56D5D475 CALLVALUE PUSH2 0xC56 DUP9 DUP9 PUSH2 0x13D7 JUMP JUMPDEST PUSH2 0xC60 DUP10 DUP10 PUSH2 0x13BE JUMP JUMPDEST PUSH2 0xC6A DUP11 DUP11 PUSH2 0x13E7 JUMP JUMPDEST PUSH1 0x40 MLOAD DUP7 PUSH4 0xFFFFFFFF AND PUSH1 0xE0 SHL DUP2 MSTORE PUSH1 0x4 ADD PUSH2 0xC89 SWAP5 SWAP4 SWAP3 SWAP2 SWAP1 PUSH2 0x1968 JUMP JUMPDEST PUSH1 0x0 PUSH1 0x40 MLOAD DUP1 DUP4 SUB DUP2 DUP6 DUP9 DUP1 EXTCODESIZE ISZERO DUP1 ISZERO PUSH2 0xCA2 JUMPI PUSH1 0x0 DUP1 REVERT JUMPDEST POP GAS CALL ISZERO DUP1 ISZERO PUSH2 0xCB6 JUMPI RETURNDATASIZE PUSH1 0x0 DUP1 RETURNDATACOPY RETURNDATASIZE PUSH1 0x0 REVERT JUMPDEST POP POP POP POP POP POP POP POP POP POP POP POP JUMP JUMPDEST PUSH1 0x0 PUSH1 0x1 PUSH1 0x1 PUSH1 0xA0 SHL SUB DUP3 AND PUSH2 0xCE3 JUMPI PUSH1 0x68 SLOAD PUSH1 0x1 PUSH1 0x1 PUSH1 0xA0 SHL SUB AND SWAP2 POP JUMPDEST PUSH1 0x0 PUSH2 0xCF1 DUP10 DUP10 DUP10 DUP10 PUSH2 0x1267 JUMP JUMPDEST PUSH1 0x40 MLOAD PUSH4 0xAACCD23 PUSH1 0xE4 SHL DUP2 MSTORE SWAP1 SWAP2 POP PUSH1 0x1 PUSH1 0x1 PUSH1 0xA0 SHL SUB DUP5 AND SWAP1 PUSH4 0xAACCD230 SWAP1 PUSH2 0xD24 SWAP1 DUP9 SWAP1 DUP9 SWAP1 DUP7 SWAP1 PUSH1 0x4 ADD PUSH2 0x18C3 JUMP JUMPDEST PUSH1 0x20 PUSH1 0x40 MLOAD DUP1 DUP4 SUB DUP2 DUP7 GAS STATICCALL ISZERO DUP1 ISZERO PUSH2 0xD41 JUMPI RETURNDATASIZE PUSH1 0x0 DUP1 RETURNDATACOPY RETURNDATASIZE PUSH1 0x0 REVERT JUMPDEST POP POP POP POP PUSH1 0x40 MLOAD RETURNDATASIZE PUSH1 0x1F NOT PUSH1 0x1F DUP3 ADD AND DUP3 ADD DUP1 PUSH1 0x40 MSTORE POP DUP2 ADD SWAP1 PUSH2 0xD65 SWAP2 SWAP1 PUSH2 0x18F3 JUMP JUMPDEST PUSH1 0x69 SLOAD PUSH1 0x40 MLOAD PUSH4 0xAACCD23 PUSH1 0xE4 SHL DUP2 MSTORE PUSH1 0x1 PUSH1 0x1 PUSH1 0xA0 SHL SUB SWAP1 SWAP2 AND SWAP1 PUSH4 0xAACCD230 SWAP1 PUSH2 0xD99 SWAP1 DUP10 SWAP1 DUP10 SWAP1 DUP8 SWAP1 PUSH1 0x4 ADD PUSH2 0x18C3 JUMP JUMPDEST PUSH1 0x20 PUSH1 0x40 MLOAD DUP1 DUP4 SUB DUP2 DUP7 GAS STATICCALL ISZERO DUP1 ISZERO PUSH2 0xDB6 JUMPI RETURNDATASIZE PUSH1 0x0 DUP1 RETURNDATACOPY RETURNDATASIZE PUSH1 0x0 REVERT JUMPDEST POP POP POP POP PUSH1 0x40 MLOAD RETURNDATASIZE PUSH1 0x1F NOT PUSH1 0x1F DUP3 ADD AND DUP3 ADD DUP1 PUSH1 0x40 MSTORE POP DUP2 ADD SWAP1 PUSH2 0xDDA SWAP2 SWAP1 PUSH2 0x18F3 JUMP JUMPDEST PUSH2 0xDE4 SWAP2 SWAP1 PUSH2 0x198E JUMP JUMPDEST SWAP10 SWAP9 POP POP POP POP POP POP POP POP POP JUMP JUMPDEST PUSH2 0xDF9 PUSH2 0x12B0 JUMP JUMPDEST PUSH1 0x1 PUSH1 0x1 PUSH1 0xA0 SHL SUB DUP2 AND EXTCODESIZE PUSH2 0xE5B JUMPI PUSH1 0x40 MLOAD PUSH3 0x461BCD PUSH1 0xE5 SHL DUP2 MSTORE PUSH1 0x20 PUSH1 0x4 DUP3 ADD MSTORE PUSH1 0x22 PUSH1 0x24 DUP3 ADD MSTORE PUSH32 0x4D61696C626F783A2064656661756C7420686F6F6B206E6F7420636F6E747261 PUSH1 0x44 DUP3 ADD MSTORE PUSH2 0x18DD PUSH1 0xF2 SHL PUSH1 0x64 DUP3 ADD MSTORE PUSH1 0x84 ADD PUSH2 0x875 JUMP JUMPDEST PUSH1 0x68 DUP1 SLOAD PUSH1 0x1 PUSH1 0x1 PUSH1 0xA0 SHL SUB NOT AND PUSH1 0x1 PUSH1 0x1 PUSH1 0xA0 SHL SUB DUP4 AND SWAP1 DUP2 OR SWAP1 SWAP2 SSTORE PUSH1 0x40 MLOAD PUSH32 0x65A63E5066EE2FCDF9D32A7F1BF7CE71C76066F19D0609DDDCCD334AB87237D7 SWAP1 PUSH1 0x0 SWAP1 LOG2 POP JUMP JUMPDEST PUSH1 0x0 PUSH2 0xECB DUP6 DUP6 DUP6 DUP6 PUSH2 0xEBA DUP7 DUP1 DUP4 DUP6 PUSH2 0x19A1 JUMP JUMPDEST PUSH1 0x68 SLOAD PUSH1 0x1 PUSH1 0x1 PUSH1 0xA0 SHL SUB AND PUSH2 0xCC4 JUMP JUMPDEST SWAP6 SWAP5 POP POP POP POP POP JUMP JUMPDEST PUSH1 0x40 DUP1 MLOAD PUSH1 0x4 DUP2 MSTORE PUSH1 0x24 DUP2 ADD DUP3 MSTORE PUSH1 0x20 DUP2 ADD DUP1 MLOAD PUSH1 0x1 PUSH1 0x1 PUSH1 0xE0 SHL SUB AND PUSH4 0xDE523CF3 PUSH1 0xE0 SHL OR SWAP1 MSTORE SWAP1 MLOAD PUSH1 0x0 SWAP2 DUP3 SWAP2 DUP3 SWAP2 PUSH1 0x1 PUSH1 0x1 PUSH1 0xA0 SHL SUB DUP7 AND SWAP2 PUSH2 0xF1A SWAP2 SWAP1 PUSH2 0x19CB JUMP JUMPDEST PUSH1 0x0 PUSH1 0x40 MLOAD DUP1 DUP4 SUB DUP2 DUP6 GAS STATICCALL SWAP2 POP POP RETURNDATASIZE DUP1 PUSH1 0x0 DUP2 EQ PUSH2 0xF55 JUMPI PUSH1 0x40 MLOAD SWAP2 POP PUSH1 0x1F NOT PUSH1 0x3F RETURNDATASIZE ADD AND DUP3 ADD PUSH1 0x40 MSTORE RETURNDATASIZE DUP3 MSTORE RETURNDATASIZE PUSH1 0x0 PUSH1 0x20 DUP5 ADD RETURNDATACOPY PUSH2 0xF5A JUMP JUMPDEST PUSH1 0x60 SWAP2 POP JUMPDEST POP SWAP2 POP SWAP2 POP DUP2 DUP1 ISZERO PUSH2 0xF6C JUMPI POP DUP1 MLOAD ISZERO ISZERO JUMPDEST ISZERO PUSH2 0xFA2 JUMPI PUSH1 0x0 DUP2 DUP1 PUSH1 0x20 ADD SWAP1 MLOAD DUP2 ADD SWAP1 PUSH2 0xF87 SWAP2 SWAP1 PUSH2 0x19E7 JUMP JUMPDEST SWAP1 POP PUSH1 0x1 PUSH1 0x1 PUSH1 0xA0 SHL SUB DUP2 AND ISZERO PUSH2 0xFA0 JUMPI SWAP5 SWAP4 POP POP POP POP JUMP JUMPDEST POP JUMPDEST POP POP PUSH1 0x67 SLOAD PUSH1 0x1 PUSH1 0x1 PUSH1 0xA0 SHL SUB AND SWAP3 SWAP2 POP POP JUMP JUMPDEST PUSH2 0xFBE PUSH2 0x12B0 JUMP JUMPDEST PUSH1 0x1 PUSH1 0x1 PUSH1 0xA0 SHL SUB DUP2 AND PUSH2 0x1023 JUMPI PUSH1 0x40 MLOAD PUSH3 0x461BCD PUSH1 0xE5 SHL DUP2 MSTORE PUSH1 0x20 PUSH1 0x4 DUP3 ADD MSTORE PUSH1 0x26 PUSH1 0x24 DUP3 ADD MSTORE PUSH32 0x4F776E61626C653A206E6577206F776E657220697320746865207A65726F2061 PUSH1 0x44 DUP3 ADD MSTORE PUSH6 0x646472657373 PUSH1 0xD0 SHL PUSH1 0x64 DUP3 ADD MSTORE PUSH1 0x84 ADD PUSH2 0x875 JUMP JUMPDEST PUSH2 0x102C DUP2 PUSH2 0x130A JUMP JUMPDEST POP JUMP JUMPDEST PUSH2 0x1037 PUSH2 0x12B0 JUMP JUMPDEST PUSH1 0x1 PUSH1 0x1 PUSH1 0xA0 SHL SUB DUP2 AND EXTCODESIZE PUSH2 0x1098 JUMPI PUSH1 0x40 MLOAD PUSH3 0x461BCD PUSH1 0xE5 SHL DUP2 MSTORE PUSH1 0x20 PUSH1 0x4 DUP3 ADD MSTORE PUSH1 0x21 PUSH1 0x24 DUP3 ADD MSTORE PUSH32 0x4D61696C626F783A2064656661756C742049534D206E6F7420636F6E74726163 PUSH1 0x44 DUP3 ADD MSTORE PUSH1 0x1D PUSH1 0xFA SHL PUSH1 0x64 DUP3 ADD MSTORE PUSH1 0x84 ADD PUSH2 0x875 JUMP JUMPDEST PUSH1 0x67 DUP1 SLOAD PUSH1 0x1 PUSH1 0x1 PUSH1 0xA0 SHL SUB NOT AND PUSH1 0x1 PUSH1 0x1 PUSH1 0xA0 SHL SUB DUP4 AND SWAP1 DUP2 OR SWAP1 SWAP2 SSTORE PUSH1 0x40 MLOAD PUSH32 0xA76AD0ADBF45318F8633AA0210F711273D50FBB6FEF76ED95BBAE97082C75DAA SWAP1 PUSH1 0x0 SWAP1 LOG2 POP JUMP JUMPDEST PUSH1 0x0 PUSH2 0x8EE DUP8 DUP8 DUP8 DUP8 DUP8 DUP8 PUSH1 0x68 PUSH1 0x0 SWAP1 SLOAD SWAP1 PUSH2 0x100 EXP SWAP1 DIV PUSH1 0x1 PUSH1 0x1 PUSH1 0xA0 SHL SUB AND PUSH2 0xCC4 JUMP JUMPDEST PUSH1 0x0 SLOAD PUSH2 0x100 SWAP1 DIV PUSH1 0xFF AND ISZERO DUP1 DUP1 ISZERO PUSH2 0x1128 JUMPI POP PUSH1 0x0 SLOAD PUSH1 0x1 PUSH1 0xFF SWAP1 SWAP2 AND LT JUMPDEST DUP1 PUSH2 0x1142 JUMPI POP ADDRESS EXTCODESIZE ISZERO DUP1 ISZERO PUSH2 0x1142 JUMPI POP PUSH1 0x0 SLOAD PUSH1 0xFF AND PUSH1 0x1 EQ JUMPDEST PUSH2 0x11A5 JUMPI PUSH1 0x40 MLOAD PUSH3 0x461BCD PUSH1 0xE5 SHL DUP2 MSTORE PUSH1 0x20 PUSH1 0x4 DUP3 ADD MSTORE PUSH1 0x2E PUSH1 0x24 DUP3 ADD MSTORE PUSH32 0x496E697469616C697A61626C653A20636F6E747261637420697320616C726561 PUSH1 0x44 DUP3 ADD MSTORE PUSH14 0x191E481A5B9A5D1A585B1A5E9959 PUSH1 0x92 SHL PUSH1 0x64 DUP3 ADD MSTORE PUSH1 0x84 ADD PUSH2 0x875 JUMP JUMPDEST PUSH1 0x0 DUP1 SLOAD PUSH1 0xFF NOT AND PUSH1 0x1 OR SWAP1 SSTORE DUP1 ISZERO PUSH2 0x11C8 JUMPI PUSH1 0x0 DUP1 SLOAD PUSH2 0xFF00 NOT AND PUSH2 0x100 OR SWAP1 SSTORE JUMPDEST PUSH2 0x11D0 PUSH2 0x1403 JUMP JUMPDEST PUSH2 0x11D9 DUP5 PUSH2 0x102F JUMP JUMPDEST PUSH2 0x11E2 DUP4 PUSH2 0xDF1 JUMP JUMPDEST PUSH2 0x11EB DUP3 PUSH2 0x80E JUMP JUMPDEST PUSH2 0x11F4 DUP6 PUSH2 0xFB6 JUMP JUMPDEST DUP1 ISZERO PUSH2 0x123A JUMPI PUSH1 0x0 DUP1 SLOAD PUSH2 0xFF00 NOT AND SWAP1 SSTORE PUSH1 0x40 MLOAD PUSH1 0x1 DUP2 MSTORE PUSH32 0x7F26B83FF96E1F2B6A682F133852F6798A09C465DA95921460CEFB3847402498 SWAP1 PUSH1 0x20 ADD PUSH1 0x40 MLOAD DUP1 SWAP2 SUB SWAP1 LOG1 JUMPDEST POP POP POP POP POP JUMP JUMPDEST PUSH1 0x0 PUSH2 0xECB DUP6 DUP6 DUP6 DUP6 PUSH2 0x1256 DUP7 DUP1 DUP4 DUP6 PUSH2 0x19A1 JUMP JUMPDEST PUSH1 0x68 SLOAD PUSH1 0x1 PUSH1 0x1 PUSH1 0xA0 SHL SUB AND PUSH2 0x5BA JUMP JUMPDEST PUSH1 0x65 SLOAD PUSH1 0x60 SWAP1 PUSH2 0xECB SWAP1 PUSH1 0x3 SWAP1 PUSH4 0xFFFFFFFF AND PUSH32 0x0 CALLER DUP10 DUP10 DUP10 DUP10 PUSH2 0x1432 JUMP JUMPDEST DUP1 MLOAD PUSH1 0x20 SWAP1 SWAP2 ADD KECCAK256 SWAP1 JUMP JUMPDEST PUSH1 0x33 SLOAD PUSH1 0x1 PUSH1 0x1 PUSH1 0xA0 SHL SUB AND CALLER EQ PUSH2 0x90B JUMPI PUSH1 0x40 MLOAD PUSH3 0x461BCD PUSH1 0xE5 SHL DUP2 MSTORE PUSH1 0x20 PUSH1 0x4 DUP3 ADD DUP2 SWAP1 MSTORE PUSH1 0x24 DUP3 ADD MSTORE PUSH32 0x4F776E61626C653A2063616C6C6572206973206E6F7420746865206F776E6572 PUSH1 0x44 DUP3 ADD MSTORE PUSH1 0x64 ADD PUSH2 0x875 JUMP JUMPDEST PUSH1 0x33 DUP1 SLOAD PUSH1 0x1 PUSH1 0x1 PUSH1 0xA0 SHL SUB DUP4 DUP2 AND PUSH1 0x1 PUSH1 0x1 PUSH1 0xA0 SHL SUB NOT DUP4 AND DUP2 OR SWAP1 SWAP4 SSTORE PUSH1 0x40 MLOAD SWAP2 AND SWAP2 SWAP1 DUP3 SWAP1 PUSH32 0x8BE0079C531659141344CD1FD0A4F28419497F9722A3DAAFE3B4186F6B6457E0 SWAP1 PUSH1 0x0 SWAP1 LOG3 POP POP JUMP JUMPDEST PUSH1 0x0 PUSH2 0x136B PUSH1 0x1 DUP3 DUP5 DUP7 PUSH2 0x19A1 JUMP JUMPDEST PUSH2 0x1374 SWAP2 PUSH2 0x1A04 JUMP JUMPDEST PUSH1 0xF8 SHR SWAP1 POP JUMPDEST SWAP3 SWAP2 POP POP JUMP JUMPDEST PUSH1 0x0 PUSH2 0x1390 PUSH1 0x2D PUSH1 0x29 DUP5 DUP7 PUSH2 0x19A1 JUMP JUMPDEST PUSH2 0x1399 SWAP2 PUSH2 0x1A34 JUMP JUMPDEST PUSH1 0xE0 SHR SWAP4 SWAP3 POP POP POP JUMP JUMPDEST PUSH1 0x0 PUSH2 0x13B7 PUSH2 0x13B2 DUP5 DUP5 PUSH2 0x1470 JUMP JUMPDEST PUSH2 0x1480 JUMP JUMPDEST SWAP4 SWAP3 POP POP POP JUMP JUMPDEST PUSH1 0x0 PUSH2 0x13CE PUSH1 0x29 PUSH1 0x9 DUP5 DUP7 PUSH2 0x19A1 JUMP JUMPDEST PUSH2 0x13B7 SWAP2 PUSH2 0x1A62 JUMP JUMPDEST PUSH1 0x0 PUSH2 0x1390 PUSH1 0x9 PUSH1 0x5 DUP5 DUP7 PUSH2 0x19A1 JUMP JUMPDEST CALLDATASIZE PUSH1 0x0 PUSH2 0x13F7 DUP4 PUSH1 0x4D DUP2 DUP8 PUSH2 0x19A1 JUMP JUMPDEST SWAP2 POP SWAP2 POP JUMPDEST SWAP3 POP SWAP3 SWAP1 POP JUMP JUMPDEST PUSH1 0x0 SLOAD PUSH2 0x100 SWAP1 DIV PUSH1 0xFF AND PUSH2 0x142A JUMPI PUSH1 0x40 MLOAD PUSH3 0x461BCD PUSH1 0xE5 SHL DUP2 MSTORE PUSH1 0x4 ADD PUSH2 0x875 SWAP1 PUSH2 0x1A80 JUMP JUMPDEST PUSH2 0x90B PUSH2 0x14E9 JUMP JUMPDEST PUSH1 0x60 DUP9 DUP9 DUP9 DUP9 DUP9 DUP9 DUP9 DUP9 PUSH1 0x40 MLOAD PUSH1 0x20 ADD PUSH2 0x1453 SWAP9 SWAP8 SWAP7 SWAP6 SWAP5 SWAP4 SWAP3 SWAP2 SWAP1 PUSH2 0x1ACB JUMP JUMPDEST PUSH1 0x40 MLOAD PUSH1 0x20 DUP2 DUP4 SUB SUB DUP2 MSTORE SWAP1 PUSH1 0x40 MSTORE SWAP1 POP SWAP9 SWAP8 POP POP POP POP POP POP POP POP JUMP JUMPDEST PUSH1 0x0 PUSH2 0x13CE PUSH1 0x4D PUSH1 0x2D DUP5 DUP7 PUSH2 0x19A1 JUMP JUMPDEST PUSH1 0x0 PUSH1 0x1 PUSH1 0x1 PUSH1 0xA0 SHL SUB DUP3 GT ISZERO PUSH2 0x14E5 JUMPI PUSH1 0x40 MLOAD PUSH3 0x461BCD PUSH1 0xE5 SHL DUP2 MSTORE PUSH1 0x20 PUSH1 0x4 DUP3 ADD MSTORE PUSH1 0x24 DUP1 DUP3 ADD MSTORE PUSH32 0x5479706543617374733A2062797465733332546F41646472657373206F766572 PUSH1 0x44 DUP3 ADD MSTORE PUSH4 0x666C6F77 PUSH1 0xE0 SHL PUSH1 0x64 DUP3 ADD MSTORE PUSH1 0x84 ADD PUSH2 0x875 JUMP JUMPDEST POP SWAP1 JUMP JUMPDEST PUSH1 0x0 SLOAD PUSH2 0x100 SWAP1 DIV PUSH1 0xFF AND PUSH2 0x1510 JUMPI PUSH1 0x40 MLOAD PUSH3 0x461BCD PUSH1 0xE5 SHL DUP2 MSTORE PUSH1 0x4 ADD PUSH2 0x875 SWAP1 PUSH2 0x1A80 JUMP JUMPDEST PUSH2 0x90B CALLER PUSH2 0x130A JUMP JUMPDEST PUSH1 0x0 PUSH1 0x20 DUP3 DUP5 SUB SLT ISZERO PUSH2 0x152B JUMPI PUSH1 0x0 DUP1 REVERT JUMPDEST POP CALLDATALOAD SWAP2 SWAP1 POP JUMP JUMPDEST DUP1 CALLDATALOAD PUSH4 0xFFFFFFFF DUP2 AND DUP2 EQ PUSH2 0x1546 JUMPI PUSH1 0x0 DUP1 REVERT JUMPDEST SWAP2 SWAP1 POP JUMP JUMPDEST PUSH1 0x0 DUP1 DUP4 PUSH1 0x1F DUP5 ADD SLT PUSH2 0x155D JUMPI PUSH1 0x0 DUP1 REVERT JUMPDEST POP DUP2 CALLDATALOAD PUSH8 0xFFFFFFFFFFFFFFFF DUP2 GT ISZERO PUSH2 0x1575 JUMPI PUSH1 0x0 DUP1 REVERT JUMPDEST PUSH1 0x20 DUP4 ADD SWAP2 POP DUP4 PUSH1 0x20 DUP3 DUP6 ADD ADD GT ISZERO PUSH2 0x13FC JUMPI PUSH1 0x0 DUP1 REVERT JUMPDEST PUSH1 0x1 PUSH1 0x1 PUSH1 0xA0 SHL SUB DUP2 AND DUP2 EQ PUSH2 0x102C JUMPI PUSH1 0x0 DUP1 REVERT JUMPDEST PUSH1 0x0 DUP1 PUSH1 0x0 DUP1 PUSH1 0x0 DUP1 PUSH1 0x0 PUSH1 0xA0 DUP9 DUP11 SUB SLT ISZERO PUSH2 0x15BD JUMPI PUSH1 0x0 DUP1 REVERT JUMPDEST PUSH2 0x15C6 DUP9 PUSH2 0x1532 JUMP JUMPDEST SWAP7 POP PUSH1 0x20 DUP9 ADD CALLDATALOAD SWAP6 POP PUSH1 0x40 DUP9 ADD CALLDATALOAD PUSH8 0xFFFFFFFFFFFFFFFF DUP1 DUP3 GT ISZERO PUSH2 0x15EA JUMPI PUSH1 0x0 DUP1 REVERT JUMPDEST PUSH2 0x15F6 DUP12 DUP4 DUP13 ADD PUSH2 0x154B JUMP JUMPDEST SWAP1 SWAP8 POP SWAP6 POP PUSH1 0x60 DUP11 ADD CALLDATALOAD SWAP2 POP DUP1 DUP3 GT ISZERO PUSH2 0x160F JUMPI PUSH1 0x0 DUP1 REVERT JUMPDEST POP PUSH2 0x161C DUP11 DUP3 DUP12 ADD PUSH2 0x154B JUMP JUMPDEST SWAP1 SWAP5 POP SWAP3 POP POP PUSH1 0x80 DUP9 ADD CALLDATALOAD PUSH2 0x1630 DUP2 PUSH2 0x158D JUMP JUMPDEST DUP1 SWAP2 POP POP SWAP3 SWAP6 SWAP9 SWAP2 SWAP5 SWAP8 POP SWAP3 SWAP6 POP JUMP JUMPDEST PUSH1 0x0 PUSH1 0x20 DUP3 DUP5 SUB SLT ISZERO PUSH2 0x1652 JUMPI PUSH1 0x0 DUP1 REVERT JUMPDEST DUP2 CALLDATALOAD PUSH2 0x13B7 DUP2 PUSH2 0x158D JUMP JUMPDEST PUSH1 0x0 DUP1 PUSH1 0x0 DUP1 PUSH1 0x0 DUP1 PUSH1 0x80 DUP8 DUP10 SUB SLT ISZERO PUSH2 0x1676 JUMPI PUSH1 0x0 DUP1 REVERT JUMPDEST PUSH2 0x167F DUP8 PUSH2 0x1532 JUMP JUMPDEST SWAP6 POP PUSH1 0x20 DUP8 ADD CALLDATALOAD SWAP5 POP PUSH1 0x40 DUP8 ADD CALLDATALOAD PUSH8 0xFFFFFFFFFFFFFFFF DUP1 DUP3 GT ISZERO PUSH2 0x16A3 JUMPI PUSH1 0x0 DUP1 REVERT JUMPDEST PUSH2 0x16AF DUP11 DUP4 DUP12 ADD PUSH2 0x154B JUMP JUMPDEST SWAP1 SWAP7 POP SWAP5 POP PUSH1 0x60 DUP10 ADD CALLDATALOAD SWAP2 POP DUP1 DUP3 GT ISZERO PUSH2 0x16C8 JUMPI PUSH1 0x0 DUP1 REVERT JUMPDEST POP PUSH2 0x16D5 DUP10 DUP3 DUP11 ADD PUSH2 0x154B JUMP JUMPDEST SWAP8 SWAP11 SWAP7 SWAP10 POP SWAP5 SWAP8 POP SWAP3 SWAP6 SWAP4 SWAP5 SWAP3 POP POP POP JUMP JUMPDEST PUSH1 0x0 DUP1 PUSH1 0x0 DUP1 PUSH1 0x40 DUP6 DUP8 SUB SLT ISZERO PUSH2 0x16FD JUMPI PUSH1 0x0 DUP1 REVERT JUMPDEST DUP5 CALLDATALOAD PUSH8 0xFFFFFFFFFFFFFFFF DUP1 DUP3 GT ISZERO PUSH2 0x1715 JUMPI PUSH1 0x0 DUP1 REVERT JUMPDEST PUSH2 0x1721 DUP9 DUP4 DUP10 ADD PUSH2 0x154B JUMP JUMPDEST SWAP1 SWAP7 POP SWAP5 POP PUSH1 0x20 DUP8 ADD CALLDATALOAD SWAP2 POP DUP1 DUP3 GT ISZERO PUSH2 0x173A JUMPI PUSH1 0x0 DUP1 REVERT JUMPDEST POP PUSH2 0x1747 DUP8 DUP3 DUP9 ADD PUSH2 0x154B JUMP JUMPDEST SWAP6 SWAP9 SWAP5 SWAP8 POP SWAP6 POP POP POP POP JUMP JUMPDEST PUSH1 0x0 JUMPDEST DUP4 DUP2 LT ISZERO PUSH2 0x176E JUMPI DUP2 DUP2 ADD MLOAD DUP4 DUP3 ADD MSTORE PUSH1 0x20 ADD PUSH2 0x1756 JUMP JUMPDEST POP POP PUSH1 0x0 SWAP2 ADD MSTORE JUMP JUMPDEST PUSH1 0x0 DUP2 MLOAD DUP1 DUP5 MSTORE PUSH2 0x178F DUP2 PUSH1 0x20 DUP7 ADD PUSH1 0x20 DUP7 ADD PUSH2 0x1753 JUMP JUMPDEST PUSH1 0x1F ADD PUSH1 0x1F NOT AND SWAP3 SWAP1 SWAP3 ADD PUSH1 0x20 ADD SWAP3 SWAP2 POP POP JUMP JUMPDEST PUSH1 0x20 DUP2 MSTORE PUSH1 0x0 PUSH2 0x13B7 PUSH1 0x20 DUP4 ADD DUP5 PUSH2 0x1777 JUMP JUMPDEST PUSH1 0x0 DUP1 PUSH1 0x0 DUP1 PUSH1 0x60 DUP6 DUP8 SUB SLT ISZERO PUSH2 0x17CC JUMPI PUSH1 0x0 DUP1 REVERT JUMPDEST PUSH2 0x17D5 DUP6 PUSH2 0x1532 JUMP JUMPDEST SWAP4 POP PUSH1 0x20 DUP6 ADD CALLDATALOAD SWAP3 POP PUSH1 0x40 DUP6 ADD CALLDATALOAD PUSH8 0xFFFFFFFFFFFFFFFF DUP2 GT ISZERO PUSH2 0x17F8 JUMPI PUSH1 0x0 DUP1 REVERT JUMPDEST PUSH2 0x1747 DUP8 DUP3 DUP9 ADD PUSH2 0x154B JUMP JUMPDEST PUSH1 0x0 DUP1 PUSH1 0x0 DUP1 PUSH1 0x80 DUP6 DUP8 SUB SLT ISZERO PUSH2 0x181A JUMPI PUSH1 0x0 DUP1 REVERT JUMPDEST DUP5 CALLDATALOAD PUSH2 0x1825 DUP2 PUSH2 0x158D JUMP JUMPDEST SWAP4 POP PUSH1 0x20 DUP6 ADD CALLDATALOAD PUSH2 0x1835 DUP2 PUSH2 0x158D JUMP JUMPDEST SWAP3 POP PUSH1 0x40 DUP6 ADD CALLDATALOAD PUSH2 0x1845 DUP2 PUSH2 0x158D JUMP JUMPDEST SWAP2 POP PUSH1 0x60 DUP6 ADD CALLDATALOAD PUSH2 0x1855 DUP2 PUSH2 0x158D JUMP JUMPDEST SWAP4 SWAP7 SWAP3 SWAP6 POP SWAP1 SWAP4 POP POP JUMP JUMPDEST PUSH4 0x4E487B71 PUSH1 0xE0 SHL PUSH1 0x0 MSTORE PUSH1 0x11 PUSH1 0x4 MSTORE PUSH1 0x24 PUSH1 0x0 REVERT JUMPDEST PUSH4 0xFFFFFFFF DUP2 DUP2 AND DUP4 DUP3 AND ADD SWAP1 DUP1 DUP3 GT ISZERO PUSH2 0x1893 JUMPI PUSH2 0x1893 PUSH2 0x1860 JUMP JUMPDEST POP SWAP3 SWAP2 POP POP JUMP JUMPDEST DUP2 DUP4 MSTORE DUP2 DUP2 PUSH1 0x20 DUP6 ADD CALLDATACOPY POP PUSH1 0x0 DUP3 DUP3 ADD PUSH1 0x20 SWAP1 DUP2 ADD SWAP2 SWAP1 SWAP2 MSTORE PUSH1 0x1F SWAP1 SWAP2 ADD PUSH1 0x1F NOT AND SWAP1 SWAP2 ADD ADD SWAP1 JUMP JUMPDEST PUSH1 0x40 DUP2 MSTORE PUSH1 0x0 PUSH2 0x18D7 PUSH1 0x40 DUP4 ADD DUP6 DUP8 PUSH2 0x189A JUMP JUMPDEST DUP3 DUP2 SUB PUSH1 0x20 DUP5 ADD MSTORE PUSH2 0x18E9 DUP2 DUP6 PUSH2 0x1777 JUMP JUMPDEST SWAP7 SWAP6 POP POP POP POP POP POP JUMP JUMPDEST PUSH1 0x0 PUSH1 0x20 DUP3 DUP5 SUB SLT ISZERO PUSH2 0x1905 JUMPI PUSH1 0x0 DUP1 REVERT JUMPDEST POP MLOAD SWAP2 SWAP1 POP JUMP JUMPDEST DUP2 DUP2 SUB DUP2 DUP2 GT ISZERO PUSH2 0x137A JUMPI PUSH2 0x137A PUSH2 0x1860 JUMP JUMPDEST PUSH1 0x40 DUP2 MSTORE PUSH1 0x0 PUSH2 0x1933 PUSH1 0x40 DUP4 ADD DUP7 DUP9 PUSH2 0x189A JUMP JUMPDEST DUP3 DUP2 SUB PUSH1 0x20 DUP5 ADD MSTORE PUSH2 0x8EE DUP2 DUP6 DUP8 PUSH2 0x189A JUMP JUMPDEST PUSH1 0x0 PUSH1 0x20 DUP3 DUP5 SUB SLT ISZERO PUSH2 0x1958 JUMPI PUSH1 0x0 DUP1 REVERT JUMPDEST DUP2 MLOAD DUP1 ISZERO ISZERO DUP2 EQ PUSH2 0x13B7 JUMPI PUSH1 0x0 DUP1 REVERT JUMPDEST PUSH4 0xFFFFFFFF DUP6 AND DUP2 MSTORE DUP4 PUSH1 0x20 DUP3 ADD MSTORE PUSH1 0x60 PUSH1 0x40 DUP3 ADD MSTORE PUSH1 0x0 PUSH2 0x18E9 PUSH1 0x60 DUP4 ADD DUP5 DUP7 PUSH2 0x189A JUMP JUMPDEST DUP1 DUP3 ADD DUP1 DUP3 GT ISZERO PUSH2 0x137A JUMPI PUSH2 0x137A PUSH2 0x1860 JUMP JUMPDEST PUSH1 0x0 DUP1 DUP6 DUP6 GT ISZERO PUSH2 0x19B1 JUMPI PUSH1 0x0 DUP1 REVERT JUMPDEST DUP4 DUP7 GT ISZERO PUSH2 0x19BE JUMPI PUSH1 0x0 DUP1 REVERT JUMPDEST POP POP DUP3 ADD SWAP4 SWAP2 SWAP1 SWAP3 SUB SWAP2 POP JUMP JUMPDEST PUSH1 0x0 DUP3 MLOAD PUSH2 0x19DD DUP2 DUP5 PUSH1 0x20 DUP8 ADD PUSH2 0x1753 JUMP JUMPDEST SWAP2 SWAP1 SWAP2 ADD SWAP3 SWAP2 POP POP JUMP JUMPDEST PUSH1 0x0 PUSH1 0x20 DUP3 DUP5 SUB SLT ISZERO PUSH2 0x19F9 JUMPI PUSH1 0x0 DUP1 REVERT JUMPDEST DUP2 MLOAD PUSH2 0x13B7 DUP2 PUSH2 0x158D JUMP JUMPDEST PUSH1 0x1 PUSH1 0x1 PUSH1 0xF8 SHL SUB NOT DUP2 CALLDATALOAD DUP2 DUP2 AND SWAP2 PUSH1 0x1 DUP6 LT ISZERO PUSH2 0x1A2C JUMPI DUP1 DUP2 DUP7 PUSH1 0x1 SUB PUSH1 0x3 SHL SHL DUP4 AND AND SWAP3 POP JUMPDEST POP POP SWAP3 SWAP2 POP POP JUMP JUMPDEST PUSH1 0x1 PUSH1 0x1 PUSH1 0xE0 SHL SUB NOT DUP2 CALLDATALOAD DUP2 DUP2 AND SWAP2 PUSH1 0x4 DUP6 LT ISZERO PUSH2 0x1A2C JUMPI PUSH1 0x4 SWAP5 SWAP1 SWAP5 SUB PUSH1 0x3 SHL DUP5 SWAP1 SHL AND SWAP1 SWAP3 AND SWAP3 SWAP2 POP POP JUMP JUMPDEST DUP1 CALLDATALOAD PUSH1 0x20 DUP4 LT ISZERO PUSH2 0x137A JUMPI PUSH1 0x0 NOT PUSH1 0x20 DUP5 SWAP1 SUB PUSH1 0x3 SHL SHL AND SWAP3 SWAP2 POP POP JUMP JUMPDEST PUSH1 0x20 DUP1 DUP3 MSTORE PUSH1 0x2B SWAP1 DUP3 ADD MSTORE PUSH32 0x496E697469616C697A61626C653A20636F6E7472616374206973206E6F742069 PUSH1 0x40 DUP3 ADD MSTORE PUSH11 0x6E697469616C697A696E67 PUSH1 0xA8 SHL PUSH1 0x60 DUP3 ADD MSTORE PUSH1 0x80 ADD SWAP1 JUMP JUMPDEST PUSH1 0xFF PUSH1 0xF8 SHL DUP10 PUSH1 0xF8 SHL AND DUP2 MSTORE PUSH1 0x0 PUSH4 0xFFFFFFFF PUSH1 0xE0 SHL DUP1 DUP11 PUSH1 0xE0 SHL AND PUSH1 0x1 DUP5 ADD MSTORE DUP1 DUP10 PUSH1 0xE0 SHL AND PUSH1 0x5 DUP5 ADD MSTORE DUP8 PUSH1 0x9 DUP5 ADD MSTORE DUP1 DUP8 PUSH1 0xE0 SHL AND PUSH1 0x29 DUP5 ADD MSTORE POP DUP5 PUSH1 0x2D DUP4 ADD MSTORE DUP3 DUP5 PUSH1 0x4D DUP5 ADD CALLDATACOPY POP PUSH1 0x0 SWAP2 ADD PUSH1 0x4D ADD SWAP1 DUP2 MSTORE SWAP8 SWAP7 POP POP POP POP POP POP POP JUMP INVALID LOG2 PUSH5 0x6970667358 0x22 SLT KECCAK256 MLOAD CALLDATACOPY 0xC7 0xC4 SWAP13 KECCAK256 SMOD LOG3 0x21 0x2A 0xB2 0xD8 NOT INVALID LOG2 PUSH11 0xFB8C81639F4400061B3D06 PUSH32 0x4DBF27B764736F6C634300081800330000000000000000000000000000000000 "},"methodIdentifiers":{"PACKAGE_VERSION()":"93c44847","VERSION()":"ffa1ad74","defaultHook()":"3d1250b7","defaultIsm()":"6e5f516e","delivered(bytes32)":"e495f1d4","deployedBlock()":"82ea7bfe","dispatch(uint32,bytes32,bytes)":"fa31de01","dispatch(uint32,bytes32,bytes,bytes)":"48aee8d4","dispatch(uint32,bytes32,bytes,bytes,address)":"10b83dc0","initialize(address,address,address,address)":"f8c8765e","latestDispatchedId()":"134fbb4f","localDomain()":"8d3638f4","nonce()":"affed0e0","owner()":"8da5cb5b","process(bytes,bytes)":"7c39d130","processedAt(bytes32)":"07a2fda1","processor(bytes32)":"5d1fe5a9","quoteDispatch(uint32,bytes32,bytes)":"9c42bd18","quoteDispatch(uint32,bytes32,bytes,bytes)":"f7ccd321","quoteDispatch(uint32,bytes32,bytes,bytes,address)":"81d2ea95","recipientIsm(address)":"e70f48ac","renounceOwnership()":"715018a6","requiredHook()":"d6d08a09","setDefaultHook(address)":"99b04809","setDefaultIsm(address)":"f794687a","setRequiredHook(address)":"1426b7f4","transferOwnership(address)":"f2fde38b"}}}}}