{"contracts/PrivateTransferIngress.sol":{"PrivateTransferIngress":{"abi":[{"inputs":[{"internalType":"address","name":"mailbox","type":"address"}],"stateMutability":"nonpayable","type":"constructor"},{"anonymous":false,"inputs":[{"indexed":true,"internalType":"bytes32","name":"depositId","type":"bytes32"},{"indexed":true,"internalType":"address","name":"depositor","type":"address"},{"indexed":false,"internalType":"address","name":"token","type":"address"},{"indexed":false,"internalType":"uint256","name":"amount","type":"uint256"},{"indexed":false,"internalType":"bool","name":"isNative","type":"bool"}],"name":"DepositCreated","type":"event"},{"anonymous":false,"inputs":[{"indexed":true,"internalType":"bytes32","name":"encryptedDataHash","type":"bytes32"}],"name":"EncryptedInstructionsProcessed","type":"event"},{"anonymous":false,"inputs":[{"indexed":true,"internalType":"bytes32","name":"encryptedDataHash","type":"bytes32"}],"name":"EncryptedInstructionsReceived","type":"event"},{"anonymous":false,"inputs":[{"indexed":false,"internalType":"address","name":"_hook","type":"address"}],"name":"HookSet","type":"event"},{"anonymous":false,"inputs":[{"indexed":false,"internalType":"uint8","name":"version","type":"uint8"}],"name":"Initialized","type":"event"},{"anonymous":false,"inputs":[{"indexed":false,"internalType":"address","name":"_ism","type":"address"}],"name":"IsmSet","type":"event"},{"anonymous":false,"inputs":[{"indexed":true,"internalType":"address","name":"previousOwner","type":"address"},{"indexed":true,"internalType":"address","name":"newOwner","type":"address"}],"name":"OwnershipTransferred","type":"event"},{"inputs":[],"name":"PACKAGE_VERSION","outputs":[{"internalType":"string","name":"","type":"string"}],"stateMutability":"view","type":"function"},{"inputs":[{"internalType":"bytes32","name":"","type":"bytes32"}],"name":"ciphertextHashToTransferId","outputs":[{"internalType":"bytes32","name":"","type":"bytes32"}],"stateMutability":"view","type":"function"},{"inputs":[{"internalType":"address","name":"token","type":"address"},{"internalType":"uint256","name":"amount","type":"uint256"}],"name":"depositErc20","outputs":[{"internalType":"bytes32","name":"depositId","type":"bytes32"}],"stateMutability":"nonpayable","type":"function"},{"inputs":[],"name":"depositNative","outputs":[{"internalType":"bytes32","name":"depositId","type":"bytes32"}],"stateMutability":"payable","type":"function"},{"inputs":[{"internalType":"bytes32","name":"","type":"bytes32"}],"name":"deposits","outputs":[{"internalType":"address","name":"depositor","type":"address"},{"internalType":"address","name":"token","type":"address"},{"internalType":"uint256","name":"amount","type":"uint256"},{"internalType":"bool","name":"isNative","type":"bool"},{"internalType":"bool","name":"released","type":"bool"}],"stateMutability":"view","type":"function"},{"inputs":[],"name":"domains","outputs":[{"internalType":"uint32[]","name":"","type":"uint32[]"}],"stateMutability":"view","type":"function"},{"inputs":[{"internalType":"uint32","name":"_domain","type":"uint32"},{"internalType":"bytes32","name":"_router","type":"bytes32"}],"name":"enrollRemoteRouter","outputs":[],"stateMutability":"nonpayable","type":"function"},{"inputs":[{"internalType":"uint32[]","name":"_domains","type":"uint32[]"},{"internalType":"bytes32[]","name":"_addresses","type":"bytes32[]"}],"name":"enrollRemoteRouters","outputs":[],"stateMutability":"nonpayable","type":"function"},{"inputs":[{"internalType":"bytes32","name":"encryptedDataHash","type":"bytes32"}],"name":"getTransferIdByCiphertextHash","outputs":[{"internalType":"bytes32","name":"","type":"bytes32"}],"stateMutability":"view","type":"function"},{"inputs":[{"internalType":"uint32","name":"_origin","type":"uint32"},{"internalType":"bytes32","name":"_sender","type":"bytes32"},{"internalType":"bytes","name":"_message","type":"bytes"}],"name":"handle","outputs":[],"stateMutability":"payable","type":"function"},{"inputs":[],"name":"hook","outputs":[{"internalType":"contract IPostDispatchHook","name":"","type":"address"}],"stateMutability":"view","type":"function"},{"inputs":[{"internalType":"uint32","name":"destinationDomain","type":"uint32"},{"internalType":"address","name":"token","type":"address"},{"internalType":"uint256","name":"amount","type":"uint256"},{"internalType":"bytes","name":"ciphertext","type":"bytes"}],"name":"initiateErc20Transfer","outputs":[{"internalType":"bytes32","name":"transferId","type":"bytes32"}],"stateMutability":"payable","type":"function"},{"inputs":[{"internalType":"uint32","name":"destinationDomain","type":"uint32"},{"internalType":"bytes","name":"ciphertext","type":"bytes"},{"internalType":"uint256","name":"depositAmount","type":"uint256"}],"name":"initiateNativeTransfer","outputs":[{"internalType":"bytes32","name":"transferId","type":"bytes32"}],"stateMutability":"payable","type":"function"},{"inputs":[{"internalType":"uint32","name":"destinationDomain","type":"uint32"},{"internalType":"bytes32","name":"depositId","type":"bytes32"},{"internalType":"bytes","name":"ciphertext","type":"bytes"}],"name":"initiateTransfer","outputs":[{"internalType":"bytes32","name":"transferId","type":"bytes32"}],"stateMutability":"nonpayable","type":"function"},{"inputs":[],"name":"interchainSecurityModule","outputs":[{"internalType":"contract IInterchainSecurityModule","name":"","type":"address"}],"stateMutability":"view","type":"function"},{"inputs":[],"name":"localDomain","outputs":[{"internalType":"uint32","name":"","type":"uint32"}],"stateMutability":"view","type":"function"},{"inputs":[],"name":"mailbox","outputs":[{"internalType":"contract IMailbox","name":"","type":"address"}],"stateMutability":"view","type":"function"},{"inputs":[],"name":"owner","outputs":[{"internalType":"address","name":"","type":"address"}],"stateMutability":"view","type":"function"},{"inputs":[],"name":"renounceOwnership","outputs":[],"stateMutability":"nonpayable","type":"function"},{"inputs":[{"internalType":"uint32","name":"_domain","type":"uint32"}],"name":"routers","outputs":[{"internalType":"bytes32","name":"","type":"bytes32"}],"stateMutability":"view","type":"function"},{"inputs":[{"internalType":"address","name":"_hook","type":"address"}],"name":"setHook","outputs":[],"stateMutability":"nonpayable","type":"function"},{"inputs":[{"internalType":"address","name":"_module","type":"address"}],"name":"setInterchainSecurityModule","outputs":[],"stateMutability":"nonpayable","type":"function"},{"inputs":[{"internalType":"bytes32","name":"","type":"bytes32"}],"name":"transferIdToCiphertextHash","outputs":[{"internalType":"bytes32","name":"","type":"bytes32"}],"stateMutability":"view","type":"function"},{"inputs":[{"internalType":"address","name":"newOwner","type":"address"}],"name":"transferOwnership","outputs":[],"stateMutability":"nonpayable","type":"function"},{"inputs":[{"internalType":"bytes32","name":"","type":"bytes32"}],"name":"transferToDepositId","outputs":[{"internalType":"bytes32","name":"","type":"bytes32"}],"stateMutability":"view","type":"function"},{"inputs":[{"internalType":"bytes32","name":"","type":"bytes32"}],"name":"transfers","outputs":[{"internalType":"address","name":"sender","type":"address"},{"internalType":"uint32","name":"destinationDomain","type":"uint32"},{"internalType":"uint256","name":"dispatchedAt","type":"uint256"},{"internalType":"bool","name":"acknowledged","type":"bool"}],"stateMutability":"view","type":"function"},{"inputs":[{"internalType":"uint32","name":"_domain","type":"uint32"}],"name":"unenrollRemoteRouter","outputs":[],"stateMutability":"nonpayable","type":"function"},{"inputs":[{"internalType":"uint32[]","name":"_domains","type":"uint32[]"}],"name":"unenrollRemoteRouters","outputs":[],"stateMutability":"nonpayable","type":"function"}],"evm":{"bytecode":{"linkReferences":{},"object":"60c06040523480156200001157600080fd5b5060405162002cac38038062002cac8339810160408190526200003491620002ce565b8080806001600160a01b0381163b620000945760405162461bcd60e51b815260206004820152601e60248201527f4d61696c626f78436c69656e743a20696e76616c6964206d61696c626f78000060448201526064015b60405180910390fd5b6001600160a01b03821660808190526040805163234d8e3d60e21b81529051638d3638f4916004808201926020929091908290030181865afa158015620000df573d6000803e3d6000fd5b505050506040513d601f19601f8201168201806040525081019062000105919062000300565b63ffffffff1660a052620001193362000140565b5050506200012d336200014060201b60201c565b62000139600062000192565b5062000328565b603380546001600160a01b038381166001600160a01b0319831681179093556040519116919082907f8be0079c531659141344cd1fd0a4f28419497f9722a3daafe3b4186f6b6457e090600090a35050565b806001600160a01b0381163b151580620001b357506001600160a01b038116155b620002115760405162461bcd60e51b815260206004820152602760248201527f4d61696c626f78436c69656e743a20696e76616c696420636f6e74726163742060448201526673657474696e6760c81b60648201526084016200008b565b6200021b62000270565b606580546001600160a01b0319166001600160a01b0384169081179091556040519081527f4eab7b127c764308788622363ad3e9532de3dfba7845bd4f84c125a22544255a9060200160405180910390a15050565b6033546001600160a01b03163314620002cc5760405162461bcd60e51b815260206004820181905260248201527f4f776e61626c653a2063616c6c6572206973206e6f7420746865206f776e657260448201526064016200008b565b565b600060208284031215620002e157600080fd5b81516001600160a01b0381168114620002f957600080fd5b9392505050565b6000602082840312156200031357600080fd5b815163ffffffff81168114620002f957600080fd5b60805160a0516129506200035c60003960006104320152600081816105cc015281816109bc0152611cb401526129506000f3fe6080604052600436106101b75760003560e01c806393c44847116100ec578063d5438eae1161008a578063e9198bf911610064578063e9198bf914610614578063efae508a14610634578063f2fde38b14610654578063fca937de1461067457600080fd5b8063d5438eae146105ba578063db6b5246146105ee578063de523cf3146105f657600080fd5b80639ff22002116100c65780639ff2200214610513578063b49c53a714610540578063c2ea263114610560578063cd8ed5a91461058d57600080fd5b806393c44847146104875780639ef4f883146104c65780639f78fbec146104f357600080fd5b806356d5d4751161015957806371a15b381161013357806371a15b38146103c85780637f5a7c7b146103e85780638d3638f4146104205780638da5cb5b1461046957600080fd5b806356d5d475146103805780636548b40d14610393578063715018a6146103b357600080fd5b80633c64f04b116101955780633c64f04b146102245780633d4dff7b146102ac5780633dfd38731461033e578063440df4f41461035e57600080fd5b80630e72cc06146101bc57806323764251146101de5780632ead72f614610204575b600080fd5b3480156101c857600080fd5b506101dc6101d7366004612240565b610687565b005b6101f16101ec3660046122bf565b61072a565b6040519081526020015b60405180910390f35b34801561021057600080fd5b506101f161021f366004612330565b6108ef565b34801561023057600080fd5b5061027b61023f36600461234b565b60cb602052600090815260409020805460018201546002909201546001600160a01b03821692600160a01b90920463ffffffff16919060ff1684565b604080516001600160a01b03909516855263ffffffff909316602085015291830152151560608201526080016101fb565b3480156102b857600080fd5b506103076102c736600461234b565b60cc6020526000908152604090208054600182015460028301546003909301546001600160a01b0392831693919092169160ff8082169161010090041685565b604080516001600160a01b03968716815295909416602086015292840191909152151560608301521515608082015260a0016101fb565b34801561034a57600080fd5b506101dc610359366004612240565b61090e565b34801561036a57600080fd5b506103736109a0565b6040516101fb9190612364565b6101dc61038e3660046123ae565b6109b1565b34801561039f57600080fd5b506101f16103ae366004612408565b610ab0565b3480156103bf57600080fd5b506101dc610c3f565b3480156103d457600080fd5b506101dc6103e3366004612479565b610c53565b3480156103f457600080fd5b50606554610408906001600160a01b031681565b6040516001600160a01b0390911681526020016101fb565b34801561042c57600080fd5b506104547f000000000000000000000000000000000000000000000000000000000000000081565b60405163ffffffff90911681526020016101fb565b34801561047557600080fd5b506033546001600160a01b0316610408565b34801561049357600080fd5b506104b96040518060400160405280600681526020016531302e312e3360d01b81525081565b6040516101fb919061250b565b3480156104d257600080fd5b506101f16104e136600461234b565b60cf6020526000908152604090205481565b3480156104ff57600080fd5b506101f161050e3660046123ae565b610cae565b34801561051f57600080fd5b506101f161052e36600461234b565b60cd6020526000908152604090205481565b34801561054c57600080fd5b506101dc61055b36600461251e565b610d93565b34801561056c57600080fd5b506101f161057b36600461234b565b60ce6020526000908152604090205481565b34801561059957600080fd5b506101f16105a836600461234b565b600090815260ce602052604090205490565b3480156105c657600080fd5b506104087f000000000000000000000000000000000000000000000000000000000000000081565b6101f1610da9565b34801561060257600080fd5b506066546001600160a01b0316610408565b34801561062057600080fd5b506101dc61062f36600461253a565b610ed6565b34801561064057600080fd5b506101dc61064f366004612330565b610f85565b34801561066057600080fd5b506101dc61066f366004612240565b610f99565b6101f161068236600461259a565b61100f565b806001600160a01b0381163b1515806106a757506001600160a01b038116155b6106cc5760405162461bcd60e51b81526004016106c3906125f4565b60405180910390fd5b6106d461118d565b606680546001600160a01b0319166001600160a01b0384169081179091556040519081527fc47cbcc588c67679e52261c45cc315e56562f8d0ccaba16facb9093ff9498799906020015b60405180910390a15050565b60006001600160a01b0385166107735760405162461bcd60e51b815260206004820152600e60248201526d1d1bdad95b881c995c5d5a5c995960921b60448201526064016106c3565b600084116107b55760405162461bcd60e51b815260206004820152600f60248201526e185b5bdd5b9d081c995c5d5a5c9959608a1b60448201526064016106c3565b6107ca6001600160a01b0386163330876111e7565b600033464360ca60008154809291906107e290612651565b919050556040516020016107f9949392919061266a565b60408051601f19818403018152828252805160209182012060a084018352338085526001600160a01b038b81168685019081528686018c815260006060890181815260808a0182815287835260cc90985288822099518a549086166001600160a01b0319918216178b55935160018b018054919096169416939093179093555160028801555160039096018054945115156101000261ff00199715159790971661ffff19909516949094179590951790925591519193509183916000805160206128fb833981519152916108d0918b918b916126a9565b60405180910390a36108e487828686611252565b979650505050505050565b600080610906609763ffffffff8086169061147016565b949350505050565b806001600160a01b0381163b15158061092e57506001600160a01b038116155b61094a5760405162461bcd60e51b81526004016106c3906125f4565b61095261118d565b606580546001600160a01b0319166001600160a01b0384169081179091556040519081527f4eab7b127c764308788622363ad3e9532de3dfba7845bd4f84c125a22544255a9060200161071e565b60606109ac6097611489565b905090565b336001600160a01b037f00000000000000000000000000000000000000000000000000000000000000001614610a335760405162461bcd60e51b815260206004820152602160248201527f4d61696c626f78436c69656e743a2073656e646572206e6f74206d61696c626f6044820152600f60fb1b60648201526084016106c3565b6000610a3e8561153a565b9050838114610a9d5760405162461bcd60e51b815260206004820152602560248201527f456e726f6c6c656420726f7574657220646f6573206e6f74206d61746368207360448201526432b73232b960d91b60648201526084016106c3565b610aa985858585611585565b5050505050565b60006001600160a01b038316610af95760405162461bcd60e51b815260206004820152600e60248201526d1d1bdad95b881c995c5d5a5c995960921b60448201526064016106c3565b60008211610b195760405162461bcd60e51b81526004016106c3906126cc565b610b2e6001600160a01b0384163330856111e7565b60ca80543391469143916000610b4383612651565b91905055604051602001610b5a949392919061266a565b60408051601f19818403018152828252805160209182012060a084018352338085526001600160a01b0388811686850190815286860189815260006060890181815260808a0182815287835260cc90985288822099518a549086166001600160a01b0319918216178b55935160018b018054919096169416939093179093555160028801555160039096018054945115156101000261ff00199715159790971661ffff19909516949094179590951790925591519193509183916000805160206128fb83398151915291610c3191889188916126a9565b60405180910390a392915050565b610c4761118d565b610c516000611993565b565b610c5b61118d565b8060005b81811015610ca857610c96848483818110610c7c57610c7c6126f6565b9050602002016020810190610c919190612330565b6119e5565b610ca160018261270c565b9050610c5f565b50505050565b600083815260cc6020526040812080546001600160a01b03163314610d085760405162461bcd60e51b815260206004820152601060248201526f1b9bdd081e5bdd5c8819195c1bdcda5d60821b60448201526064016106c3565b6003810154610100900460ff1615610d595760405162461bcd60e51b815260206004820152601460248201527319195c1bdcda5d08185b1c9958591e481d5cd95960621b60448201526064016106c3565b6000816002015411610d7d5760405162461bcd60e51b81526004016106c3906126cc565b610d8986868686611252565b9695505050505050565b610d9b61118d565b610da58282611a20565b5050565b6000803411610dca5760405162461bcd60e51b81526004016106c3906126cc565b60ca80543391469143916000610ddf83612651565b91905055604051602001610df6949392919061266a565b60408051808303601f19018152828252805160209182012060a08401835233808552600083860181815234878701818152600160608a0181815260808b0186815288875260cc9099528986209a518b546001600160a01b03199081166001600160a01b03928316178d5595518c84018054909716911617909455905160028a0155915160039098018054965161ffff1990971698151561ff00191698909817610100961515969096029590951790965593519195509385936000805160206128fb83398151915293610ecb93919290916126a9565b60405180910390a390565b610ede61118d565b828114610f175760405162461bcd60e51b8152602060048201526007602482015266042d8cadccee8d60cb1b60448201526064016106c3565b8260005b81811015610f7d57610f6b868683818110610f3857610f386126f6565b9050602002016020810190610f4d9190612330565b858584818110610f5f57610f5f6126f6565b90506020020135611a20565b610f7660018261270c565b9050610f1b565b505050505050565b610f8d61118d565b610f96816119e5565b50565b610fa161118d565b6001600160a01b0381166110065760405162461bcd60e51b815260206004820152602660248201527f4f776e61626c653a206e6577206f776e657220697320746865207a65726f206160448201526564647265737360d01b60648201526084016106c3565b610f9681611993565b60008082116110305760405162461bcd60e51b81526004016106c3906126cc565b813410156110755760405162461bcd60e51b8152602060048201526012602482015271696e73756666696369656e742076616c756560701b60448201526064016106c3565b600033464360ca600081548092919061108d90612651565b919050556040516020016110a4949392919061266a565b60408051808303601f19018152828252805160209182012060a0840183523380855260008386018181528686018a815260016060890181815260808a0185815287865260cc90985288852099518a546001600160a01b03199081166001600160a01b03928316178c5594518b8401805490961691161790935590516002890155905160039097018054955161ffff1990961697151561ff0019169790971761010095151595909502949094179095559251909450919284926000805160206128fb8339815191529261117992918991906126a9565b60405180910390a3610d8986828787611252565b6033546001600160a01b03163314610c515760405162461bcd60e51b815260206004820181905260248201527f4f776e61626c653a2063616c6c6572206973206e6f7420746865206f776e657260448201526064016106c3565b6040516001600160a01b0380851660248301528316604482015260648101829052610ca89085906323b872dd60e01b906084015b60408051601f198184030181529190526020810180516001600160e01b03166001600160e01b031990931692909217909152611a36565b6000816112975760405162461bcd60e51b815260206004820152601360248201527218da5c1a195c9d195e1d081c995c5d5a5c9959606a1b60448201526064016106c3565b8463ffffffff166000036112df5760405162461bcd60e51b815260206004820152600f60248201526e191bdb585a5b881c995c5d5a5c9959608a1b60448201526064016106c3565b60ca805433914691439160006112f483612651565b9091555060405160609490941b6bffffffffffffffffffffffff1916602085015260348401929092526054830152607482015260940160408051601f19818403018152828252805160209182012060808401835233845263ffffffff808a168584019081524286860190815260006060880181815285825260cb8752878220985189549451909516600160a01b026001600160c01b03199094166001600160a01b03959095169490941792909217875551600187015590516002909501805495151560ff199096169590951790945560cf90915281832087905590519092506113e0908590859061271f565b60408051918290038220600085815260cd602090815283822083905582825260ce81529281208690559093509161141d918591889188910161272f565b604051602081830303815290604052905061143a87600083611b10565b5060405182907f06cd98eab69b8f00793ac851f5499cdfd160f8d8def737def816196caae4150190600090a25050949350505050565b60008061147d8484611b43565b915091505b9250929050565b6060600061149683611b7d565b9050805167ffffffffffffffff8111156114b2576114b2612765565b6040519080825280602002602001820160405280156114db578160200160208202803683370190505b50915060005b8151811015611533578181815181106114fc576114fc6126f6565b6020026020010151838281518110611516576115166126f6565b63ffffffff909216602092830291909101909101526001016114e1565b5050919050565b60008080611552609763ffffffff8087169061147016565b915091508115611563579392505050565b61156c84611c0e565b60405162461bcd60e51b81526004016106c3919061250b565b60008080808061159786880188612789565b600085815260cb602052604090208054959a5093985091965094509250906001600160a01b03166115fd5760405162461bcd60e51b815260206004820152601060248201526f7472616e73666572206d697373696e6760801b60448201526064016106c3565b805463ffffffff8b8116600160a01b90920416146116515760405162461bcd60e51b81526020600482015260116024820152703ab732bc3832b1ba32b21037b934b3b4b760791b60448201526064016106c3565b600281015460ff161561169d5760405162461bcd60e51b8152602060048201526014602482015273185b1c9958591e481858dadb9bdddb195919d95960621b60448201526064016106c3565b600086815260cf602090815260408083205480845260cc9092529091206003810154610100900460ff16156117075760405162461bcd60e51b815260206004820152601060248201526f185b1c9958591e481c995b19585cd95960821b60448201526064016106c3565b84816002015410156117525760405162461bcd60e51b81526020600482015260146024820152731a5b9cdd59999a58da595b9d0819195c1bdcda5d60621b60448201526064016106c3565b600381015460ff1615158415151461179c5760405162461bcd60e51b815260206004820152600d60248201526c0e8f2e0ca40dad2e6dac2e8c6d609b1b60448201526064016106c3565b600381015460ff16806117be575060018101546001600160a01b038781169116145b6117fb5760405162461bcd60e51b815260206004820152600e60248201526d0e8ded6cadc40dad2e6dac2e8c6d60931b60448201526064016106c3565b6002808401805460ff1916600117905581015460009061181c9087906127e8565b60028301819055905060008190036118405760038201805461ff0019166101001790555b84156118e8576000886001600160a01b03168760405160006040518083038185875af1925050503d8060008114611893576040519150601f19603f3d011682016040523d82523d6000602084013e611898565b606091505b50509050806118e25760405162461bcd60e51b81526020600482015260166024820152751b985d1a5d99481d1c985b9cd9995c8819985a5b195960521b60448201526064016106c3565b506118fc565b6118fc6001600160a01b0388168988611c45565b600089815260cd6020526040902054806119585760405162461bcd60e51b815260206004820152601760248201527f636970686572746578742068617368206d697373696e6700000000000000000060448201526064016106c3565b60405181907f86e8c53228331eaf9374793f2281d65cfc6d018a447302fc5f41d8bd8415c5b490600090a25050505050505050505050505050565b603380546001600160a01b038381166001600160a01b0319831681179093556040519116919082907f8be0079c531659141344cd1fd0a4f28419497f9722a3daafe3b4186f6b6457e090600090a35050565b6119f9609763ffffffff80841690611c7516565b611a0282611c0e565b90610da55760405162461bcd60e51b81526004016106c3919061250b565b610da5609763ffffffff808516908490611c8a16565b6000611a8b826040518060400160405280602081526020017f5361666545524332303a206c6f772d6c6576656c2063616c6c206661696c6564815250856001600160a01b0316611c959092919063ffffffff16565b9050805160001480611aac575080806020019051810190611aac91906127fb565b611b0b5760405162461bcd60e51b815260206004820152602a60248201527f5361666545524332303a204552433230206f7065726174696f6e20646964206e6044820152691bdd081cdd58d8d9595960b21b60648201526084016106c3565b505050565b600061090684848460405180602001604052806000815250606560009054906101000a90046001600160a01b0316611ca4565b6000818152600283016020526040812054819080611b7257611b658585611d4a565b9250600091506114829050565b600192509050611482565b60606000611b8a83611d56565b90508067ffffffffffffffff811115611ba557611ba5612765565b604051908082528060200260200182016040528015611bce578160200160208202803683370190505b50915060005b8181101561153357611be68482611d61565b60001c838281518110611bfb57611bfb6126f6565b6020908102919091010152600101611bd4565b6060611c1f8263ffffffff16611d6d565b604051602001611c2f9190612818565b6040516020818303038152906040529050919050565b6040516001600160a01b038316602482015260448101829052611b0b90849063a9059cbb60e01b9060640161121b565b6000611c818383611e00565b90505b92915050565b610ca8838383611e1d565b60606109068484600085611e3a565b600080611cb08761153a565b90507f00000000000000000000000000000000000000000000000000000000000000006001600160a01b03166310b83dc08789848989896040518763ffffffff1660e01b8152600401611d0795949392919061285d565b60206040518083038185885af1158015611d25573d6000803e3d6000fd5b50505050506040513d601f19601f820116820180604052508101906108e491906128af565b6000611c818383611f0a565b6000611c8482611f22565b6000611c818383611f2c565b60606000611d7a83611f56565b600101905060008167ffffffffffffffff811115611d9a57611d9a612765565b6040519080825280601f01601f191660200182016040528015611dc4576020820181803683370190505b5090508181016020015b600019016f181899199a1a9b1b9c1cb0b131b232b360811b600a86061a8153600a8504945084611dce57509392505050565b60008181526002830160205260408120819055611c81838361202e565b60008281526002840160205260408120829055610906848461203a565b606082471015611e9b5760405162461bcd60e51b815260206004820152602660248201527f416464726573733a20696e73756666696369656e742062616c616e636520666f6044820152651c8818d85b1b60d21b60648201526084016106c3565b600080866001600160a01b03168587604051611eb791906128c8565b60006040518083038185875af1925050503d8060008114611ef4576040519150601f19603f3d011682016040523d82523d6000602084013e611ef9565b606091505b50915091506108e487838387612046565b60008181526001830160205260408120541515611c81565b6000611c84825490565b6000826000018281548110611f4357611f436126f6565b9060005260206000200154905092915050565b60008072184f03e93ff9f4daa797ed6e38ed64bf6a1f0160401b8310611f955772184f03e93ff9f4daa797ed6e38ed64bf6a1f0160401b830492506040015b6d04ee2d6d415b85acef81000000008310611fc1576d04ee2d6d415b85acef8100000000830492506020015b662386f26fc100008310611fdf57662386f26fc10000830492506010015b6305f5e1008310611ff7576305f5e100830492506008015b612710831061200b57612710830492506004015b6064831061201d576064830492506002015b600a8310611c845760010192915050565b6000611c8183836120bf565b6000611c8183836121b2565b606083156120b55782516000036120ae576001600160a01b0385163b6120ae5760405162461bcd60e51b815260206004820152601d60248201527f416464726573733a2063616c6c20746f206e6f6e2d636f6e747261637400000060448201526064016106c3565b5081610906565b6109068383612201565b600081815260018301602052604081205480156121a85760006120e36001836127e8565b85549091506000906120f7906001906127e8565b905081811461215c576000866000018281548110612117576121176126f6565b906000526020600020015490508087600001848154811061213a5761213a6126f6565b6000918252602080832090910192909255918252600188019052604090208390555b855486908061216d5761216d6128e4565b600190038181906000526020600020016000905590558560010160008681526020019081526020016000206000905560019350505050611c84565b6000915050611c84565b60008181526001830160205260408120546121f957508154600181810184556000848152602080822090930184905584548482528286019093526040902091909155611c84565b506000611c84565b8151156122115781518083602001fd5b8060405162461bcd60e51b81526004016106c3919061250b565b6001600160a01b0381168114610f9657600080fd5b60006020828403121561225257600080fd5b813561225d8161222b565b9392505050565b803563ffffffff8116811461227857600080fd5b919050565b60008083601f84011261228f57600080fd5b50813567ffffffffffffffff8111156122a757600080fd5b60208301915083602082850101111561148257600080fd5b6000806000806000608086880312156122d757600080fd5b6122e086612264565b945060208601356122f08161222b565b935060408601359250606086013567ffffffffffffffff81111561231357600080fd5b61231f8882890161227d565b969995985093965092949392505050565b60006020828403121561234257600080fd5b611c8182612264565b60006020828403121561235d57600080fd5b5035919050565b6020808252825182820181905260009190848201906040850190845b818110156123a257835163ffffffff1683529284019291840191600101612380565b50909695505050505050565b600080600080606085870312156123c457600080fd5b6123cd85612264565b935060208501359250604085013567ffffffffffffffff8111156123f057600080fd5b6123fc8782880161227d565b95989497509550505050565b6000806040838503121561241b57600080fd5b82356124268161222b565b946020939093013593505050565b60008083601f84011261244657600080fd5b50813567ffffffffffffffff81111561245e57600080fd5b6020830191508360208260051b850101111561148257600080fd5b6000806020838503121561248c57600080fd5b823567ffffffffffffffff8111156124a357600080fd5b6124af85828601612434565b90969095509350505050565b60005b838110156124d65781810151838201526020016124be565b50506000910152565b600081518084526124f78160208601602086016124bb565b601f01601f19169290920160200192915050565b602081526000611c8160208301846124df565b6000806040838503121561253157600080fd5b61242683612264565b6000806000806040858703121561255057600080fd5b843567ffffffffffffffff8082111561256857600080fd5b61257488838901612434565b9096509450602087013591508082111561258d57600080fd5b506123fc87828801612434565b600080600080606085870312156125b057600080fd5b6125b985612264565b9350602085013567ffffffffffffffff8111156125d557600080fd5b6125e18782880161227d565b9598909750949560400135949350505050565b60208082526027908201527f4d61696c626f78436c69656e743a20696e76616c696420636f6e74726163742060408201526673657474696e6760c81b606082015260800190565b634e487b7160e01b600052601160045260246000fd5b6000600182016126635761266361263b565b5060010190565b60609490941b6bffffffffffffffffffffffff191684526014840192909252603483015260548201526619195c1bdcda5d60ca1b6074820152607b0190565b6001600160a01b0393909316835260208301919091521515604082015260600190565b60208082526010908201526f19195c1bdcda5d081c995c5d5a5c995960821b604082015260600190565b634e487b7160e01b600052603260045260246000fd5b80820180821115611c8457611c8461263b565b8183823760009101908152919050565b83815260406020820152816040820152818360608301376000818301606090810191909152601f909201601f1916010192915050565b634e487b7160e01b600052604160045260246000fd5b8015158114610f9657600080fd5b600080600080600060a086880312156127a157600080fd5b8535945060208601356127b38161222b565b935060408601356127c38161222b565b92506060860135915060808601356127da8161277b565b809150509295509295909350565b81810381811115611c8457611c8461263b565b60006020828403121561280d57600080fd5b815161225d8161277b565b7f4e6f20726f7574657220656e726f6c6c656420666f7220646f6d61696e3a200081526000825161285081601f8501602087016124bb565b91909101601f0192915050565b63ffffffff8616815284602082015260a06040820152600061288260a08301866124df565b828103606084015261289481866124df565b91505060018060a01b03831660808301529695505050505050565b6000602082840312156128c157600080fd5b5051919050565b600082516128da8184602087016124bb565b9190910192915050565b634e487b7160e01b600052603160045260246000fdfe72f65d670185ce24aefd6165dd11d1b3ad0d5076ca4899c2f4b691ce766e4c26a2646970667358221220a2b808cba0b39da9bd6dc32f751cfd6640772c3be7c24bb0732e6e8809e8be4564736f6c63430008180033","opcodes":"PUSH1 0xC0 PUSH1 0x40 MSTORE CALLVALUE DUP1 ISZERO PUSH3 0x11 JUMPI PUSH1 0x0 DUP1 REVERT JUMPDEST POP PUSH1 0x40 MLOAD PUSH3 0x2CAC CODESIZE SUB DUP1 PUSH3 0x2CAC DUP4 CODECOPY DUP2 ADD PUSH1 0x40 DUP2 SWAP1 MSTORE PUSH3 0x34 SWAP2 PUSH3 0x2CE JUMP JUMPDEST DUP1 DUP1 DUP1 PUSH1 0x1 PUSH1 0x1 PUSH1 0xA0 SHL SUB DUP2 AND EXTCODESIZE PUSH3 0x94 JUMPI PUSH1 0x40 MLOAD PUSH3 0x461BCD PUSH1 0xE5 SHL DUP2 MSTORE PUSH1 0x20 PUSH1 0x4 DUP3 ADD MSTORE PUSH1 0x1E PUSH1 0x24 DUP3 ADD MSTORE PUSH32 0x4D61696C626F78436C69656E743A20696E76616C6964206D61696C626F780000 PUSH1 0x44 DUP3 ADD MSTORE PUSH1 0x64 ADD JUMPDEST PUSH1 0x40 MLOAD DUP1 SWAP2 SUB SWAP1 REVERT JUMPDEST PUSH1 0x1 PUSH1 0x1 PUSH1 0xA0 SHL SUB DUP3 AND PUSH1 0x80 DUP2 SWAP1 MSTORE PUSH1 0x40 DUP1 MLOAD PUSH4 0x234D8E3D PUSH1 0xE2 SHL DUP2 MSTORE SWAP1 MLOAD PUSH4 0x8D3638F4 SWAP2 PUSH1 0x4 DUP1 DUP3 ADD SWAP3 PUSH1 0x20 SWAP3 SWAP1 SWAP2 SWAP1 DUP3 SWAP1 SUB ADD DUP2 DUP7 GAS STATICCALL ISZERO DUP1 ISZERO PUSH3 0xDF JUMPI RETURNDATASIZE PUSH1 0x0 DUP1 RETURNDATACOPY RETURNDATASIZE PUSH1 0x0 REVERT JUMPDEST POP POP POP POP PUSH1 0x40 MLOAD RETURNDATASIZE PUSH1 0x1F NOT PUSH1 0x1F DUP3 ADD AND DUP3 ADD DUP1 PUSH1 0x40 MSTORE POP DUP2 ADD SWAP1 PUSH3 0x105 SWAP2 SWAP1 PUSH3 0x300 JUMP JUMPDEST PUSH4 0xFFFFFFFF AND PUSH1 0xA0 MSTORE PUSH3 0x119 CALLER PUSH3 0x140 JUMP JUMPDEST POP POP POP PUSH3 0x12D CALLER PUSH3 0x140 PUSH1 0x20 SHL PUSH1 0x20 SHR JUMP JUMPDEST PUSH3 0x139 PUSH1 0x0 PUSH3 0x192 JUMP JUMPDEST POP PUSH3 0x328 JUMP JUMPDEST PUSH1 0x33 DUP1 SLOAD PUSH1 0x1 PUSH1 0x1 PUSH1 0xA0 SHL SUB DUP4 DUP2 AND PUSH1 0x1 PUSH1 0x1 PUSH1 0xA0 SHL SUB NOT DUP4 AND DUP2 OR SWAP1 SWAP4 SSTORE PUSH1 0x40 MLOAD SWAP2 AND SWAP2 SWAP1 DUP3 SWAP1 PUSH32 0x8BE0079C531659141344CD1FD0A4F28419497F9722A3DAAFE3B4186F6B6457E0 SWAP1 PUSH1 0x0 SWAP1 LOG3 POP POP JUMP JUMPDEST DUP1 PUSH1 0x1 PUSH1 0x1 PUSH1 0xA0 SHL SUB DUP2 AND EXTCODESIZE ISZERO ISZERO DUP1 PUSH3 0x1B3 JUMPI POP PUSH1 0x1 PUSH1 0x1 PUSH1 0xA0 SHL SUB DUP2 AND ISZERO JUMPDEST PUSH3 0x211 JUMPI PUSH1 0x40 MLOAD PUSH3 0x461BCD PUSH1 0xE5 SHL DUP2 MSTORE PUSH1 0x20 PUSH1 0x4 DUP3 ADD MSTORE PUSH1 0x27 PUSH1 0x24 DUP3 ADD MSTORE PUSH32 0x4D61696C626F78436C69656E743A20696E76616C696420636F6E747261637420 PUSH1 0x44 DUP3 ADD MSTORE PUSH7 0x73657474696E67 PUSH1 0xC8 SHL PUSH1 0x64 DUP3 ADD MSTORE PUSH1 0x84 ADD PUSH3 0x8B JUMP JUMPDEST PUSH3 0x21B PUSH3 0x270 JUMP JUMPDEST PUSH1 0x65 DUP1 SLOAD PUSH1 0x1 PUSH1 0x1 PUSH1 0xA0 SHL SUB NOT AND PUSH1 0x1 PUSH1 0x1 PUSH1 0xA0 SHL SUB DUP5 AND SWAP1 DUP2 OR SWAP1 SWAP2 SSTORE PUSH1 0x40 MLOAD SWAP1 DUP2 MSTORE PUSH32 0x4EAB7B127C764308788622363AD3E9532DE3DFBA7845BD4F84C125A22544255A SWAP1 PUSH1 0x20 ADD PUSH1 0x40 MLOAD DUP1 SWAP2 SUB SWAP1 LOG1 POP POP JUMP JUMPDEST PUSH1 0x33 SLOAD PUSH1 0x1 PUSH1 0x1 PUSH1 0xA0 SHL SUB AND CALLER EQ PUSH3 0x2CC JUMPI PUSH1 0x40 MLOAD PUSH3 0x461BCD PUSH1 0xE5 SHL DUP2 MSTORE PUSH1 0x20 PUSH1 0x4 DUP3 ADD DUP2 SWAP1 MSTORE PUSH1 0x24 DUP3 ADD MSTORE PUSH32 0x4F776E61626C653A2063616C6C6572206973206E6F7420746865206F776E6572 PUSH1 0x44 DUP3 ADD MSTORE PUSH1 0x64 ADD PUSH3 0x8B JUMP JUMPDEST JUMP JUMPDEST PUSH1 0x0 PUSH1 0x20 DUP3 DUP5 SUB SLT ISZERO PUSH3 0x2E1 JUMPI PUSH1 0x0 DUP1 REVERT JUMPDEST DUP2 MLOAD PUSH1 0x1 PUSH1 0x1 PUSH1 0xA0 SHL SUB DUP2 AND DUP2 EQ PUSH3 0x2F9 JUMPI PUSH1 0x0 DUP1 REVERT JUMPDEST SWAP4 SWAP3 POP POP POP JUMP JUMPDEST PUSH1 0x0 PUSH1 0x20 DUP3 DUP5 SUB SLT ISZERO PUSH3 0x313 JUMPI PUSH1 0x0 DUP1 REVERT JUMPDEST DUP2 MLOAD PUSH4 0xFFFFFFFF DUP2 AND DUP2 EQ PUSH3 0x2F9 JUMPI PUSH1 0x0 DUP1 REVERT JUMPDEST PUSH1 0x80 MLOAD PUSH1 0xA0 MLOAD PUSH2 0x2950 PUSH3 0x35C PUSH1 0x0 CODECOPY PUSH1 0x0 PUSH2 0x432 ADD MSTORE PUSH1 0x0 DUP2 DUP2 PUSH2 0x5CC ADD MSTORE DUP2 DUP2 PUSH2 0x9BC ADD MSTORE PUSH2 0x1CB4 ADD MSTORE PUSH2 0x2950 PUSH1 0x0 RETURN INVALID PUSH1 0x80 PUSH1 0x40 MSTORE PUSH1 0x4 CALLDATASIZE LT PUSH2 0x1B7 JUMPI PUSH1 0x0 CALLDATALOAD PUSH1 0xE0 SHR DUP1 PUSH4 0x93C44847 GT PUSH2 0xEC JUMPI DUP1 PUSH4 0xD5438EAE GT PUSH2 0x8A JUMPI DUP1 PUSH4 0xE9198BF9 GT PUSH2 0x64 JUMPI DUP1 PUSH4 0xE9198BF9 EQ PUSH2 0x614 JUMPI DUP1 PUSH4 0xEFAE508A EQ PUSH2 0x634 JUMPI DUP1 PUSH4 0xF2FDE38B EQ PUSH2 0x654 JUMPI DUP1 PUSH4 0xFCA937DE EQ PUSH2 0x674 JUMPI PUSH1 0x0 DUP1 REVERT JUMPDEST DUP1 PUSH4 0xD5438EAE EQ PUSH2 0x5BA JUMPI DUP1 PUSH4 0xDB6B5246 EQ PUSH2 0x5EE JUMPI DUP1 PUSH4 0xDE523CF3 EQ PUSH2 0x5F6 JUMPI PUSH1 0x0 DUP1 REVERT JUMPDEST DUP1 PUSH4 0x9FF22002 GT PUSH2 0xC6 JUMPI DUP1 PUSH4 0x9FF22002 EQ PUSH2 0x513 JUMPI DUP1 PUSH4 0xB49C53A7 EQ PUSH2 0x540 JUMPI DUP1 PUSH4 0xC2EA2631 EQ PUSH2 0x560 JUMPI DUP1 PUSH4 0xCD8ED5A9 EQ PUSH2 0x58D JUMPI PUSH1 0x0 DUP1 REVERT JUMPDEST DUP1 PUSH4 0x93C44847 EQ PUSH2 0x487 JUMPI DUP1 PUSH4 0x9EF4F883 EQ PUSH2 0x4C6 JUMPI DUP1 PUSH4 0x9F78FBEC EQ PUSH2 0x4F3 JUMPI PUSH1 0x0 DUP1 REVERT JUMPDEST DUP1 PUSH4 0x56D5D475 GT PUSH2 0x159 JUMPI DUP1 PUSH4 0x71A15B38 GT PUSH2 0x133 JUMPI DUP1 PUSH4 0x71A15B38 EQ PUSH2 0x3C8 JUMPI DUP1 PUSH4 0x7F5A7C7B EQ PUSH2 0x3E8 JUMPI DUP1 PUSH4 0x8D3638F4 EQ PUSH2 0x420 JUMPI DUP1 PUSH4 0x8DA5CB5B EQ PUSH2 0x469 JUMPI PUSH1 0x0 DUP1 REVERT JUMPDEST DUP1 PUSH4 0x56D5D475 EQ PUSH2 0x380 JUMPI DUP1 PUSH4 0x6548B40D EQ PUSH2 0x393 JUMPI DUP1 PUSH4 0x715018A6 EQ PUSH2 0x3B3 JUMPI PUSH1 0x0 DUP1 REVERT JUMPDEST DUP1 PUSH4 0x3C64F04B GT PUSH2 0x195 JUMPI DUP1 PUSH4 0x3C64F04B EQ PUSH2 0x224 JUMPI DUP1 PUSH4 0x3D4DFF7B EQ PUSH2 0x2AC JUMPI DUP1 PUSH4 0x3DFD3873 EQ PUSH2 0x33E JUMPI DUP1 PUSH4 0x440DF4F4 EQ PUSH2 0x35E JUMPI PUSH1 0x0 DUP1 REVERT JUMPDEST DUP1 PUSH4 0xE72CC06 EQ PUSH2 0x1BC JUMPI DUP1 PUSH4 0x23764251 EQ PUSH2 0x1DE JUMPI DUP1 PUSH4 0x2EAD72F6 EQ PUSH2 0x204 JUMPI JUMPDEST PUSH1 0x0 DUP1 REVERT JUMPDEST CALLVALUE DUP1 ISZERO PUSH2 0x1C8 JUMPI PUSH1 0x0 DUP1 REVERT JUMPDEST POP PUSH2 0x1DC PUSH2 0x1D7 CALLDATASIZE PUSH1 0x4 PUSH2 0x2240 JUMP JUMPDEST PUSH2 0x687 JUMP JUMPDEST STOP JUMPDEST PUSH2 0x1F1 PUSH2 0x1EC CALLDATASIZE PUSH1 0x4 PUSH2 0x22BF JUMP JUMPDEST PUSH2 0x72A JUMP JUMPDEST PUSH1 0x40 MLOAD SWAP1 DUP2 MSTORE PUSH1 0x20 ADD JUMPDEST PUSH1 0x40 MLOAD DUP1 SWAP2 SUB SWAP1 RETURN JUMPDEST CALLVALUE DUP1 ISZERO PUSH2 0x210 JUMPI PUSH1 0x0 DUP1 REVERT JUMPDEST POP PUSH2 0x1F1 PUSH2 0x21F CALLDATASIZE PUSH1 0x4 PUSH2 0x2330 JUMP JUMPDEST PUSH2 0x8EF JUMP JUMPDEST CALLVALUE DUP1 ISZERO PUSH2 0x230 JUMPI PUSH1 0x0 DUP1 REVERT JUMPDEST POP PUSH2 0x27B PUSH2 0x23F CALLDATASIZE PUSH1 0x4 PUSH2 0x234B JUMP JUMPDEST PUSH1 0xCB PUSH1 0x20 MSTORE PUSH1 0x0 SWAP1 DUP2 MSTORE PUSH1 0x40 SWAP1 KECCAK256 DUP1 SLOAD PUSH1 0x1 DUP3 ADD SLOAD PUSH1 0x2 SWAP1 SWAP3 ADD SLOAD PUSH1 0x1 PUSH1 0x1 PUSH1 0xA0 SHL SUB DUP3 AND SWAP3 PUSH1 0x1 PUSH1 0xA0 SHL SWAP1 SWAP3 DIV PUSH4 0xFFFFFFFF AND SWAP2 SWAP1 PUSH1 0xFF AND DUP5 JUMP JUMPDEST PUSH1 0x40 DUP1 MLOAD PUSH1 0x1 PUSH1 0x1 PUSH1 0xA0 SHL SUB SWAP1 SWAP6 AND DUP6 MSTORE PUSH4 0xFFFFFFFF SWAP1 SWAP4 AND PUSH1 0x20 DUP6 ADD MSTORE SWAP2 DUP4 ADD MSTORE ISZERO ISZERO PUSH1 0x60 DUP3 ADD MSTORE PUSH1 0x80 ADD PUSH2 0x1FB JUMP JUMPDEST CALLVALUE DUP1 ISZERO PUSH2 0x2B8 JUMPI PUSH1 0x0 DUP1 REVERT JUMPDEST POP PUSH2 0x307 PUSH2 0x2C7 CALLDATASIZE PUSH1 0x4 PUSH2 0x234B JUMP JUMPDEST PUSH1 0xCC PUSH1 0x20 MSTORE PUSH1 0x0 SWAP1 DUP2 MSTORE PUSH1 0x40 SWAP1 KECCAK256 DUP1 SLOAD PUSH1 0x1 DUP3 ADD SLOAD PUSH1 0x2 DUP4 ADD SLOAD PUSH1 0x3 SWAP1 SWAP4 ADD SLOAD PUSH1 0x1 PUSH1 0x1 PUSH1 0xA0 SHL SUB SWAP3 DUP4 AND SWAP4 SWAP2 SWAP1 SWAP3 AND SWAP2 PUSH1 0xFF DUP1 DUP3 AND SWAP2 PUSH2 0x100 SWAP1 DIV AND DUP6 JUMP JUMPDEST PUSH1 0x40 DUP1 MLOAD PUSH1 0x1 PUSH1 0x1 PUSH1 0xA0 SHL SUB SWAP7 DUP8 AND DUP2 MSTORE SWAP6 SWAP1 SWAP5 AND PUSH1 0x20 DUP7 ADD MSTORE SWAP3 DUP5 ADD SWAP2 SWAP1 SWAP2 MSTORE ISZERO ISZERO PUSH1 0x60 DUP4 ADD MSTORE ISZERO ISZERO PUSH1 0x80 DUP3 ADD MSTORE PUSH1 0xA0 ADD PUSH2 0x1FB JUMP JUMPDEST CALLVALUE DUP1 ISZERO PUSH2 0x34A JUMPI PUSH1 0x0 DUP1 REVERT JUMPDEST POP PUSH2 0x1DC PUSH2 0x359 CALLDATASIZE PUSH1 0x4 PUSH2 0x2240 JUMP JUMPDEST PUSH2 0x90E JUMP JUMPDEST CALLVALUE DUP1 ISZERO PUSH2 0x36A JUMPI PUSH1 0x0 DUP1 REVERT JUMPDEST POP PUSH2 0x373 PUSH2 0x9A0 JUMP JUMPDEST PUSH1 0x40 MLOAD PUSH2 0x1FB SWAP2 SWAP1 PUSH2 0x2364 JUMP JUMPDEST PUSH2 0x1DC PUSH2 0x38E CALLDATASIZE PUSH1 0x4 PUSH2 0x23AE JUMP JUMPDEST PUSH2 0x9B1 JUMP JUMPDEST CALLVALUE DUP1 ISZERO PUSH2 0x39F JUMPI PUSH1 0x0 DUP1 REVERT JUMPDEST POP PUSH2 0x1F1 PUSH2 0x3AE CALLDATASIZE PUSH1 0x4 PUSH2 0x2408 JUMP JUMPDEST PUSH2 0xAB0 JUMP JUMPDEST CALLVALUE DUP1 ISZERO PUSH2 0x3BF JUMPI PUSH1 0x0 DUP1 REVERT JUMPDEST POP PUSH2 0x1DC PUSH2 0xC3F JUMP JUMPDEST CALLVALUE DUP1 ISZERO PUSH2 0x3D4 JUMPI PUSH1 0x0 DUP1 REVERT JUMPDEST POP PUSH2 0x1DC PUSH2 0x3E3 CALLDATASIZE PUSH1 0x4 PUSH2 0x2479 JUMP JUMPDEST PUSH2 0xC53 JUMP JUMPDEST CALLVALUE DUP1 ISZERO PUSH2 0x3F4 JUMPI PUSH1 0x0 DUP1 REVERT JUMPDEST POP PUSH1 0x65 SLOAD PUSH2 0x408 SWAP1 PUSH1 0x1 PUSH1 0x1 PUSH1 0xA0 SHL SUB AND DUP2 JUMP JUMPDEST PUSH1 0x40 MLOAD PUSH1 0x1 PUSH1 0x1 PUSH1 0xA0 SHL SUB SWAP1 SWAP2 AND DUP2 MSTORE PUSH1 0x20 ADD PUSH2 0x1FB JUMP JUMPDEST CALLVALUE DUP1 ISZERO PUSH2 0x42C JUMPI PUSH1 0x0 DUP1 REVERT JUMPDEST POP PUSH2 0x454 PUSH32 0x0 DUP2 JUMP JUMPDEST PUSH1 0x40 MLOAD PUSH4 0xFFFFFFFF SWAP1 SWAP2 AND DUP2 MSTORE PUSH1 0x20 ADD PUSH2 0x1FB JUMP JUMPDEST CALLVALUE DUP1 ISZERO PUSH2 0x475 JUMPI PUSH1 0x0 DUP1 REVERT JUMPDEST POP PUSH1 0x33 SLOAD PUSH1 0x1 PUSH1 0x1 PUSH1 0xA0 SHL SUB AND PUSH2 0x408 JUMP JUMPDEST CALLVALUE DUP1 ISZERO PUSH2 0x493 JUMPI PUSH1 0x0 DUP1 REVERT JUMPDEST POP PUSH2 0x4B9 PUSH1 0x40 MLOAD DUP1 PUSH1 0x40 ADD PUSH1 0x40 MSTORE DUP1 PUSH1 0x6 DUP2 MSTORE PUSH1 0x20 ADD PUSH6 0x31302E312E33 PUSH1 0xD0 SHL DUP2 MSTORE POP DUP2 JUMP JUMPDEST PUSH1 0x40 MLOAD PUSH2 0x1FB SWAP2 SWAP1 PUSH2 0x250B JUMP JUMPDEST CALLVALUE DUP1 ISZERO PUSH2 0x4D2 JUMPI PUSH1 0x0 DUP1 REVERT JUMPDEST POP PUSH2 0x1F1 PUSH2 0x4E1 CALLDATASIZE PUSH1 0x4 PUSH2 0x234B JUMP JUMPDEST PUSH1 0xCF PUSH1 0x20 MSTORE PUSH1 0x0 SWAP1 DUP2 MSTORE PUSH1 0x40 SWAP1 KECCAK256 SLOAD DUP2 JUMP JUMPDEST CALLVALUE DUP1 ISZERO PUSH2 0x4FF JUMPI PUSH1 0x0 DUP1 REVERT JUMPDEST POP PUSH2 0x1F1 PUSH2 0x50E CALLDATASIZE PUSH1 0x4 PUSH2 0x23AE JUMP JUMPDEST PUSH2 0xCAE JUMP JUMPDEST CALLVALUE DUP1 ISZERO PUSH2 0x51F JUMPI PUSH1 0x0 DUP1 REVERT JUMPDEST POP PUSH2 0x1F1 PUSH2 0x52E CALLDATASIZE PUSH1 0x4 PUSH2 0x234B JUMP JUMPDEST PUSH1 0xCD PUSH1 0x20 MSTORE PUSH1 0x0 SWAP1 DUP2 MSTORE PUSH1 0x40 SWAP1 KECCAK256 SLOAD DUP2 JUMP JUMPDEST CALLVALUE DUP1 ISZERO PUSH2 0x54C JUMPI PUSH1 0x0 DUP1 REVERT JUMPDEST POP PUSH2 0x1DC PUSH2 0x55B CALLDATASIZE PUSH1 0x4 PUSH2 0x251E JUMP JUMPDEST PUSH2 0xD93 JUMP JUMPDEST CALLVALUE DUP1 ISZERO PUSH2 0x56C JUMPI PUSH1 0x0 DUP1 REVERT JUMPDEST POP PUSH2 0x1F1 PUSH2 0x57B CALLDATASIZE PUSH1 0x4 PUSH2 0x234B JUMP JUMPDEST PUSH1 0xCE PUSH1 0x20 MSTORE PUSH1 0x0 SWAP1 DUP2 MSTORE PUSH1 0x40 SWAP1 KECCAK256 SLOAD DUP2 JUMP JUMPDEST CALLVALUE DUP1 ISZERO PUSH2 0x599 JUMPI PUSH1 0x0 DUP1 REVERT JUMPDEST POP PUSH2 0x1F1 PUSH2 0x5A8 CALLDATASIZE PUSH1 0x4 PUSH2 0x234B JUMP JUMPDEST PUSH1 0x0 SWAP1 DUP2 MSTORE PUSH1 0xCE PUSH1 0x20 MSTORE PUSH1 0x40 SWAP1 KECCAK256 SLOAD SWAP1 JUMP JUMPDEST CALLVALUE DUP1 ISZERO PUSH2 0x5C6 JUMPI PUSH1 0x0 DUP1 REVERT JUMPDEST POP PUSH2 0x408 PUSH32 0x0 DUP2 JUMP JUMPDEST PUSH2 0x1F1 PUSH2 0xDA9 JUMP JUMPDEST CALLVALUE DUP1 ISZERO PUSH2 0x602 JUMPI PUSH1 0x0 DUP1 REVERT JUMPDEST POP PUSH1 0x66 SLOAD PUSH1 0x1 PUSH1 0x1 PUSH1 0xA0 SHL SUB AND PUSH2 0x408 JUMP JUMPDEST CALLVALUE DUP1 ISZERO PUSH2 0x620 JUMPI PUSH1 0x0 DUP1 REVERT JUMPDEST POP PUSH2 0x1DC PUSH2 0x62F CALLDATASIZE PUSH1 0x4 PUSH2 0x253A JUMP JUMPDEST PUSH2 0xED6 JUMP JUMPDEST CALLVALUE DUP1 ISZERO PUSH2 0x640 JUMPI PUSH1 0x0 DUP1 REVERT JUMPDEST POP PUSH2 0x1DC PUSH2 0x64F CALLDATASIZE PUSH1 0x4 PUSH2 0x2330 JUMP JUMPDEST PUSH2 0xF85 JUMP JUMPDEST CALLVALUE DUP1 ISZERO PUSH2 0x660 JUMPI PUSH1 0x0 DUP1 REVERT JUMPDEST POP PUSH2 0x1DC PUSH2 0x66F CALLDATASIZE PUSH1 0x4 PUSH2 0x2240 JUMP JUMPDEST PUSH2 0xF99 JUMP JUMPDEST PUSH2 0x1F1 PUSH2 0x682 CALLDATASIZE PUSH1 0x4 PUSH2 0x259A JUMP JUMPDEST PUSH2 0x100F JUMP JUMPDEST DUP1 PUSH1 0x1 PUSH1 0x1 PUSH1 0xA0 SHL SUB DUP2 AND EXTCODESIZE ISZERO ISZERO DUP1 PUSH2 0x6A7 JUMPI POP PUSH1 0x1 PUSH1 0x1 PUSH1 0xA0 SHL SUB DUP2 AND ISZERO JUMPDEST PUSH2 0x6CC JUMPI PUSH1 0x40 MLOAD PUSH3 0x461BCD PUSH1 0xE5 SHL DUP2 MSTORE PUSH1 0x4 ADD PUSH2 0x6C3 SWAP1 PUSH2 0x25F4 JUMP JUMPDEST PUSH1 0x40 MLOAD DUP1 SWAP2 SUB SWAP1 REVERT JUMPDEST PUSH2 0x6D4 PUSH2 0x118D JUMP JUMPDEST PUSH1 0x66 DUP1 SLOAD PUSH1 0x1 PUSH1 0x1 PUSH1 0xA0 SHL SUB NOT AND PUSH1 0x1 PUSH1 0x1 PUSH1 0xA0 SHL SUB DUP5 AND SWAP1 DUP2 OR SWAP1 SWAP2 SSTORE PUSH1 0x40 MLOAD SWAP1 DUP2 MSTORE PUSH32 0xC47CBCC588C67679E52261C45CC315E56562F8D0CCABA16FACB9093FF9498799 SWAP1 PUSH1 0x20 ADD JUMPDEST PUSH1 0x40 MLOAD DUP1 SWAP2 SUB SWAP1 LOG1 POP POP JUMP JUMPDEST PUSH1 0x0 PUSH1 0x1 PUSH1 0x1 PUSH1 0xA0 SHL SUB DUP6 AND PUSH2 0x773 JUMPI PUSH1 0x40 MLOAD PUSH3 0x461BCD PUSH1 0xE5 SHL DUP2 MSTORE PUSH1 0x20 PUSH1 0x4 DUP3 ADD MSTORE PUSH1 0xE PUSH1 0x24 DUP3 ADD MSTORE PUSH14 0x1D1BDAD95B881C995C5D5A5C9959 PUSH1 0x92 SHL PUSH1 0x44 DUP3 ADD MSTORE PUSH1 0x64 ADD PUSH2 0x6C3 JUMP JUMPDEST PUSH1 0x0 DUP5 GT PUSH2 0x7B5 JUMPI PUSH1 0x40 MLOAD PUSH3 0x461BCD PUSH1 0xE5 SHL DUP2 MSTORE PUSH1 0x20 PUSH1 0x4 DUP3 ADD MSTORE PUSH1 0xF PUSH1 0x24 DUP3 ADD MSTORE PUSH15 0x185B5BDD5B9D081C995C5D5A5C9959 PUSH1 0x8A SHL PUSH1 0x44 DUP3 ADD MSTORE PUSH1 0x64 ADD PUSH2 0x6C3 JUMP JUMPDEST PUSH2 0x7CA PUSH1 0x1 PUSH1 0x1 PUSH1 0xA0 SHL SUB DUP7 AND CALLER ADDRESS DUP8 PUSH2 0x11E7 JUMP JUMPDEST PUSH1 0x0 CALLER CHAINID NUMBER PUSH1 0xCA PUSH1 0x0 DUP2 SLOAD DUP1 SWAP3 SWAP2 SWAP1 PUSH2 0x7E2 SWAP1 PUSH2 0x2651 JUMP JUMPDEST SWAP2 SWAP1 POP SSTORE PUSH1 0x40 MLOAD PUSH1 0x20 ADD PUSH2 0x7F9 SWAP5 SWAP4 SWAP3 SWAP2 SWAP1 PUSH2 0x266A JUMP JUMPDEST PUSH1 0x40 DUP1 MLOAD PUSH1 0x1F NOT DUP2 DUP5 SUB ADD DUP2 MSTORE DUP3 DUP3 MSTORE DUP1 MLOAD PUSH1 0x20 SWAP2 DUP3 ADD KECCAK256 PUSH1 0xA0 DUP5 ADD DUP4 MSTORE CALLER DUP1 DUP6 MSTORE PUSH1 0x1 PUSH1 0x1 PUSH1 0xA0 SHL SUB DUP12 DUP2 AND DUP7 DUP6 ADD SWAP1 DUP2 MSTORE DUP7 DUP7 ADD DUP13 DUP2 MSTORE PUSH1 0x0 PUSH1 0x60 DUP10 ADD DUP2 DUP2 MSTORE PUSH1 0x80 DUP11 ADD DUP3 DUP2 MSTORE DUP8 DUP4 MSTORE PUSH1 0xCC SWAP1 SWAP9 MSTORE DUP9 DUP3 KECCAK256 SWAP10 MLOAD DUP11 SLOAD SWAP1 DUP7 AND PUSH1 0x1 PUSH1 0x1 PUSH1 0xA0 SHL SUB NOT SWAP2 DUP3 AND OR DUP12 SSTORE SWAP4 MLOAD PUSH1 0x1 DUP12 ADD DUP1 SLOAD SWAP2 SWAP1 SWAP7 AND SWAP5 AND SWAP4 SWAP1 SWAP4 OR SWAP1 SWAP4 SSTORE MLOAD PUSH1 0x2 DUP9 ADD SSTORE MLOAD PUSH1 0x3 SWAP1 SWAP7 ADD DUP1 SLOAD SWAP5 MLOAD ISZERO ISZERO PUSH2 0x100 MUL PUSH2 0xFF00 NOT SWAP8 ISZERO ISZERO SWAP8 SWAP1 SWAP8 AND PUSH2 0xFFFF NOT SWAP1 SWAP6 AND SWAP5 SWAP1 SWAP5 OR SWAP6 SWAP1 SWAP6 OR SWAP1 SWAP3 SSTORE SWAP2 MLOAD SWAP2 SWAP4 POP SWAP2 DUP4 SWAP2 PUSH1 0x0 DUP1 MLOAD PUSH1 0x20 PUSH2 0x28FB DUP4 CODECOPY DUP2 MLOAD SWAP2 MSTORE SWAP2 PUSH2 0x8D0 SWAP2 DUP12 SWAP2 DUP12 SWAP2 PUSH2 0x26A9 JUMP JUMPDEST PUSH1 0x40 MLOAD DUP1 SWAP2 SUB SWAP1 LOG3 PUSH2 0x8E4 DUP8 DUP3 DUP7 DUP7 PUSH2 0x1252 JUMP JUMPDEST SWAP8 SWAP7 POP POP POP POP POP POP POP JUMP JUMPDEST PUSH1 0x0 DUP1 PUSH2 0x906 PUSH1 0x97 PUSH4 0xFFFFFFFF DUP1 DUP7 AND SWAP1 PUSH2 0x1470 AND JUMP JUMPDEST SWAP5 SWAP4 POP POP POP POP JUMP JUMPDEST DUP1 PUSH1 0x1 PUSH1 0x1 PUSH1 0xA0 SHL SUB DUP2 AND EXTCODESIZE ISZERO ISZERO DUP1 PUSH2 0x92E JUMPI POP PUSH1 0x1 PUSH1 0x1 PUSH1 0xA0 SHL SUB DUP2 AND ISZERO JUMPDEST PUSH2 0x94A JUMPI PUSH1 0x40 MLOAD PUSH3 0x461BCD PUSH1 0xE5 SHL DUP2 MSTORE PUSH1 0x4 ADD PUSH2 0x6C3 SWAP1 PUSH2 0x25F4 JUMP JUMPDEST PUSH2 0x952 PUSH2 0x118D JUMP JUMPDEST PUSH1 0x65 DUP1 SLOAD PUSH1 0x1 PUSH1 0x1 PUSH1 0xA0 SHL SUB NOT AND PUSH1 0x1 PUSH1 0x1 PUSH1 0xA0 SHL SUB DUP5 AND SWAP1 DUP2 OR SWAP1 SWAP2 SSTORE PUSH1 0x40 MLOAD SWAP1 DUP2 MSTORE PUSH32 0x4EAB7B127C764308788622363AD3E9532DE3DFBA7845BD4F84C125A22544255A SWAP1 PUSH1 0x20 ADD PUSH2 0x71E JUMP JUMPDEST PUSH1 0x60 PUSH2 0x9AC PUSH1 0x97 PUSH2 0x1489 JUMP JUMPDEST SWAP1 POP SWAP1 JUMP JUMPDEST CALLER PUSH1 0x1 PUSH1 0x1 PUSH1 0xA0 SHL SUB PUSH32 0x0 AND EQ PUSH2 0xA33 JUMPI PUSH1 0x40 MLOAD PUSH3 0x461BCD PUSH1 0xE5 SHL DUP2 MSTORE PUSH1 0x20 PUSH1 0x4 DUP3 ADD MSTORE PUSH1 0x21 PUSH1 0x24 DUP3 ADD MSTORE PUSH32 0x4D61696C626F78436C69656E743A2073656E646572206E6F74206D61696C626F PUSH1 0x44 DUP3 ADD MSTORE PUSH1 0xF PUSH1 0xFB SHL PUSH1 0x64 DUP3 ADD MSTORE PUSH1 0x84 ADD PUSH2 0x6C3 JUMP JUMPDEST PUSH1 0x0 PUSH2 0xA3E DUP6 PUSH2 0x153A JUMP JUMPDEST SWAP1 POP DUP4 DUP2 EQ PUSH2 0xA9D JUMPI PUSH1 0x40 MLOAD PUSH3 0x461BCD PUSH1 0xE5 SHL DUP2 MSTORE PUSH1 0x20 PUSH1 0x4 DUP3 ADD MSTORE PUSH1 0x25 PUSH1 0x24 DUP3 ADD MSTORE PUSH32 0x456E726F6C6C656420726F7574657220646F6573206E6F74206D617463682073 PUSH1 0x44 DUP3 ADD MSTORE PUSH5 0x32B73232B9 PUSH1 0xD9 SHL PUSH1 0x64 DUP3 ADD MSTORE PUSH1 0x84 ADD PUSH2 0x6C3 JUMP JUMPDEST PUSH2 0xAA9 DUP6 DUP6 DUP6 DUP6 PUSH2 0x1585 JUMP JUMPDEST POP POP POP POP POP JUMP JUMPDEST PUSH1 0x0 PUSH1 0x1 PUSH1 0x1 PUSH1 0xA0 SHL SUB DUP4 AND PUSH2 0xAF9 JUMPI PUSH1 0x40 MLOAD PUSH3 0x461BCD PUSH1 0xE5 SHL DUP2 MSTORE PUSH1 0x20 PUSH1 0x4 DUP3 ADD MSTORE PUSH1 0xE PUSH1 0x24 DUP3 ADD MSTORE PUSH14 0x1D1BDAD95B881C995C5D5A5C9959 PUSH1 0x92 SHL PUSH1 0x44 DUP3 ADD MSTORE PUSH1 0x64 ADD PUSH2 0x6C3 JUMP JUMPDEST PUSH1 0x0 DUP3 GT PUSH2 0xB19 JUMPI PUSH1 0x40 MLOAD PUSH3 0x461BCD PUSH1 0xE5 SHL DUP2 MSTORE PUSH1 0x4 ADD PUSH2 0x6C3 SWAP1 PUSH2 0x26CC JUMP JUMPDEST PUSH2 0xB2E PUSH1 0x1 PUSH1 0x1 PUSH1 0xA0 SHL SUB DUP5 AND CALLER ADDRESS DUP6 PUSH2 0x11E7 JUMP JUMPDEST PUSH1 0xCA DUP1 SLOAD CALLER SWAP2 CHAINID SWAP2 NUMBER SWAP2 PUSH1 0x0 PUSH2 0xB43 DUP4 PUSH2 0x2651 JUMP JUMPDEST SWAP2 SWAP1 POP SSTORE PUSH1 0x40 MLOAD PUSH1 0x20 ADD PUSH2 0xB5A SWAP5 SWAP4 SWAP3 SWAP2 SWAP1 PUSH2 0x266A JUMP JUMPDEST PUSH1 0x40 DUP1 MLOAD PUSH1 0x1F NOT DUP2 DUP5 SUB ADD DUP2 MSTORE DUP3 DUP3 MSTORE DUP1 MLOAD PUSH1 0x20 SWAP2 DUP3 ADD KECCAK256 PUSH1 0xA0 DUP5 ADD DUP4 MSTORE CALLER DUP1 DUP6 MSTORE PUSH1 0x1 PUSH1 0x1 PUSH1 0xA0 SHL SUB DUP9 DUP2 AND DUP7 DUP6 ADD SWAP1 DUP2 MSTORE DUP7 DUP7 ADD DUP10 DUP2 MSTORE PUSH1 0x0 PUSH1 0x60 DUP10 ADD DUP2 DUP2 MSTORE PUSH1 0x80 DUP11 ADD DUP3 DUP2 MSTORE DUP8 DUP4 MSTORE PUSH1 0xCC SWAP1 SWAP9 MSTORE DUP9 DUP3 KECCAK256 SWAP10 MLOAD DUP11 SLOAD SWAP1 DUP7 AND PUSH1 0x1 PUSH1 0x1 PUSH1 0xA0 SHL SUB NOT SWAP2 DUP3 AND OR DUP12 SSTORE SWAP4 MLOAD PUSH1 0x1 DUP12 ADD DUP1 SLOAD SWAP2 SWAP1 SWAP7 AND SWAP5 AND SWAP4 SWAP1 SWAP4 OR SWAP1 SWAP4 SSTORE MLOAD PUSH1 0x2 DUP9 ADD SSTORE MLOAD PUSH1 0x3 SWAP1 SWAP7 ADD DUP1 SLOAD SWAP5 MLOAD ISZERO ISZERO PUSH2 0x100 MUL PUSH2 0xFF00 NOT SWAP8 ISZERO ISZERO SWAP8 SWAP1 SWAP8 AND PUSH2 0xFFFF NOT SWAP1 SWAP6 AND SWAP5 SWAP1 SWAP5 OR SWAP6 SWAP1 SWAP6 OR SWAP1 SWAP3 SSTORE SWAP2 MLOAD SWAP2 SWAP4 POP SWAP2 DUP4 SWAP2 PUSH1 0x0 DUP1 MLOAD PUSH1 0x20 PUSH2 0x28FB DUP4 CODECOPY DUP2 MLOAD SWAP2 MSTORE SWAP2 PUSH2 0xC31 SWAP2 DUP9 SWAP2 DUP9 SWAP2 PUSH2 0x26A9 JUMP JUMPDEST PUSH1 0x40 MLOAD DUP1 SWAP2 SUB SWAP1 LOG3 SWAP3 SWAP2 POP POP JUMP JUMPDEST PUSH2 0xC47 PUSH2 0x118D JUMP JUMPDEST PUSH2 0xC51 PUSH1 0x0 PUSH2 0x1993 JUMP JUMPDEST JUMP JUMPDEST PUSH2 0xC5B PUSH2 0x118D JUMP JUMPDEST DUP1 PUSH1 0x0 JUMPDEST DUP2 DUP2 LT ISZERO PUSH2 0xCA8 JUMPI PUSH2 0xC96 DUP5 DUP5 DUP4 DUP2 DUP2 LT PUSH2 0xC7C JUMPI PUSH2 0xC7C PUSH2 0x26F6 JUMP JUMPDEST SWAP1 POP PUSH1 0x20 MUL ADD PUSH1 0x20 DUP2 ADD SWAP1 PUSH2 0xC91 SWAP2 SWAP1 PUSH2 0x2330 JUMP JUMPDEST PUSH2 0x19E5 JUMP JUMPDEST PUSH2 0xCA1 PUSH1 0x1 DUP3 PUSH2 0x270C JUMP JUMPDEST SWAP1 POP PUSH2 0xC5F JUMP JUMPDEST POP POP POP POP JUMP JUMPDEST PUSH1 0x0 DUP4 DUP2 MSTORE PUSH1 0xCC PUSH1 0x20 MSTORE PUSH1 0x40 DUP2 KECCAK256 DUP1 SLOAD PUSH1 0x1 PUSH1 0x1 PUSH1 0xA0 SHL SUB AND CALLER EQ PUSH2 0xD08 JUMPI PUSH1 0x40 MLOAD PUSH3 0x461BCD PUSH1 0xE5 SHL DUP2 MSTORE PUSH1 0x20 PUSH1 0x4 DUP3 ADD MSTORE PUSH1 0x10 PUSH1 0x24 DUP3 ADD MSTORE PUSH16 0x1B9BDD081E5BDD5C8819195C1BDCDA5D PUSH1 0x82 SHL PUSH1 0x44 DUP3 ADD MSTORE PUSH1 0x64 ADD PUSH2 0x6C3 JUMP JUMPDEST PUSH1 0x3 DUP2 ADD SLOAD PUSH2 0x100 SWAP1 DIV PUSH1 0xFF AND ISZERO PUSH2 0xD59 JUMPI PUSH1 0x40 MLOAD PUSH3 0x461BCD PUSH1 0xE5 SHL DUP2 MSTORE PUSH1 0x20 PUSH1 0x4 DUP3 ADD MSTORE PUSH1 0x14 PUSH1 0x24 DUP3 ADD MSTORE PUSH20 0x19195C1BDCDA5D08185B1C9958591E481D5CD959 PUSH1 0x62 SHL PUSH1 0x44 DUP3 ADD MSTORE PUSH1 0x64 ADD PUSH2 0x6C3 JUMP JUMPDEST PUSH1 0x0 DUP2 PUSH1 0x2 ADD SLOAD GT PUSH2 0xD7D JUMPI PUSH1 0x40 MLOAD PUSH3 0x461BCD PUSH1 0xE5 SHL DUP2 MSTORE PUSH1 0x4 ADD PUSH2 0x6C3 SWAP1 PUSH2 0x26CC JUMP JUMPDEST PUSH2 0xD89 DUP7 DUP7 DUP7 DUP7 PUSH2 0x1252 JUMP JUMPDEST SWAP7 SWAP6 POP POP POP POP POP POP JUMP JUMPDEST PUSH2 0xD9B PUSH2 0x118D JUMP JUMPDEST PUSH2 0xDA5 DUP3 DUP3 PUSH2 0x1A20 JUMP JUMPDEST POP POP JUMP JUMPDEST PUSH1 0x0 DUP1 CALLVALUE GT PUSH2 0xDCA JUMPI PUSH1 0x40 MLOAD PUSH3 0x461BCD PUSH1 0xE5 SHL DUP2 MSTORE PUSH1 0x4 ADD PUSH2 0x6C3 SWAP1 PUSH2 0x26CC JUMP JUMPDEST PUSH1 0xCA DUP1 SLOAD CALLER SWAP2 CHAINID SWAP2 NUMBER SWAP2 PUSH1 0x0 PUSH2 0xDDF DUP4 PUSH2 0x2651 JUMP JUMPDEST SWAP2 SWAP1 POP SSTORE PUSH1 0x40 MLOAD PUSH1 0x20 ADD PUSH2 0xDF6 SWAP5 SWAP4 SWAP3 SWAP2 SWAP1 PUSH2 0x266A JUMP JUMPDEST PUSH1 0x40 DUP1 MLOAD DUP1 DUP4 SUB PUSH1 0x1F NOT ADD DUP2 MSTORE DUP3 DUP3 MSTORE DUP1 MLOAD PUSH1 0x20 SWAP2 DUP3 ADD KECCAK256 PUSH1 0xA0 DUP5 ADD DUP4 MSTORE CALLER DUP1 DUP6 MSTORE PUSH1 0x0 DUP4 DUP7 ADD DUP2 DUP2 MSTORE CALLVALUE DUP8 DUP8 ADD DUP2 DUP2 MSTORE PUSH1 0x1 PUSH1 0x60 DUP11 ADD DUP2 DUP2 MSTORE PUSH1 0x80 DUP12 ADD DUP7 DUP2 MSTORE DUP9 DUP8 MSTORE PUSH1 0xCC SWAP1 SWAP10 MSTORE DUP10 DUP7 KECCAK256 SWAP11 MLOAD DUP12 SLOAD PUSH1 0x1 PUSH1 0x1 PUSH1 0xA0 SHL SUB NOT SWAP1 DUP2 AND PUSH1 0x1 PUSH1 0x1 PUSH1 0xA0 SHL SUB SWAP3 DUP4 AND OR DUP14 SSTORE SWAP6 MLOAD DUP13 DUP5 ADD DUP1 SLOAD SWAP1 SWAP8 AND SWAP2 AND OR SWAP1 SWAP5 SSTORE SWAP1 MLOAD PUSH1 0x2 DUP11 ADD SSTORE SWAP2 MLOAD PUSH1 0x3 SWAP1 SWAP9 ADD DUP1 SLOAD SWAP7 MLOAD PUSH2 0xFFFF NOT SWAP1 SWAP8 AND SWAP9 ISZERO ISZERO PUSH2 0xFF00 NOT AND SWAP9 SWAP1 SWAP9 OR PUSH2 0x100 SWAP7 ISZERO ISZERO SWAP7 SWAP1 SWAP7 MUL SWAP6 SWAP1 SWAP6 OR SWAP1 SWAP7 SSTORE SWAP4 MLOAD SWAP2 SWAP6 POP SWAP4 DUP6 SWAP4 PUSH1 0x0 DUP1 MLOAD PUSH1 0x20 PUSH2 0x28FB DUP4 CODECOPY DUP2 MLOAD SWAP2 MSTORE SWAP4 PUSH2 0xECB SWAP4 SWAP2 SWAP3 SWAP1 SWAP2 PUSH2 0x26A9 JUMP JUMPDEST PUSH1 0x40 MLOAD DUP1 SWAP2 SUB SWAP1 LOG3 SWAP1 JUMP JUMPDEST PUSH2 0xEDE PUSH2 0x118D JUMP JUMPDEST DUP3 DUP2 EQ PUSH2 0xF17 JUMPI PUSH1 0x40 MLOAD PUSH3 0x461BCD PUSH1 0xE5 SHL DUP2 MSTORE PUSH1 0x20 PUSH1 0x4 DUP3 ADD MSTORE PUSH1 0x7 PUSH1 0x24 DUP3 ADD MSTORE PUSH7 0x42D8CADCCEE8D PUSH1 0xCB SHL PUSH1 0x44 DUP3 ADD MSTORE PUSH1 0x64 ADD PUSH2 0x6C3 JUMP JUMPDEST DUP3 PUSH1 0x0 JUMPDEST DUP2 DUP2 LT ISZERO PUSH2 0xF7D JUMPI PUSH2 0xF6B DUP7 DUP7 DUP4 DUP2 DUP2 LT PUSH2 0xF38 JUMPI PUSH2 0xF38 PUSH2 0x26F6 JUMP JUMPDEST SWAP1 POP PUSH1 0x20 MUL ADD PUSH1 0x20 DUP2 ADD SWAP1 PUSH2 0xF4D SWAP2 SWAP1 PUSH2 0x2330 JUMP JUMPDEST DUP6 DUP6 DUP5 DUP2 DUP2 LT PUSH2 0xF5F JUMPI PUSH2 0xF5F PUSH2 0x26F6 JUMP JUMPDEST SWAP1 POP PUSH1 0x20 MUL ADD CALLDATALOAD PUSH2 0x1A20 JUMP JUMPDEST PUSH2 0xF76 PUSH1 0x1 DUP3 PUSH2 0x270C JUMP JUMPDEST SWAP1 POP PUSH2 0xF1B JUMP JUMPDEST POP POP POP POP POP POP JUMP JUMPDEST PUSH2 0xF8D PUSH2 0x118D JUMP JUMPDEST PUSH2 0xF96 DUP2 PUSH2 0x19E5 JUMP JUMPDEST POP JUMP JUMPDEST PUSH2 0xFA1 PUSH2 0x118D JUMP JUMPDEST PUSH1 0x1 PUSH1 0x1 PUSH1 0xA0 SHL SUB DUP2 AND PUSH2 0x1006 JUMPI PUSH1 0x40 MLOAD PUSH3 0x461BCD PUSH1 0xE5 SHL DUP2 MSTORE PUSH1 0x20 PUSH1 0x4 DUP3 ADD MSTORE PUSH1 0x26 PUSH1 0x24 DUP3 ADD MSTORE PUSH32 0x4F776E61626C653A206E6577206F776E657220697320746865207A65726F2061 PUSH1 0x44 DUP3 ADD MSTORE PUSH6 0x646472657373 PUSH1 0xD0 SHL PUSH1 0x64 DUP3 ADD MSTORE PUSH1 0x84 ADD PUSH2 0x6C3 JUMP JUMPDEST PUSH2 0xF96 DUP2 PUSH2 0x1993 JUMP JUMPDEST PUSH1 0x0 DUP1 DUP3 GT PUSH2 0x1030 JUMPI PUSH1 0x40 MLOAD PUSH3 0x461BCD PUSH1 0xE5 SHL DUP2 MSTORE PUSH1 0x4 ADD PUSH2 0x6C3 SWAP1 PUSH2 0x26CC JUMP JUMPDEST DUP2 CALLVALUE LT ISZERO PUSH2 0x1075 JUMPI PUSH1 0x40 MLOAD PUSH3 0x461BCD PUSH1 0xE5 SHL DUP2 MSTORE PUSH1 0x20 PUSH1 0x4 DUP3 ADD MSTORE PUSH1 0x12 PUSH1 0x24 DUP3 ADD MSTORE PUSH18 0x696E73756666696369656E742076616C7565 PUSH1 0x70 SHL PUSH1 0x44 DUP3 ADD MSTORE PUSH1 0x64 ADD PUSH2 0x6C3 JUMP JUMPDEST PUSH1 0x0 CALLER CHAINID NUMBER PUSH1 0xCA PUSH1 0x0 DUP2 SLOAD DUP1 SWAP3 SWAP2 SWAP1 PUSH2 0x108D SWAP1 PUSH2 0x2651 JUMP JUMPDEST SWAP2 SWAP1 POP SSTORE PUSH1 0x40 MLOAD PUSH1 0x20 ADD PUSH2 0x10A4 SWAP5 SWAP4 SWAP3 SWAP2 SWAP1 PUSH2 0x266A JUMP JUMPDEST PUSH1 0x40 DUP1 MLOAD DUP1 DUP4 SUB PUSH1 0x1F NOT ADD DUP2 MSTORE DUP3 DUP3 MSTORE DUP1 MLOAD PUSH1 0x20 SWAP2 DUP3 ADD KECCAK256 PUSH1 0xA0 DUP5 ADD DUP4 MSTORE CALLER DUP1 DUP6 MSTORE PUSH1 0x0 DUP4 DUP7 ADD DUP2 DUP2 MSTORE DUP7 DUP7 ADD DUP11 DUP2 MSTORE PUSH1 0x1 PUSH1 0x60 DUP10 ADD DUP2 DUP2 MSTORE PUSH1 0x80 DUP11 ADD DUP6 DUP2 MSTORE DUP8 DUP7 MSTORE PUSH1 0xCC SWAP1 SWAP9 MSTORE DUP9 DUP6 KECCAK256 SWAP10 MLOAD DUP11 SLOAD PUSH1 0x1 PUSH1 0x1 PUSH1 0xA0 SHL SUB NOT SWAP1 DUP2 AND PUSH1 0x1 PUSH1 0x1 PUSH1 0xA0 SHL SUB SWAP3 DUP4 AND OR DUP13 SSTORE SWAP5 MLOAD DUP12 DUP5 ADD DUP1 SLOAD SWAP1 SWAP7 AND SWAP2 AND OR SWAP1 SWAP4 SSTORE SWAP1 MLOAD PUSH1 0x2 DUP10 ADD SSTORE SWAP1 MLOAD PUSH1 0x3 SWAP1 SWAP8 ADD DUP1 SLOAD SWAP6 MLOAD PUSH2 0xFFFF NOT SWAP1 SWAP7 AND SWAP8 ISZERO ISZERO PUSH2 0xFF00 NOT AND SWAP8 SWAP1 SWAP8 OR PUSH2 0x100 SWAP6 ISZERO ISZERO SWAP6 SWAP1 SWAP6 MUL SWAP5 SWAP1 SWAP5 OR SWAP1 SWAP6 SSTORE SWAP3 MLOAD SWAP1 SWAP5 POP SWAP2 SWAP3 DUP5 SWAP3 PUSH1 0x0 DUP1 MLOAD PUSH1 0x20 PUSH2 0x28FB DUP4 CODECOPY DUP2 MLOAD SWAP2 MSTORE SWAP3 PUSH2 0x1179 SWAP3 SWAP2 DUP10 SWAP2 SWAP1 PUSH2 0x26A9 JUMP JUMPDEST PUSH1 0x40 MLOAD DUP1 SWAP2 SUB SWAP1 LOG3 PUSH2 0xD89 DUP7 DUP3 DUP8 DUP8 PUSH2 0x1252 JUMP JUMPDEST PUSH1 0x33 SLOAD PUSH1 0x1 PUSH1 0x1 PUSH1 0xA0 SHL SUB AND CALLER EQ PUSH2 0xC51 JUMPI PUSH1 0x40 MLOAD PUSH3 0x461BCD PUSH1 0xE5 SHL DUP2 MSTORE PUSH1 0x20 PUSH1 0x4 DUP3 ADD DUP2 SWAP1 MSTORE PUSH1 0x24 DUP3 ADD MSTORE PUSH32 0x4F776E61626C653A2063616C6C6572206973206E6F7420746865206F776E6572 PUSH1 0x44 DUP3 ADD MSTORE PUSH1 0x64 ADD PUSH2 0x6C3 JUMP JUMPDEST PUSH1 0x40 MLOAD PUSH1 0x1 PUSH1 0x1 PUSH1 0xA0 SHL SUB DUP1 DUP6 AND PUSH1 0x24 DUP4 ADD MSTORE DUP4 AND PUSH1 0x44 DUP3 ADD MSTORE PUSH1 0x64 DUP2 ADD DUP3 SWAP1 MSTORE PUSH2 0xCA8 SWAP1 DUP6 SWAP1 PUSH4 0x23B872DD PUSH1 0xE0 SHL SWAP1 PUSH1 0x84 ADD JUMPDEST PUSH1 0x40 DUP1 MLOAD PUSH1 0x1F NOT DUP2 DUP5 SUB ADD DUP2 MSTORE SWAP2 SWAP1 MSTORE PUSH1 0x20 DUP2 ADD DUP1 MLOAD PUSH1 0x1 PUSH1 0x1 PUSH1 0xE0 SHL SUB AND PUSH1 0x1 PUSH1 0x1 PUSH1 0xE0 SHL SUB NOT SWAP1 SWAP4 AND SWAP3 SWAP1 SWAP3 OR SWAP1 SWAP2 MSTORE PUSH2 0x1A36 JUMP JUMPDEST PUSH1 0x0 DUP2 PUSH2 0x1297 JUMPI PUSH1 0x40 MLOAD PUSH3 0x461BCD PUSH1 0xE5 SHL DUP2 MSTORE PUSH1 0x20 PUSH1 0x4 DUP3 ADD MSTORE PUSH1 0x13 PUSH1 0x24 DUP3 ADD MSTORE PUSH19 0x18DA5C1A195C9D195E1D081C995C5D5A5C9959 PUSH1 0x6A SHL PUSH1 0x44 DUP3 ADD MSTORE PUSH1 0x64 ADD PUSH2 0x6C3 JUMP JUMPDEST DUP5 PUSH4 0xFFFFFFFF AND PUSH1 0x0 SUB PUSH2 0x12DF JUMPI PUSH1 0x40 MLOAD PUSH3 0x461BCD PUSH1 0xE5 SHL DUP2 MSTORE PUSH1 0x20 PUSH1 0x4 DUP3 ADD MSTORE PUSH1 0xF PUSH1 0x24 DUP3 ADD MSTORE PUSH15 0x191BDB585A5B881C995C5D5A5C9959 PUSH1 0x8A SHL PUSH1 0x44 DUP3 ADD MSTORE PUSH1 0x64 ADD PUSH2 0x6C3 JUMP JUMPDEST PUSH1 0xCA DUP1 SLOAD CALLER SWAP2 CHAINID SWAP2 NUMBER SWAP2 PUSH1 0x0 PUSH2 0x12F4 DUP4 PUSH2 0x2651 JUMP JUMPDEST SWAP1 SWAP2 SSTORE POP PUSH1 0x40 MLOAD PUSH1 0x60 SWAP5 SWAP1 SWAP5 SHL PUSH12 0xFFFFFFFFFFFFFFFFFFFFFFFF NOT AND PUSH1 0x20 DUP6 ADD MSTORE PUSH1 0x34 DUP5 ADD SWAP3 SWAP1 SWAP3 MSTORE PUSH1 0x54 DUP4 ADD MSTORE PUSH1 0x74 DUP3 ADD MSTORE PUSH1 0x94 ADD PUSH1 0x40 DUP1 MLOAD PUSH1 0x1F NOT DUP2 DUP5 SUB ADD DUP2 MSTORE DUP3 DUP3 MSTORE DUP1 MLOAD PUSH1 0x20 SWAP2 DUP3 ADD KECCAK256 PUSH1 0x80 DUP5 ADD DUP4 MSTORE CALLER DUP5 MSTORE PUSH4 0xFFFFFFFF DUP1 DUP11 AND DUP6 DUP5 ADD SWAP1 DUP2 MSTORE TIMESTAMP DUP7 DUP7 ADD SWAP1 DUP2 MSTORE PUSH1 0x0 PUSH1 0x60 DUP9 ADD DUP2 DUP2 MSTORE DUP6 DUP3 MSTORE PUSH1 0xCB DUP8 MSTORE DUP8 DUP3 KECCAK256 SWAP9 MLOAD DUP10 SLOAD SWAP5 MLOAD SWAP1 SWAP6 AND PUSH1 0x1 PUSH1 0xA0 SHL MUL PUSH1 0x1 PUSH1 0x1 PUSH1 0xC0 SHL SUB NOT SWAP1 SWAP5 AND PUSH1 0x1 PUSH1 0x1 PUSH1 0xA0 SHL SUB SWAP6 SWAP1 SWAP6 AND SWAP5 SWAP1 SWAP5 OR SWAP3 SWAP1 SWAP3 OR DUP8 SSTORE MLOAD PUSH1 0x1 DUP8 ADD SSTORE SWAP1 MLOAD PUSH1 0x2 SWAP1 SWAP6 ADD DUP1 SLOAD SWAP6 ISZERO ISZERO PUSH1 0xFF NOT SWAP1 SWAP7 AND SWAP6 SWAP1 SWAP6 OR SWAP1 SWAP5 SSTORE PUSH1 0xCF SWAP1 SWAP2 MSTORE DUP2 DUP4 KECCAK256 DUP8 SWAP1 SSTORE SWAP1 MLOAD SWAP1 SWAP3 POP PUSH2 0x13E0 SWAP1 DUP6 SWAP1 DUP6 SWAP1 PUSH2 0x271F JUMP JUMPDEST PUSH1 0x40 DUP1 MLOAD SWAP2 DUP3 SWAP1 SUB DUP3 KECCAK256 PUSH1 0x0 DUP6 DUP2 MSTORE PUSH1 0xCD PUSH1 0x20 SWAP1 DUP2 MSTORE DUP4 DUP3 KECCAK256 DUP4 SWAP1 SSTORE DUP3 DUP3 MSTORE PUSH1 0xCE DUP2 MSTORE SWAP3 DUP2 KECCAK256 DUP7 SWAP1 SSTORE SWAP1 SWAP4 POP SWAP2 PUSH2 0x141D SWAP2 DUP6 SWAP2 DUP9 SWAP2 DUP9 SWAP2 ADD PUSH2 0x272F JUMP JUMPDEST PUSH1 0x40 MLOAD PUSH1 0x20 DUP2 DUP4 SUB SUB DUP2 MSTORE SWAP1 PUSH1 0x40 MSTORE SWAP1 POP PUSH2 0x143A DUP8 PUSH1 0x0 DUP4 PUSH2 0x1B10 JUMP JUMPDEST POP PUSH1 0x40 MLOAD DUP3 SWAP1 PUSH32 0x6CD98EAB69B8F00793AC851F5499CDFD160F8D8DEF737DEF816196CAAE41501 SWAP1 PUSH1 0x0 SWAP1 LOG2 POP POP SWAP5 SWAP4 POP POP POP POP JUMP JUMPDEST PUSH1 0x0 DUP1 PUSH2 0x147D DUP5 DUP5 PUSH2 0x1B43 JUMP JUMPDEST SWAP2 POP SWAP2 POP JUMPDEST SWAP3 POP SWAP3 SWAP1 POP JUMP JUMPDEST PUSH1 0x60 PUSH1 0x0 PUSH2 0x1496 DUP4 PUSH2 0x1B7D JUMP JUMPDEST SWAP1 POP DUP1 MLOAD PUSH8 0xFFFFFFFFFFFFFFFF DUP2 GT ISZERO PUSH2 0x14B2 JUMPI PUSH2 0x14B2 PUSH2 0x2765 JUMP JUMPDEST PUSH1 0x40 MLOAD SWAP1 DUP1 DUP3 MSTORE DUP1 PUSH1 0x20 MUL PUSH1 0x20 ADD DUP3 ADD PUSH1 0x40 MSTORE DUP1 ISZERO PUSH2 0x14DB JUMPI DUP2 PUSH1 0x20 ADD PUSH1 0x20 DUP3 MUL DUP1 CALLDATASIZE DUP4 CALLDATACOPY ADD SWAP1 POP JUMPDEST POP SWAP2 POP PUSH1 0x0 JUMPDEST DUP2 MLOAD DUP2 LT ISZERO PUSH2 0x1533 JUMPI DUP2 DUP2 DUP2 MLOAD DUP2 LT PUSH2 0x14FC JUMPI PUSH2 0x14FC PUSH2 0x26F6 JUMP JUMPDEST PUSH1 0x20 MUL PUSH1 0x20 ADD ADD MLOAD DUP4 DUP3 DUP2 MLOAD DUP2 LT PUSH2 0x1516 JUMPI PUSH2 0x1516 PUSH2 0x26F6 JUMP JUMPDEST PUSH4 0xFFFFFFFF SWAP1 SWAP3 AND PUSH1 0x20 SWAP3 DUP4 MUL SWAP2 SWAP1 SWAP2 ADD SWAP1 SWAP2 ADD MSTORE PUSH1 0x1 ADD PUSH2 0x14E1 JUMP JUMPDEST POP POP SWAP2 SWAP1 POP JUMP JUMPDEST PUSH1 0x0 DUP1 DUP1 PUSH2 0x1552 PUSH1 0x97 PUSH4 0xFFFFFFFF DUP1 DUP8 AND SWAP1 PUSH2 0x1470 AND JUMP JUMPDEST SWAP2 POP SWAP2 POP DUP2 ISZERO PUSH2 0x1563 JUMPI SWAP4 SWAP3 POP POP POP JUMP JUMPDEST PUSH2 0x156C DUP5 PUSH2 0x1C0E JUMP JUMPDEST PUSH1 0x40 MLOAD PUSH3 0x461BCD PUSH1 0xE5 SHL DUP2 MSTORE PUSH1 0x4 ADD PUSH2 0x6C3 SWAP2 SWAP1 PUSH2 0x250B JUMP JUMPDEST PUSH1 0x0 DUP1 DUP1 DUP1 DUP1 PUSH2 0x1597 DUP7 DUP9 ADD DUP9 PUSH2 0x2789 JUMP JUMPDEST PUSH1 0x0 DUP6 DUP2 MSTORE PUSH1 0xCB PUSH1 0x20 MSTORE PUSH1 0x40 SWAP1 KECCAK256 DUP1 SLOAD SWAP6 SWAP11 POP SWAP4 SWAP9 POP SWAP2 SWAP7 POP SWAP5 POP SWAP3 POP SWAP1 PUSH1 0x1 PUSH1 0x1 PUSH1 0xA0 SHL SUB AND PUSH2 0x15FD JUMPI PUSH1 0x40 MLOAD PUSH3 0x461BCD PUSH1 0xE5 SHL DUP2 MSTORE PUSH1 0x20 PUSH1 0x4 DUP3 ADD MSTORE PUSH1 0x10 PUSH1 0x24 DUP3 ADD MSTORE PUSH16 0x7472616E73666572206D697373696E67 PUSH1 0x80 SHL PUSH1 0x44 DUP3 ADD MSTORE PUSH1 0x64 ADD PUSH2 0x6C3 JUMP JUMPDEST DUP1 SLOAD PUSH4 0xFFFFFFFF DUP12 DUP2 AND PUSH1 0x1 PUSH1 0xA0 SHL SWAP1 SWAP3 DIV AND EQ PUSH2 0x1651 JUMPI PUSH1 0x40 MLOAD PUSH3 0x461BCD PUSH1 0xE5 SHL DUP2 MSTORE PUSH1 0x20 PUSH1 0x4 DUP3 ADD MSTORE PUSH1 0x11 PUSH1 0x24 DUP3 ADD MSTORE PUSH17 0x3AB732BC3832B1BA32B21037B934B3B4B7 PUSH1 0x79 SHL PUSH1 0x44 DUP3 ADD MSTORE PUSH1 0x64 ADD PUSH2 0x6C3 JUMP JUMPDEST PUSH1 0x2 DUP2 ADD SLOAD PUSH1 0xFF AND ISZERO PUSH2 0x169D JUMPI PUSH1 0x40 MLOAD PUSH3 0x461BCD PUSH1 0xE5 SHL DUP2 MSTORE PUSH1 0x20 PUSH1 0x4 DUP3 ADD MSTORE PUSH1 0x14 PUSH1 0x24 DUP3 ADD MSTORE PUSH20 0x185B1C9958591E481858DADB9BDDDB195919D959 PUSH1 0x62 SHL PUSH1 0x44 DUP3 ADD MSTORE PUSH1 0x64 ADD PUSH2 0x6C3 JUMP JUMPDEST PUSH1 0x0 DUP7 DUP2 MSTORE PUSH1 0xCF PUSH1 0x20 SWAP1 DUP2 MSTORE PUSH1 0x40 DUP1 DUP4 KECCAK256 SLOAD DUP1 DUP5 MSTORE PUSH1 0xCC SWAP1 SWAP3 MSTORE SWAP1 SWAP2 KECCAK256 PUSH1 0x3 DUP2 ADD SLOAD PUSH2 0x100 SWAP1 DIV PUSH1 0xFF AND ISZERO PUSH2 0x1707 JUMPI PUSH1 0x40 MLOAD PUSH3 0x461BCD PUSH1 0xE5 SHL DUP2 MSTORE PUSH1 0x20 PUSH1 0x4 DUP3 ADD MSTORE PUSH1 0x10 PUSH1 0x24 DUP3 ADD MSTORE PUSH16 0x185B1C9958591E481C995B19585CD959 PUSH1 0x82 SHL PUSH1 0x44 DUP3 ADD MSTORE PUSH1 0x64 ADD PUSH2 0x6C3 JUMP JUMPDEST DUP5 DUP2 PUSH1 0x2 ADD SLOAD LT ISZERO PUSH2 0x1752 JUMPI PUSH1 0x40 MLOAD PUSH3 0x461BCD PUSH1 0xE5 SHL DUP2 MSTORE PUSH1 0x20 PUSH1 0x4 DUP3 ADD MSTORE PUSH1 0x14 PUSH1 0x24 DUP3 ADD MSTORE PUSH20 0x1A5B9CDD59999A58DA595B9D0819195C1BDCDA5D PUSH1 0x62 SHL PUSH1 0x44 DUP3 ADD MSTORE PUSH1 0x64 ADD PUSH2 0x6C3 JUMP JUMPDEST PUSH1 0x3 DUP2 ADD SLOAD PUSH1 0xFF AND ISZERO ISZERO DUP5 ISZERO ISZERO EQ PUSH2 0x179C JUMPI PUSH1 0x40 MLOAD PUSH3 0x461BCD PUSH1 0xE5 SHL DUP2 MSTORE PUSH1 0x20 PUSH1 0x4 DUP3 ADD MSTORE PUSH1 0xD PUSH1 0x24 DUP3 ADD MSTORE PUSH13 0xE8F2E0CA40DAD2E6DAC2E8C6D PUSH1 0x9B SHL PUSH1 0x44 DUP3 ADD MSTORE PUSH1 0x64 ADD PUSH2 0x6C3 JUMP JUMPDEST PUSH1 0x3 DUP2 ADD SLOAD PUSH1 0xFF AND DUP1 PUSH2 0x17BE JUMPI POP PUSH1 0x1 DUP2 ADD SLOAD PUSH1 0x1 PUSH1 0x1 PUSH1 0xA0 SHL SUB DUP8 DUP2 AND SWAP2 AND EQ JUMPDEST PUSH2 0x17FB JUMPI PUSH1 0x40 MLOAD PUSH3 0x461BCD PUSH1 0xE5 SHL DUP2 MSTORE PUSH1 0x20 PUSH1 0x4 DUP3 ADD MSTORE PUSH1 0xE PUSH1 0x24 DUP3 ADD MSTORE PUSH14 0xE8DED6CADC40DAD2E6DAC2E8C6D PUSH1 0x93 SHL PUSH1 0x44 DUP3 ADD MSTORE PUSH1 0x64 ADD PUSH2 0x6C3 JUMP JUMPDEST PUSH1 0x2 DUP1 DUP5 ADD DUP1 SLOAD PUSH1 0xFF NOT AND PUSH1 0x1 OR SWAP1 SSTORE DUP2 ADD SLOAD PUSH1 0x0 SWAP1 PUSH2 0x181C SWAP1 DUP8 SWAP1 PUSH2 0x27E8 JUMP JUMPDEST PUSH1 0x2 DUP4 ADD DUP2 SWAP1 SSTORE SWAP1 POP PUSH1 0x0 DUP2 SWAP1 SUB PUSH2 0x1840 JUMPI PUSH1 0x3 DUP3 ADD DUP1 SLOAD PUSH2 0xFF00 NOT AND PUSH2 0x100 OR SWAP1 SSTORE JUMPDEST DUP5 ISZERO PUSH2 0x18E8 JUMPI PUSH1 0x0 DUP9 PUSH1 0x1 PUSH1 0x1 PUSH1 0xA0 SHL SUB AND DUP8 PUSH1 0x40 MLOAD PUSH1 0x0 PUSH1 0x40 MLOAD DUP1 DUP4 SUB DUP2 DUP6 DUP8 GAS CALL SWAP3 POP POP POP RETURNDATASIZE DUP1 PUSH1 0x0 DUP2 EQ PUSH2 0x1893 JUMPI PUSH1 0x40 MLOAD SWAP2 POP PUSH1 0x1F NOT PUSH1 0x3F RETURNDATASIZE ADD AND DUP3 ADD PUSH1 0x40 MSTORE RETURNDATASIZE DUP3 MSTORE RETURNDATASIZE PUSH1 0x0 PUSH1 0x20 DUP5 ADD RETURNDATACOPY PUSH2 0x1898 JUMP JUMPDEST PUSH1 0x60 SWAP2 POP JUMPDEST POP POP SWAP1 POP DUP1 PUSH2 0x18E2 JUMPI PUSH1 0x40 MLOAD PUSH3 0x461BCD PUSH1 0xE5 SHL DUP2 MSTORE PUSH1 0x20 PUSH1 0x4 DUP3 ADD MSTORE PUSH1 0x16 PUSH1 0x24 DUP3 ADD MSTORE PUSH22 0x1B985D1A5D99481D1C985B9CD9995C8819985A5B1959 PUSH1 0x52 SHL PUSH1 0x44 DUP3 ADD MSTORE PUSH1 0x64 ADD PUSH2 0x6C3 JUMP JUMPDEST POP PUSH2 0x18FC JUMP JUMPDEST PUSH2 0x18FC PUSH1 0x1 PUSH1 0x1 PUSH1 0xA0 SHL SUB DUP9 AND DUP10 DUP9 PUSH2 0x1C45 JUMP JUMPDEST PUSH1 0x0 DUP10 DUP2 MSTORE PUSH1 0xCD PUSH1 0x20 MSTORE PUSH1 0x40 SWAP1 KECCAK256 SLOAD DUP1 PUSH2 0x1958 JUMPI PUSH1 0x40 MLOAD PUSH3 0x461BCD PUSH1 0xE5 SHL DUP2 MSTORE PUSH1 0x20 PUSH1 0x4 DUP3 ADD MSTORE PUSH1 0x17 PUSH1 0x24 DUP3 ADD MSTORE PUSH32 0x636970686572746578742068617368206D697373696E67000000000000000000 PUSH1 0x44 DUP3 ADD MSTORE PUSH1 0x64 ADD PUSH2 0x6C3 JUMP JUMPDEST PUSH1 0x40 MLOAD DUP2 SWAP1 PUSH32 0x86E8C53228331EAF9374793F2281D65CFC6D018A447302FC5F41D8BD8415C5B4 SWAP1 PUSH1 0x0 SWAP1 LOG2 POP POP POP POP POP POP POP POP POP POP POP POP POP POP JUMP JUMPDEST PUSH1 0x33 DUP1 SLOAD PUSH1 0x1 PUSH1 0x1 PUSH1 0xA0 SHL SUB DUP4 DUP2 AND PUSH1 0x1 PUSH1 0x1 PUSH1 0xA0 SHL SUB NOT DUP4 AND DUP2 OR SWAP1 SWAP4 SSTORE PUSH1 0x40 MLOAD SWAP2 AND SWAP2 SWAP1 DUP3 SWAP1 PUSH32 0x8BE0079C531659141344CD1FD0A4F28419497F9722A3DAAFE3B4186F6B6457E0 SWAP1 PUSH1 0x0 SWAP1 LOG3 POP POP JUMP JUMPDEST PUSH2 0x19F9 PUSH1 0x97 PUSH4 0xFFFFFFFF DUP1 DUP5 AND SWAP1 PUSH2 0x1C75 AND JUMP JUMPDEST PUSH2 0x1A02 DUP3 PUSH2 0x1C0E JUMP JUMPDEST SWAP1 PUSH2 0xDA5 JUMPI PUSH1 0x40 MLOAD PUSH3 0x461BCD PUSH1 0xE5 SHL DUP2 MSTORE PUSH1 0x4 ADD PUSH2 0x6C3 SWAP2 SWAP1 PUSH2 0x250B JUMP JUMPDEST PUSH2 0xDA5 PUSH1 0x97 PUSH4 0xFFFFFFFF DUP1 DUP6 AND SWAP1 DUP5 SWAP1 PUSH2 0x1C8A AND JUMP JUMPDEST PUSH1 0x0 PUSH2 0x1A8B DUP3 PUSH1 0x40 MLOAD DUP1 PUSH1 0x40 ADD PUSH1 0x40 MSTORE DUP1 PUSH1 0x20 DUP2 MSTORE PUSH1 0x20 ADD PUSH32 0x5361666545524332303A206C6F772D6C6576656C2063616C6C206661696C6564 DUP2 MSTORE POP DUP6 PUSH1 0x1 PUSH1 0x1 PUSH1 0xA0 SHL SUB AND PUSH2 0x1C95 SWAP1 SWAP3 SWAP2 SWAP1 PUSH4 0xFFFFFFFF AND JUMP JUMPDEST SWAP1 POP DUP1 MLOAD PUSH1 0x0 EQ DUP1 PUSH2 0x1AAC JUMPI POP DUP1 DUP1 PUSH1 0x20 ADD SWAP1 MLOAD DUP2 ADD SWAP1 PUSH2 0x1AAC SWAP2 SWAP1 PUSH2 0x27FB JUMP JUMPDEST PUSH2 0x1B0B JUMPI PUSH1 0x40 MLOAD PUSH3 0x461BCD PUSH1 0xE5 SHL DUP2 MSTORE PUSH1 0x20 PUSH1 0x4 DUP3 ADD MSTORE PUSH1 0x2A PUSH1 0x24 DUP3 ADD MSTORE PUSH32 0x5361666545524332303A204552433230206F7065726174696F6E20646964206E PUSH1 0x44 DUP3 ADD MSTORE PUSH10 0x1BDD081CDD58D8D95959 PUSH1 0xB2 SHL PUSH1 0x64 DUP3 ADD MSTORE PUSH1 0x84 ADD PUSH2 0x6C3 JUMP JUMPDEST POP POP POP JUMP JUMPDEST PUSH1 0x0 PUSH2 0x906 DUP5 DUP5 DUP5 PUSH1 0x40 MLOAD DUP1 PUSH1 0x20 ADD PUSH1 0x40 MSTORE DUP1 PUSH1 0x0 DUP2 MSTORE POP PUSH1 0x65 PUSH1 0x0 SWAP1 SLOAD SWAP1 PUSH2 0x100 EXP SWAP1 DIV PUSH1 0x1 PUSH1 0x1 PUSH1 0xA0 SHL SUB AND PUSH2 0x1CA4 JUMP JUMPDEST PUSH1 0x0 DUP2 DUP2 MSTORE PUSH1 0x2 DUP4 ADD PUSH1 0x20 MSTORE PUSH1 0x40 DUP2 KECCAK256 SLOAD DUP2 SWAP1 DUP1 PUSH2 0x1B72 JUMPI PUSH2 0x1B65 DUP6 DUP6 PUSH2 0x1D4A JUMP JUMPDEST SWAP3 POP PUSH1 0x0 SWAP2 POP PUSH2 0x1482 SWAP1 POP JUMP JUMPDEST PUSH1 0x1 SWAP3 POP SWAP1 POP PUSH2 0x1482 JUMP JUMPDEST PUSH1 0x60 PUSH1 0x0 PUSH2 0x1B8A DUP4 PUSH2 0x1D56 JUMP JUMPDEST SWAP1 POP DUP1 PUSH8 0xFFFFFFFFFFFFFFFF DUP2 GT ISZERO PUSH2 0x1BA5 JUMPI PUSH2 0x1BA5 PUSH2 0x2765 JUMP JUMPDEST PUSH1 0x40 MLOAD SWAP1 DUP1 DUP3 MSTORE DUP1 PUSH1 0x20 MUL PUSH1 0x20 ADD DUP3 ADD PUSH1 0x40 MSTORE DUP1 ISZERO PUSH2 0x1BCE JUMPI DUP2 PUSH1 0x20 ADD PUSH1 0x20 DUP3 MUL DUP1 CALLDATASIZE DUP4 CALLDATACOPY ADD SWAP1 POP JUMPDEST POP SWAP2 POP PUSH1 0x0 JUMPDEST DUP2 DUP2 LT ISZERO PUSH2 0x1533 JUMPI PUSH2 0x1BE6 DUP5 DUP3 PUSH2 0x1D61 JUMP JUMPDEST PUSH1 0x0 SHR DUP4 DUP3 DUP2 MLOAD DUP2 LT PUSH2 0x1BFB JUMPI PUSH2 0x1BFB PUSH2 0x26F6 JUMP JUMPDEST PUSH1 0x20 SWAP1 DUP2 MUL SWAP2 SWAP1 SWAP2 ADD ADD MSTORE PUSH1 0x1 ADD PUSH2 0x1BD4 JUMP JUMPDEST PUSH1 0x60 PUSH2 0x1C1F DUP3 PUSH4 0xFFFFFFFF AND PUSH2 0x1D6D JUMP JUMPDEST PUSH1 0x40 MLOAD PUSH1 0x20 ADD PUSH2 0x1C2F SWAP2 SWAP1 PUSH2 0x2818 JUMP JUMPDEST PUSH1 0x40 MLOAD PUSH1 0x20 DUP2 DUP4 SUB SUB DUP2 MSTORE SWAP1 PUSH1 0x40 MSTORE SWAP1 POP SWAP2 SWAP1 POP JUMP JUMPDEST PUSH1 0x40 MLOAD PUSH1 0x1 PUSH1 0x1 PUSH1 0xA0 SHL SUB DUP4 AND PUSH1 0x24 DUP3 ADD MSTORE PUSH1 0x44 DUP2 ADD DUP3 SWAP1 MSTORE PUSH2 0x1B0B SWAP1 DUP5 SWAP1 PUSH4 0xA9059CBB PUSH1 0xE0 SHL SWAP1 PUSH1 0x64 ADD PUSH2 0x121B JUMP JUMPDEST PUSH1 0x0 PUSH2 0x1C81 DUP4 DUP4 PUSH2 0x1E00 JUMP JUMPDEST SWAP1 POP JUMPDEST SWAP3 SWAP2 POP POP JUMP JUMPDEST PUSH2 0xCA8 DUP4 DUP4 DUP4 PUSH2 0x1E1D JUMP JUMPDEST PUSH1 0x60 PUSH2 0x906 DUP5 DUP5 PUSH1 0x0 DUP6 PUSH2 0x1E3A JUMP JUMPDEST PUSH1 0x0 DUP1 PUSH2 0x1CB0 DUP8 PUSH2 0x153A JUMP JUMPDEST SWAP1 POP PUSH32 0x0 PUSH1 0x1 PUSH1 0x1 PUSH1 0xA0 SHL SUB AND PUSH4 0x10B83DC0 DUP8 DUP10 DUP5 DUP10 DUP10 DUP10 PUSH1 0x40 MLOAD DUP8 PUSH4 0xFFFFFFFF AND PUSH1 0xE0 SHL DUP2 MSTORE PUSH1 0x4 ADD PUSH2 0x1D07 SWAP6 SWAP5 SWAP4 SWAP3 SWAP2 SWAP1 PUSH2 0x285D JUMP JUMPDEST PUSH1 0x20 PUSH1 0x40 MLOAD DUP1 DUP4 SUB DUP2 DUP6 DUP9 GAS CALL ISZERO DUP1 ISZERO PUSH2 0x1D25 JUMPI RETURNDATASIZE PUSH1 0x0 DUP1 RETURNDATACOPY RETURNDATASIZE PUSH1 0x0 REVERT JUMPDEST POP POP POP POP POP PUSH1 0x40 MLOAD RETURNDATASIZE PUSH1 0x1F NOT PUSH1 0x1F DUP3 ADD AND DUP3 ADD DUP1 PUSH1 0x40 MSTORE POP DUP2 ADD SWAP1 PUSH2 0x8E4 SWAP2 SWAP1 PUSH2 0x28AF JUMP JUMPDEST PUSH1 0x0 PUSH2 0x1C81 DUP4 DUP4 PUSH2 0x1F0A JUMP JUMPDEST PUSH1 0x0 PUSH2 0x1C84 DUP3 PUSH2 0x1F22 JUMP JUMPDEST PUSH1 0x0 PUSH2 0x1C81 DUP4 DUP4 PUSH2 0x1F2C JUMP JUMPDEST PUSH1 0x60 PUSH1 0x0 PUSH2 0x1D7A DUP4 PUSH2 0x1F56 JUMP JUMPDEST PUSH1 0x1 ADD SWAP1 POP PUSH1 0x0 DUP2 PUSH8 0xFFFFFFFFFFFFFFFF DUP2 GT ISZERO PUSH2 0x1D9A JUMPI PUSH2 0x1D9A PUSH2 0x2765 JUMP JUMPDEST PUSH1 0x40 MLOAD SWAP1 DUP1 DUP3 MSTORE DUP1 PUSH1 0x1F ADD PUSH1 0x1F NOT AND PUSH1 0x20 ADD DUP3 ADD PUSH1 0x40 MSTORE DUP1 ISZERO PUSH2 0x1DC4 JUMPI PUSH1 0x20 DUP3 ADD DUP2 DUP1 CALLDATASIZE DUP4 CALLDATACOPY ADD SWAP1 POP JUMPDEST POP SWAP1 POP DUP2 DUP2 ADD PUSH1 0x20 ADD JUMPDEST PUSH1 0x0 NOT ADD PUSH16 0x181899199A1A9B1B9C1CB0B131B232B3 PUSH1 0x81 SHL PUSH1 0xA DUP7 MOD BYTE DUP2 MSTORE8 PUSH1 0xA DUP6 DIV SWAP5 POP DUP5 PUSH2 0x1DCE JUMPI POP SWAP4 SWAP3 POP POP POP JUMP JUMPDEST PUSH1 0x0 DUP2 DUP2 MSTORE PUSH1 0x2 DUP4 ADD PUSH1 0x20 MSTORE PUSH1 0x40 DUP2 KECCAK256 DUP2 SWAP1 SSTORE PUSH2 0x1C81 DUP4 DUP4 PUSH2 0x202E JUMP JUMPDEST PUSH1 0x0 DUP3 DUP2 MSTORE PUSH1 0x2 DUP5 ADD PUSH1 0x20 MSTORE PUSH1 0x40 DUP2 KECCAK256 DUP3 SWAP1 SSTORE PUSH2 0x906 DUP5 DUP5 PUSH2 0x203A JUMP JUMPDEST PUSH1 0x60 DUP3 SELFBALANCE LT ISZERO PUSH2 0x1E9B JUMPI PUSH1 0x40 MLOAD PUSH3 0x461BCD PUSH1 0xE5 SHL DUP2 MSTORE PUSH1 0x20 PUSH1 0x4 DUP3 ADD MSTORE PUSH1 0x26 PUSH1 0x24 DUP3 ADD MSTORE PUSH32 0x416464726573733A20696E73756666696369656E742062616C616E636520666F PUSH1 0x44 DUP3 ADD MSTORE PUSH6 0x1C8818D85B1B PUSH1 0xD2 SHL PUSH1 0x64 DUP3 ADD MSTORE PUSH1 0x84 ADD PUSH2 0x6C3 JUMP JUMPDEST PUSH1 0x0 DUP1 DUP7 PUSH1 0x1 PUSH1 0x1 PUSH1 0xA0 SHL SUB AND DUP6 DUP8 PUSH1 0x40 MLOAD PUSH2 0x1EB7 SWAP2 SWAP1 PUSH2 0x28C8 JUMP JUMPDEST PUSH1 0x0 PUSH1 0x40 MLOAD DUP1 DUP4 SUB DUP2 DUP6 DUP8 GAS CALL SWAP3 POP POP POP RETURNDATASIZE DUP1 PUSH1 0x0 DUP2 EQ PUSH2 0x1EF4 JUMPI PUSH1 0x40 MLOAD SWAP2 POP PUSH1 0x1F NOT PUSH1 0x3F RETURNDATASIZE ADD AND DUP3 ADD PUSH1 0x40 MSTORE RETURNDATASIZE DUP3 MSTORE RETURNDATASIZE PUSH1 0x0 PUSH1 0x20 DUP5 ADD RETURNDATACOPY PUSH2 0x1EF9 JUMP JUMPDEST PUSH1 0x60 SWAP2 POP JUMPDEST POP SWAP2 POP SWAP2 POP PUSH2 0x8E4 DUP8 DUP4 DUP4 DUP8 PUSH2 0x2046 JUMP JUMPDEST PUSH1 0x0 DUP2 DUP2 MSTORE PUSH1 0x1 DUP4 ADD PUSH1 0x20 MSTORE PUSH1 0x40 DUP2 KECCAK256 SLOAD ISZERO ISZERO PUSH2 0x1C81 JUMP JUMPDEST PUSH1 0x0 PUSH2 0x1C84 DUP3 SLOAD SWAP1 JUMP JUMPDEST PUSH1 0x0 DUP3 PUSH1 0x0 ADD DUP3 DUP2 SLOAD DUP2 LT PUSH2 0x1F43 JUMPI PUSH2 0x1F43 PUSH2 0x26F6 JUMP JUMPDEST SWAP1 PUSH1 0x0 MSTORE PUSH1 0x20 PUSH1 0x0 KECCAK256 ADD SLOAD SWAP1 POP SWAP3 SWAP2 POP POP JUMP JUMPDEST PUSH1 0x0 DUP1 PUSH19 0x184F03E93FF9F4DAA797ED6E38ED64BF6A1F01 PUSH1 0x40 SHL DUP4 LT PUSH2 0x1F95 JUMPI PUSH19 0x184F03E93FF9F4DAA797ED6E38ED64BF6A1F01 PUSH1 0x40 SHL DUP4 DIV SWAP3 POP PUSH1 0x40 ADD JUMPDEST PUSH14 0x4EE2D6D415B85ACEF8100000000 DUP4 LT PUSH2 0x1FC1 JUMPI PUSH14 0x4EE2D6D415B85ACEF8100000000 DUP4 DIV SWAP3 POP PUSH1 0x20 ADD JUMPDEST PUSH7 0x2386F26FC10000 DUP4 LT PUSH2 0x1FDF JUMPI PUSH7 0x2386F26FC10000 DUP4 DIV SWAP3 POP PUSH1 0x10 ADD JUMPDEST PUSH4 0x5F5E100 DUP4 LT PUSH2 0x1FF7 JUMPI PUSH4 0x5F5E100 DUP4 DIV SWAP3 POP PUSH1 0x8 ADD JUMPDEST PUSH2 0x2710 DUP4 LT PUSH2 0x200B JUMPI PUSH2 0x2710 DUP4 DIV SWAP3 POP PUSH1 0x4 ADD JUMPDEST PUSH1 0x64 DUP4 LT PUSH2 0x201D JUMPI PUSH1 0x64 DUP4 DIV SWAP3 POP PUSH1 0x2 ADD JUMPDEST PUSH1 0xA DUP4 LT PUSH2 0x1C84 JUMPI PUSH1 0x1 ADD SWAP3 SWAP2 POP POP JUMP JUMPDEST PUSH1 0x0 PUSH2 0x1C81 DUP4 DUP4 PUSH2 0x20BF JUMP JUMPDEST PUSH1 0x0 PUSH2 0x1C81 DUP4 DUP4 PUSH2 0x21B2 JUMP JUMPDEST PUSH1 0x60 DUP4 ISZERO PUSH2 0x20B5 JUMPI DUP3 MLOAD PUSH1 0x0 SUB PUSH2 0x20AE JUMPI PUSH1 0x1 PUSH1 0x1 PUSH1 0xA0 SHL SUB DUP6 AND EXTCODESIZE PUSH2 0x20AE JUMPI PUSH1 0x40 MLOAD PUSH3 0x461BCD PUSH1 0xE5 SHL DUP2 MSTORE PUSH1 0x20 PUSH1 0x4 DUP3 ADD MSTORE PUSH1 0x1D PUSH1 0x24 DUP3 ADD MSTORE PUSH32 0x416464726573733A2063616C6C20746F206E6F6E2D636F6E7472616374000000 PUSH1 0x44 DUP3 ADD MSTORE PUSH1 0x64 ADD PUSH2 0x6C3 JUMP JUMPDEST POP DUP2 PUSH2 0x906 JUMP JUMPDEST PUSH2 0x906 DUP4 DUP4 PUSH2 0x2201 JUMP JUMPDEST PUSH1 0x0 DUP2 DUP2 MSTORE PUSH1 0x1 DUP4 ADD PUSH1 0x20 MSTORE PUSH1 0x40 DUP2 KECCAK256 SLOAD DUP1 ISZERO PUSH2 0x21A8 JUMPI PUSH1 0x0 PUSH2 0x20E3 PUSH1 0x1 DUP4 PUSH2 0x27E8 JUMP JUMPDEST DUP6 SLOAD SWAP1 SWAP2 POP PUSH1 0x0 SWAP1 PUSH2 0x20F7 SWAP1 PUSH1 0x1 SWAP1 PUSH2 0x27E8 JUMP JUMPDEST SWAP1 POP DUP2 DUP2 EQ PUSH2 0x215C JUMPI PUSH1 0x0 DUP7 PUSH1 0x0 ADD DUP3 DUP2 SLOAD DUP2 LT PUSH2 0x2117 JUMPI PUSH2 0x2117 PUSH2 0x26F6 JUMP JUMPDEST SWAP1 PUSH1 0x0 MSTORE PUSH1 0x20 PUSH1 0x0 KECCAK256 ADD SLOAD SWAP1 POP DUP1 DUP8 PUSH1 0x0 ADD DUP5 DUP2 SLOAD DUP2 LT PUSH2 0x213A JUMPI PUSH2 0x213A PUSH2 0x26F6 JUMP JUMPDEST PUSH1 0x0 SWAP2 DUP3 MSTORE PUSH1 0x20 DUP1 DUP4 KECCAK256 SWAP1 SWAP2 ADD SWAP3 SWAP1 SWAP3 SSTORE SWAP2 DUP3 MSTORE PUSH1 0x1 DUP9 ADD SWAP1 MSTORE PUSH1 0x40 SWAP1 KECCAK256 DUP4 SWAP1 SSTORE JUMPDEST DUP6 SLOAD DUP7 SWAP1 DUP1 PUSH2 0x216D JUMPI PUSH2 0x216D PUSH2 0x28E4 JUMP JUMPDEST PUSH1 0x1 SWAP1 SUB DUP2 DUP2 SWAP1 PUSH1 0x0 MSTORE PUSH1 0x20 PUSH1 0x0 KECCAK256 ADD PUSH1 0x0 SWAP1 SSTORE SWAP1 SSTORE DUP6 PUSH1 0x1 ADD PUSH1 0x0 DUP7 DUP2 MSTORE PUSH1 0x20 ADD SWAP1 DUP2 MSTORE PUSH1 0x20 ADD PUSH1 0x0 KECCAK256 PUSH1 0x0 SWAP1 SSTORE PUSH1 0x1 SWAP4 POP POP POP POP PUSH2 0x1C84 JUMP JUMPDEST PUSH1 0x0 SWAP2 POP POP PUSH2 0x1C84 JUMP JUMPDEST PUSH1 0x0 DUP2 DUP2 MSTORE PUSH1 0x1 DUP4 ADD PUSH1 0x20 MSTORE PUSH1 0x40 DUP2 KECCAK256 SLOAD PUSH2 0x21F9 JUMPI POP DUP2 SLOAD PUSH1 0x1 DUP2 DUP2 ADD DUP5 SSTORE PUSH1 0x0 DUP5 DUP2 MSTORE PUSH1 0x20 DUP1 DUP3 KECCAK256 SWAP1 SWAP4 ADD DUP5 SWAP1 SSTORE DUP5 SLOAD DUP5 DUP3 MSTORE DUP3 DUP7 ADD SWAP1 SWAP4 MSTORE PUSH1 0x40 SWAP1 KECCAK256 SWAP2 SWAP1 SWAP2 SSTORE PUSH2 0x1C84 JUMP JUMPDEST POP PUSH1 0x0 PUSH2 0x1C84 JUMP JUMPDEST DUP2 MLOAD ISZERO PUSH2 0x2211 JUMPI DUP2 MLOAD DUP1 DUP4 PUSH1 0x20 ADD REVERT JUMPDEST DUP1 PUSH1 0x40 MLOAD PUSH3 0x461BCD PUSH1 0xE5 SHL DUP2 MSTORE PUSH1 0x4 ADD PUSH2 0x6C3 SWAP2 SWAP1 PUSH2 0x250B JUMP JUMPDEST PUSH1 0x1 PUSH1 0x1 PUSH1 0xA0 SHL SUB DUP2 AND DUP2 EQ PUSH2 0xF96 JUMPI PUSH1 0x0 DUP1 REVERT JUMPDEST PUSH1 0x0 PUSH1 0x20 DUP3 DUP5 SUB SLT ISZERO PUSH2 0x2252 JUMPI PUSH1 0x0 DUP1 REVERT JUMPDEST DUP2 CALLDATALOAD PUSH2 0x225D DUP2 PUSH2 0x222B JUMP JUMPDEST SWAP4 SWAP3 POP POP POP JUMP JUMPDEST DUP1 CALLDATALOAD PUSH4 0xFFFFFFFF DUP2 AND DUP2 EQ PUSH2 0x2278 JUMPI PUSH1 0x0 DUP1 REVERT JUMPDEST SWAP2 SWAP1 POP JUMP JUMPDEST PUSH1 0x0 DUP1 DUP4 PUSH1 0x1F DUP5 ADD SLT PUSH2 0x228F JUMPI PUSH1 0x0 DUP1 REVERT JUMPDEST POP DUP2 CALLDATALOAD PUSH8 0xFFFFFFFFFFFFFFFF DUP2 GT ISZERO PUSH2 0x22A7 JUMPI PUSH1 0x0 DUP1 REVERT JUMPDEST PUSH1 0x20 DUP4 ADD SWAP2 POP DUP4 PUSH1 0x20 DUP3 DUP6 ADD ADD GT ISZERO PUSH2 0x1482 JUMPI PUSH1 0x0 DUP1 REVERT JUMPDEST PUSH1 0x0 DUP1 PUSH1 0x0 DUP1 PUSH1 0x0 PUSH1 0x80 DUP7 DUP9 SUB SLT ISZERO PUSH2 0x22D7 JUMPI PUSH1 0x0 DUP1 REVERT JUMPDEST PUSH2 0x22E0 DUP7 PUSH2 0x2264 JUMP JUMPDEST SWAP5 POP PUSH1 0x20 DUP7 ADD CALLDATALOAD PUSH2 0x22F0 DUP2 PUSH2 0x222B JUMP JUMPDEST SWAP4 POP PUSH1 0x40 DUP7 ADD CALLDATALOAD SWAP3 POP PUSH1 0x60 DUP7 ADD CALLDATALOAD PUSH8 0xFFFFFFFFFFFFFFFF DUP2 GT ISZERO PUSH2 0x2313 JUMPI PUSH1 0x0 DUP1 REVERT JUMPDEST PUSH2 0x231F DUP9 DUP3 DUP10 ADD PUSH2 0x227D JUMP JUMPDEST SWAP7 SWAP10 SWAP6 SWAP9 POP SWAP4 SWAP7 POP SWAP3 SWAP5 SWAP4 SWAP3 POP POP POP JUMP JUMPDEST PUSH1 0x0 PUSH1 0x20 DUP3 DUP5 SUB SLT ISZERO PUSH2 0x2342 JUMPI PUSH1 0x0 DUP1 REVERT JUMPDEST PUSH2 0x1C81 DUP3 PUSH2 0x2264 JUMP JUMPDEST PUSH1 0x0 PUSH1 0x20 DUP3 DUP5 SUB SLT ISZERO PUSH2 0x235D JUMPI PUSH1 0x0 DUP1 REVERT JUMPDEST POP CALLDATALOAD SWAP2 SWAP1 POP JUMP JUMPDEST PUSH1 0x20 DUP1 DUP3 MSTORE DUP3 MLOAD DUP3 DUP3 ADD DUP2 SWAP1 MSTORE PUSH1 0x0 SWAP2 SWAP1 DUP5 DUP3 ADD SWAP1 PUSH1 0x40 DUP6 ADD SWAP1 DUP5 JUMPDEST DUP2 DUP2 LT ISZERO PUSH2 0x23A2 JUMPI DUP4 MLOAD PUSH4 0xFFFFFFFF AND DUP4 MSTORE SWAP3 DUP5 ADD SWAP3 SWAP2 DUP5 ADD SWAP2 PUSH1 0x1 ADD PUSH2 0x2380 JUMP JUMPDEST POP SWAP1 SWAP7 SWAP6 POP POP POP POP POP POP JUMP JUMPDEST PUSH1 0x0 DUP1 PUSH1 0x0 DUP1 PUSH1 0x60 DUP6 DUP8 SUB SLT ISZERO PUSH2 0x23C4 JUMPI PUSH1 0x0 DUP1 REVERT JUMPDEST PUSH2 0x23CD DUP6 PUSH2 0x2264 JUMP JUMPDEST SWAP4 POP PUSH1 0x20 DUP6 ADD CALLDATALOAD SWAP3 POP PUSH1 0x40 DUP6 ADD CALLDATALOAD PUSH8 0xFFFFFFFFFFFFFFFF DUP2 GT ISZERO PUSH2 0x23F0 JUMPI PUSH1 0x0 DUP1 REVERT JUMPDEST PUSH2 0x23FC DUP8 DUP3 DUP9 ADD PUSH2 0x227D JUMP JUMPDEST SWAP6 SWAP9 SWAP5 SWAP8 POP SWAP6 POP POP POP POP JUMP JUMPDEST PUSH1 0x0 DUP1 PUSH1 0x40 DUP4 DUP6 SUB SLT ISZERO PUSH2 0x241B JUMPI PUSH1 0x0 DUP1 REVERT JUMPDEST DUP3 CALLDATALOAD PUSH2 0x2426 DUP2 PUSH2 0x222B JUMP JUMPDEST SWAP5 PUSH1 0x20 SWAP4 SWAP1 SWAP4 ADD CALLDATALOAD SWAP4 POP POP POP JUMP JUMPDEST PUSH1 0x0 DUP1 DUP4 PUSH1 0x1F DUP5 ADD SLT PUSH2 0x2446 JUMPI PUSH1 0x0 DUP1 REVERT JUMPDEST POP DUP2 CALLDATALOAD PUSH8 0xFFFFFFFFFFFFFFFF DUP2 GT ISZERO PUSH2 0x245E JUMPI PUSH1 0x0 DUP1 REVERT JUMPDEST PUSH1 0x20 DUP4 ADD SWAP2 POP DUP4 PUSH1 0x20 DUP3 PUSH1 0x5 SHL DUP6 ADD ADD GT ISZERO PUSH2 0x1482 JUMPI PUSH1 0x0 DUP1 REVERT JUMPDEST PUSH1 0x0 DUP1 PUSH1 0x20 DUP4 DUP6 SUB SLT ISZERO PUSH2 0x248C JUMPI PUSH1 0x0 DUP1 REVERT JUMPDEST DUP3 CALLDATALOAD PUSH8 0xFFFFFFFFFFFFFFFF DUP2 GT ISZERO PUSH2 0x24A3 JUMPI PUSH1 0x0 DUP1 REVERT JUMPDEST PUSH2 0x24AF DUP6 DUP3 DUP7 ADD PUSH2 0x2434 JUMP JUMPDEST SWAP1 SWAP7 SWAP1 SWAP6 POP SWAP4 POP POP POP POP JUMP JUMPDEST PUSH1 0x0 JUMPDEST DUP4 DUP2 LT ISZERO PUSH2 0x24D6 JUMPI DUP2 DUP2 ADD MLOAD DUP4 DUP3 ADD MSTORE PUSH1 0x20 ADD PUSH2 0x24BE JUMP JUMPDEST POP POP PUSH1 0x0 SWAP2 ADD MSTORE JUMP JUMPDEST PUSH1 0x0 DUP2 MLOAD DUP1 DUP5 MSTORE PUSH2 0x24F7 DUP2 PUSH1 0x20 DUP7 ADD PUSH1 0x20 DUP7 ADD PUSH2 0x24BB JUMP JUMPDEST PUSH1 0x1F ADD PUSH1 0x1F NOT AND SWAP3 SWAP1 SWAP3 ADD PUSH1 0x20 ADD SWAP3 SWAP2 POP POP JUMP JUMPDEST PUSH1 0x20 DUP2 MSTORE PUSH1 0x0 PUSH2 0x1C81 PUSH1 0x20 DUP4 ADD DUP5 PUSH2 0x24DF JUMP JUMPDEST PUSH1 0x0 DUP1 PUSH1 0x40 DUP4 DUP6 SUB SLT ISZERO PUSH2 0x2531 JUMPI PUSH1 0x0 DUP1 REVERT JUMPDEST PUSH2 0x2426 DUP4 PUSH2 0x2264 JUMP JUMPDEST PUSH1 0x0 DUP1 PUSH1 0x0 DUP1 PUSH1 0x40 DUP6 DUP8 SUB SLT ISZERO PUSH2 0x2550 JUMPI PUSH1 0x0 DUP1 REVERT JUMPDEST DUP5 CALLDATALOAD PUSH8 0xFFFFFFFFFFFFFFFF DUP1 DUP3 GT ISZERO PUSH2 0x2568 JUMPI PUSH1 0x0 DUP1 REVERT JUMPDEST PUSH2 0x2574 DUP9 DUP4 DUP10 ADD PUSH2 0x2434 JUMP JUMPDEST SWAP1 SWAP7 POP SWAP5 POP PUSH1 0x20 DUP8 ADD CALLDATALOAD SWAP2 POP DUP1 DUP3 GT ISZERO PUSH2 0x258D JUMPI PUSH1 0x0 DUP1 REVERT JUMPDEST POP PUSH2 0x23FC DUP8 DUP3 DUP9 ADD PUSH2 0x2434 JUMP JUMPDEST PUSH1 0x0 DUP1 PUSH1 0x0 DUP1 PUSH1 0x60 DUP6 DUP8 SUB SLT ISZERO PUSH2 0x25B0 JUMPI PUSH1 0x0 DUP1 REVERT JUMPDEST PUSH2 0x25B9 DUP6 PUSH2 0x2264 JUMP JUMPDEST SWAP4 POP PUSH1 0x20 DUP6 ADD CALLDATALOAD PUSH8 0xFFFFFFFFFFFFFFFF DUP2 GT ISZERO PUSH2 0x25D5 JUMPI PUSH1 0x0 DUP1 REVERT JUMPDEST PUSH2 0x25E1 DUP8 DUP3 DUP9 ADD PUSH2 0x227D JUMP JUMPDEST SWAP6 SWAP9 SWAP1 SWAP8 POP SWAP5 SWAP6 PUSH1 0x40 ADD CALLDATALOAD SWAP5 SWAP4 POP POP POP POP JUMP JUMPDEST PUSH1 0x20 DUP1 DUP3 MSTORE PUSH1 0x27 SWAP1 DUP3 ADD MSTORE PUSH32 0x4D61696C626F78436C69656E743A20696E76616C696420636F6E747261637420 PUSH1 0x40 DUP3 ADD MSTORE PUSH7 0x73657474696E67 PUSH1 0xC8 SHL PUSH1 0x60 DUP3 ADD MSTORE PUSH1 0x80 ADD SWAP1 JUMP JUMPDEST PUSH4 0x4E487B71 PUSH1 0xE0 SHL PUSH1 0x0 MSTORE PUSH1 0x11 PUSH1 0x4 MSTORE PUSH1 0x24 PUSH1 0x0 REVERT JUMPDEST PUSH1 0x0 PUSH1 0x1 DUP3 ADD PUSH2 0x2663 JUMPI PUSH2 0x2663 PUSH2 0x263B JUMP JUMPDEST POP PUSH1 0x1 ADD SWAP1 JUMP JUMPDEST PUSH1 0x60 SWAP5 SWAP1 SWAP5 SHL PUSH12 0xFFFFFFFFFFFFFFFFFFFFFFFF NOT AND DUP5 MSTORE PUSH1 0x14 DUP5 ADD SWAP3 SWAP1 SWAP3 MSTORE PUSH1 0x34 DUP4 ADD MSTORE PUSH1 0x54 DUP3 ADD MSTORE PUSH7 0x19195C1BDCDA5D PUSH1 0xCA SHL PUSH1 0x74 DUP3 ADD MSTORE PUSH1 0x7B ADD SWAP1 JUMP JUMPDEST PUSH1 0x1 PUSH1 0x1 PUSH1 0xA0 SHL SUB SWAP4 SWAP1 SWAP4 AND DUP4 MSTORE PUSH1 0x20 DUP4 ADD SWAP2 SWAP1 SWAP2 MSTORE ISZERO ISZERO PUSH1 0x40 DUP3 ADD MSTORE PUSH1 0x60 ADD SWAP1 JUMP JUMPDEST PUSH1 0x20 DUP1 DUP3 MSTORE PUSH1 0x10 SWAP1 DUP3 ADD MSTORE PUSH16 0x19195C1BDCDA5D081C995C5D5A5C9959 PUSH1 0x82 SHL PUSH1 0x40 DUP3 ADD MSTORE PUSH1 0x60 ADD SWAP1 JUMP JUMPDEST PUSH4 0x4E487B71 PUSH1 0xE0 SHL PUSH1 0x0 MSTORE PUSH1 0x32 PUSH1 0x4 MSTORE PUSH1 0x24 PUSH1 0x0 REVERT JUMPDEST DUP1 DUP3 ADD DUP1 DUP3 GT ISZERO PUSH2 0x1C84 JUMPI PUSH2 0x1C84 PUSH2 0x263B JUMP JUMPDEST DUP2 DUP4 DUP3 CALLDATACOPY PUSH1 0x0 SWAP2 ADD SWAP1 DUP2 MSTORE SWAP2 SWAP1 POP JUMP JUMPDEST DUP4 DUP2 MSTORE PUSH1 0x40 PUSH1 0x20 DUP3 ADD MSTORE DUP2 PUSH1 0x40 DUP3 ADD MSTORE DUP2 DUP4 PUSH1 0x60 DUP4 ADD CALLDATACOPY PUSH1 0x0 DUP2 DUP4 ADD PUSH1 0x60 SWAP1 DUP2 ADD SWAP2 SWAP1 SWAP2 MSTORE PUSH1 0x1F SWAP1 SWAP3 ADD PUSH1 0x1F NOT AND ADD ADD SWAP3 SWAP2 POP POP JUMP JUMPDEST PUSH4 0x4E487B71 PUSH1 0xE0 SHL PUSH1 0x0 MSTORE PUSH1 0x41 PUSH1 0x4 MSTORE PUSH1 0x24 PUSH1 0x0 REVERT JUMPDEST DUP1 ISZERO ISZERO DUP2 EQ PUSH2 0xF96 JUMPI PUSH1 0x0 DUP1 REVERT JUMPDEST PUSH1 0x0 DUP1 PUSH1 0x0 DUP1 PUSH1 0x0 PUSH1 0xA0 DUP7 DUP9 SUB SLT ISZERO PUSH2 0x27A1 JUMPI PUSH1 0x0 DUP1 REVERT JUMPDEST DUP6 CALLDATALOAD SWAP5 POP PUSH1 0x20 DUP7 ADD CALLDATALOAD PUSH2 0x27B3 DUP2 PUSH2 0x222B JUMP JUMPDEST SWAP4 POP PUSH1 0x40 DUP7 ADD CALLDATALOAD PUSH2 0x27C3 DUP2 PUSH2 0x222B JUMP JUMPDEST SWAP3 POP PUSH1 0x60 DUP7 ADD CALLDATALOAD SWAP2 POP PUSH1 0x80 DUP7 ADD CALLDATALOAD PUSH2 0x27DA DUP2 PUSH2 0x277B JUMP JUMPDEST DUP1 SWAP2 POP POP SWAP3 SWAP6 POP SWAP3 SWAP6 SWAP1 SWAP4 POP JUMP JUMPDEST DUP2 DUP2 SUB DUP2 DUP2 GT ISZERO PUSH2 0x1C84 JUMPI PUSH2 0x1C84 PUSH2 0x263B JUMP JUMPDEST PUSH1 0x0 PUSH1 0x20 DUP3 DUP5 SUB SLT ISZERO PUSH2 0x280D JUMPI PUSH1 0x0 DUP1 REVERT JUMPDEST DUP2 MLOAD PUSH2 0x225D DUP2 PUSH2 0x277B JUMP JUMPDEST PUSH32 0x4E6F20726F7574657220656E726F6C6C656420666F7220646F6D61696E3A2000 DUP2 MSTORE PUSH1 0x0 DUP3 MLOAD PUSH2 0x2850 DUP2 PUSH1 0x1F DUP6 ADD PUSH1 0x20 DUP8 ADD PUSH2 0x24BB JUMP JUMPDEST SWAP2 SWAP1 SWAP2 ADD PUSH1 0x1F ADD SWAP3 SWAP2 POP POP JUMP JUMPDEST PUSH4 0xFFFFFFFF DUP7 AND DUP2 MSTORE DUP5 PUSH1 0x20 DUP3 ADD MSTORE PUSH1 0xA0 PUSH1 0x40 DUP3 ADD MSTORE PUSH1 0x0 PUSH2 0x2882 PUSH1 0xA0 DUP4 ADD DUP7 PUSH2 0x24DF JUMP JUMPDEST DUP3 DUP2 SUB PUSH1 0x60 DUP5 ADD MSTORE PUSH2 0x2894 DUP2 DUP7 PUSH2 0x24DF JUMP JUMPDEST SWAP2 POP POP PUSH1 0x1 DUP1 PUSH1 0xA0 SHL SUB DUP4 AND PUSH1 0x80 DUP4 ADD MSTORE SWAP7 SWAP6 POP POP POP POP POP POP JUMP JUMPDEST PUSH1 0x0 PUSH1 0x20 DUP3 DUP5 SUB SLT ISZERO PUSH2 0x28C1 JUMPI PUSH1 0x0 DUP1 REVERT JUMPDEST POP MLOAD SWAP2 SWAP1 POP JUMP JUMPDEST PUSH1 0x0 DUP3 MLOAD PUSH2 0x28DA DUP2 DUP5 PUSH1 0x20 DUP8 ADD PUSH2 0x24BB JUMP JUMPDEST SWAP2 SWAP1 SWAP2 ADD SWAP3 SWAP2 POP POP JUMP JUMPDEST PUSH4 0x4E487B71 PUSH1 0xE0 SHL PUSH1 0x0 MSTORE PUSH1 0x31 PUSH1 0x4 MSTORE PUSH1 0x24 PUSH1 0x0 REVERT INVALID PUSH19 0xF65D670185CE24AEFD6165DD11D1B3AD0D5076 0xCA BASEFEE SWAP10 0xC2 DELEGATECALL 0xB6 SWAP2 0xCE PUSH23 0x6E4C26A2646970667358221220A2B808CBA0B39DA9BD6D 0xC3 0x2F PUSH22 0x1CFD6640772C3BE7C24BB0732E6E8809E8BE4564736F PUSH13 0x63430008180033000000000000 "},"methodIdentifiers":{"PACKAGE_VERSION()":"93c44847","ciphertextHashToTransferId(bytes32)":"c2ea2631","depositErc20(address,uint256)":"6548b40d","depositNative()":"db6b5246","deposits(bytes32)":"3d4dff7b","domains()":"440df4f4","enrollRemoteRouter(uint32,bytes32)":"b49c53a7","enrollRemoteRouters(uint32[],bytes32[])":"e9198bf9","getTransferIdByCiphertextHash(bytes32)":"cd8ed5a9","handle(uint32,bytes32,bytes)":"56d5d475","hook()":"7f5a7c7b","initiateErc20Transfer(uint32,address,uint256,bytes)":"23764251","initiateNativeTransfer(uint32,bytes,uint256)":"fca937de","initiateTransfer(uint32,bytes32,bytes)":"9f78fbec","interchainSecurityModule()":"de523cf3","localDomain()":"8d3638f4","mailbox()":"d5438eae","owner()":"8da5cb5b","renounceOwnership()":"715018a6","routers(uint32)":"2ead72f6","setHook(address)":"3dfd3873","setInterchainSecurityModule(address)":"0e72cc06","transferIdToCiphertextHash(bytes32)":"9ff22002","transferOwnership(address)":"f2fde38b","transferToDepositId(bytes32)":"9ef4f883","transfers(bytes32)":"3c64f04b","unenrollRemoteRouter(uint32)":"efae508a","unenrollRemoteRouters(uint32[])":"71a15b38"}}}}}