{
  "_format": "hh-sol-artifact-1",
  "contractName": "Versioned",
  "sourceName": "@hyperlane-xyz/core/contracts/upgrade/Versioned.sol",
  "abi": [
    {
      "inputs": [],
      "name": "VERSION",
      "outputs": [
        {
          "internalType": "uint8",
          "name": "",
          "type": "uint8"
        }
      ],
      "stateMutability": "view",
      "type": "function"
    }
  ],
  "bytecode": "0x6080604052348015600f57600080fd5b5060808061001e6000396000f3fe6080604052348015600f57600080fd5b506004361060285760003560e01c8063ffa1ad7414602d575b600080fd5b6034600381565b60405160ff909116815260200160405180910390f3fea2646970667358221220dae890b02c3c18faa4f23ea4f45443726bb34bf735a1f71a19dc233cbf37eca464736f6c63430008180033",
  "linkReferences": {},
  "deployedLinkReferences": {}
}