{
  "_format": "hh-sol-artifact-1",
  "contractName": "Indexed",
  "sourceName": "@hyperlane-xyz/core/contracts/libs/Indexed.sol",
  "abi": [
    {
      "inputs": [],
      "stateMutability": "nonpayable",
      "type": "constructor"
    },
    {
      "inputs": [],
      "name": "deployedBlock",
      "outputs": [
        {
          "internalType": "uint256",
          "name": "",
          "type": "uint256"
        }
      ],
      "stateMutability": "view",
      "type": "function"
    }
  ],
  "bytecode": "0x60a0604052348015600f57600080fd5b5043608052608051609b61002c600039600060310152609b6000f3fe6080604052348015600f57600080fd5b506004361060285760003560e01c806382ea7bfe14602d575b600080fd5b60537f000000000000000000000000000000000000000000000000000000000000000081565b60405190815260200160405180910390f3fea2646970667358221220ca519593228f9fc61797c7d7e8783d8d6c47d92b733673589d39845aec60751164736f6c63430008180033",
  "linkReferences": {},
  "deployedLinkReferences": {}
}